{"abi":[{"type":"constructor","inputs":[{"name":"_finalityAddress","type":"address","internalType":"address"},{"name":"_l2OutputOracle","type":"address","internalType":"address"}],"stateMutability":"nonpayable"},{"type":"function","name":"BLOCK_STALE_MEASURE","inputs":[],"outputs":[{"name":"","type":"uint32","internalType":"uint32"}],"stateMutability":"view"},{"type":"function","name":"DEFAULT_ADMIN_ROLE","inputs":[],"outputs":[{"name":"","type":"bytes32","internalType":"bytes32"}],"stateMutability":"view"},{"type":"function","name":"THRESHOLD_DENOMINATOR","inputs":[],"outputs":[{"name":"","type":"uint256","internalType":"uint256"}],"stateMutability":"view"},{"type":"function","name":"batchId","inputs":[],"outputs":[{"name":"","type":"uint32","internalType":"uint32"}],"stateMutability":"view"},{"type":"function","name":"batchIdToBatchMetadataHash","inputs":[{"name":"","type":"uint32","internalType":"uint32"}],"outputs":[{"name":"","type":"bytes32","internalType":"bytes32"}],"stateMutability":"view"},{"type":"function","name":"finalityAddress","inputs":[],"outputs":[{"name":"","type":"address","internalType":"address"}],"stateMutability":"view"},{"type":"function","name":"getRoleAdmin","inputs":[{"name":"role","type":"bytes32","internalType":"bytes32"}],"outputs":[{"name":"","type":"bytes32","internalType":"bytes32"}],"stateMutability":"view"},{"type":"function","name":"grantRole","inputs":[{"name":"role","type":"bytes32","internalType":"bytes32"},{"name":"account","type":"address","internalType":"address"}],"outputs":[],"stateMutability":"nonpayable"},{"type":"function","name":"hasRole","inputs":[{"name":"role","type":"bytes32","internalType":"bytes32"},{"name":"account","type":"address","internalType":"address"}],"outputs":[{"name":"","type":"bool","internalType":"bool"}],"stateMutability":"view"},{"type":"function","name":"initialize","inputs":[{"name":"initialOwner","type":"address","internalType":"address"}],"outputs":[],"stateMutability":"nonpayable"},{"type":"function","name":"isBatchConfirmer","inputs":[{"name":"","type":"address","internalType":"address"}],"outputs":[{"name":"","type":"bool","internalType":"bool"}],"stateMutability":"view"},{"type":"function","name":"l2OutputOracle","inputs":[],"outputs":[{"name":"","type":"address","internalType":"address"}],"stateMutability":"view"},{"type":"function","name":"owner","inputs":[],"outputs":[{"name":"","type":"address","internalType":"address"}],"stateMutability":"view"},{"type":"function","name":"quorumAdversaryThresholdPercentages","inputs":[],"outputs":[{"name":"","type":"bytes","internalType":"bytes"}],"stateMutability":"view"},{"type":"function","name":"quorumConfirmationThresholdPercentages","inputs":[],"outputs":[{"name":"","type":"bytes","internalType":"bytes"}],"stateMutability":"view"},{"type":"function","name":"quorumNumbersRequired","inputs":[],"outputs":[{"name":"","type":"bytes","internalType":"bytes"}],"stateMutability":"view"},{"type":"function","name":"renounceOwnership","inputs":[],"outputs":[],"stateMutability":"nonpayable"},{"type":"function","name":"renounceRole","inputs":[{"name":"role","type":"bytes32","internalType":"bytes32"},{"name":"callerConfirmation","type":"address","internalType":"address"}],"outputs":[],"stateMutability":"nonpayable"},{"type":"function","name":"revokeRole","inputs":[{"name":"role","type":"bytes32","internalType":"bytes32"},{"name":"account","type":"address","internalType":"address"}],"outputs":[],"stateMutability":"nonpayable"},{"type":"function","name":"supportsInterface","inputs":[{"name":"interfaceId","type":"bytes4","internalType":"bytes4"}],"outputs":[{"name":"","type":"bool","internalType":"bool"}],"stateMutability":"view"},{"type":"function","name":"transferOwnership","inputs":[{"name":"newOwner","type":"address","internalType":"address"}],"outputs":[],"stateMutability":"nonpayable"},{"type":"function","name":"verifyFinality","inputs":[{"name":"batchHeader","type":"tuple","internalType":"struct IMantaServiceManager.BatchHeader","components":[{"name":"finalityRoot","type":"bytes32","internalType":"bytes32"},{"name":"quorumNumbers","type":"bytes","internalType":"bytes"},{"name":"signedStakeForQuorums","type":"bytes","internalType":"bytes"},{"name":"referenceBlockNumber","type":"uint32","internalType":"uint32"},{"name":"outputRoot","type":"bytes32","internalType":"bytes32"},{"name":"l2BlockNumber","type":"uint256","internalType":"uint256"},{"name":"l1BlockHash","type":"bytes32","internalType":"bytes32"},{"name":"l1BlockNumber","type":"uint256","internalType":"uint256"}]}],"outputs":[],"stateMutability":"nonpayable"},{"type":"event","name":"FinalityVerified","inputs":[{"name":"proposer","type":"address","indexed":true,"internalType":"address"},{"name":"outputRoot","type":"bytes32","indexed":false,"internalType":"bytes32"},{"name":"l2BlockNumber","type":"uint256","indexed":false,"internalType":"uint256"},{"name":"l1BlockHash","type":"bytes32","indexed":false,"internalType":"bytes32"},{"name":"l1BlockNumber","type":"uint256","indexed":false,"internalType":"uint256"}],"anonymous":false},{"type":"event","name":"Initialized","inputs":[{"name":"version","type":"uint64","indexed":false,"internalType":"uint64"}],"anonymous":false},{"type":"event","name":"OwnershipTransferred","inputs":[{"name":"previousOwner","type":"address","indexed":true,"internalType":"address"},{"name":"newOwner","type":"address","indexed":true,"internalType":"address"}],"anonymous":false},{"type":"event","name":"RoleAdminChanged","inputs":[{"name":"role","type":"bytes32","indexed":true,"internalType":"bytes32"},{"name":"previousAdminRole","type":"bytes32","indexed":true,"internalType":"bytes32"},{"name":"newAdminRole","type":"bytes32","indexed":true,"internalType":"bytes32"}],"anonymous":false},{"type":"event","name":"RoleGranted","inputs":[{"name":"role","type":"bytes32","indexed":true,"internalType":"bytes32"},{"name":"account","type":"address","indexed":true,"internalType":"address"},{"name":"sender","type":"address","indexed":true,"internalType":"address"}],"anonymous":false},{"type":"event","name":"RoleRevoked","inputs":[{"name":"role","type":"bytes32","indexed":true,"internalType":"bytes32"},{"name":"account","type":"address","indexed":true,"internalType":"address"},{"name":"sender","type":"address","indexed":true,"internalType":"address"}],"anonymous":false},{"type":"error","name":"AccessControlBadConfirmation","inputs":[]},{"type":"error","name":"AccessControlUnauthorizedAccount","inputs":[{"name":"account","type":"address","internalType":"address"},{"name":"neededRole","type":"bytes32","internalType":"bytes32"}]},{"type":"error","name":"InvalidInitialization","inputs":[]},{"type":"error","name":"NotInitializing","inputs":[]},{"type":"error","name":"OwnableInvalidOwner","inputs":[{"name":"owner","type":"address","internalType":"address"}]},{"type":"error","name":"OwnableUnauthorizedAccount","inputs":[{"name":"account","type":"address","internalType":"address"}]},{"type":"error","name":"ReentrancyGuardReentrantCall","inputs":[]}],"bytecode":{"object":"0x60c060405234801561001057600080fd5b50604051620012523803806200125283398101604081905261003191610121565b6001600160a01b03808316608052811660a05261004c610053565b5050610154565b7ff0c57e16840df040f15088dc2f81fe391c3923bec73e23a9662efc9c229c6a00805468010000000000000000900460ff16156100a35760405163f92ee8a960e01b815260040160405180910390fd5b80546001600160401b03908116146101025780546001600160401b0319166001600160401b0390811782556040519081527fc7f505b2f371ae2175ee4913f4499e1f2633a7b5936321eed1cdaeb6115181d29060200160405180910390a15b50565b80516001600160a01b038116811461011c57600080fd5b919050565b6000806040838503121561013457600080fd5b61013d83610105565b915061014b60208401610105565b90509250929050565b60805160a0516110ca62000188600039600081816101e201526109150152600081816102ed01526105d601526110ca6000f3fe608060405234801561001057600080fd5b50600436106101425760003560e01c8063a217fddf116100b8578063d547741f1161007c578063d547741f14610322578063e15234ff14610335578063e3feaa1714610352578063eccbbfc914610365578063ef02445814610385578063f2fde38b1461038d57600080fd5b8063a217fddf1461029d578063a5b7890a146102a5578063bafa9107146102c8578063c228fd08146102e8578063c4d66de81461030f57600080fd5b80634d9f15591161010a5780634d9f1559146101dd5780635e8b3f2d1461021c578063715018a6146102255780638687feae1461022d5780638da5cb5b1461025a57806391d148541461028a57600080fd5b806301ffc9a714610147578063248a9ca31461016f5780632f2ff15d1461019057806336568abe146101a55780634972134a146101b8575b600080fd5b61015a610155366004610d8a565b6103a0565b60405190151581526020015b60405180910390f35b61018261017d366004610dbb565b6103d7565b604051908152602001610166565b6101a361019e366004610df0565b6103f9565b005b6101a36101b3366004610df0565b61041b565b6000546101c89063ffffffff1681565b60405163ffffffff9091168152602001610166565b6102047f000000000000000000000000000000000000000000000000000000000000000081565b6040516001600160a01b039091168152602001610166565b6101c861012c81565b6101a3610453565b61024d604051806040016040528060018152602001602160f81b81525081565b6040516101669190610e6c565b7f9016d09d72d40fdae2fd8ceac6b6234c7706214fd39c1cd1e609a0528c199300546001600160a01b0316610204565b61015a610298366004610df0565b610467565b610182600081565b61015a6102b3366004610e7f565b60026020526000908152604090205460ff1681565b61024d604051806040016040528060018152602001603760f81b81525081565b6102047f000000000000000000000000000000000000000000000000000000000000000081565b6101a361031d366004610e7f565b61049f565b6101a3610330366004610df0565b6105af565b61024d604051806040016040528060018152602001600081525081565b6101a3610360366004610e9a565b6105cb565b610182610373366004610ed6565b60016020526000908152604090205481565b610182606481565b6101a361039b366004610e7f565b610ab2565b60006001600160e01b03198216637965db0b60e01b14806103d157506301ffc9a760e01b6001600160e01b03198316145b92915050565b6000908152600080516020611075833981519152602052604090206001015490565b610402826103d7565b61040b81610af0565b6104158383610afa565b50505050565b6001600160a01b03811633146104445760405163334bd91960e11b815260040160405180910390fd5b61044e8282610ba6565b505050565b61045b610c22565b6104656000610c7d565b565b6000918252600080516020611075833981519152602090815260408084206001600160a01b0393909316845291905290205460ff1690565b7ff0c57e16840df040f15088dc2f81fe391c3923bec73e23a9662efc9c229c6a008054600160401b810460ff16159067ffffffffffffffff166000811580156104e55750825b905060008267ffffffffffffffff1660011480156105025750303b155b905081158015610510575080155b1561052e5760405163f92ee8a960e01b815260040160405180910390fd5b845467ffffffffffffffff19166001178555831561055857845460ff60401b1916600160401b1785555b61056186610c7d565b83156105a757845460ff60401b19168555604051600181527fc7f505b2f371ae2175ee4913f4499e1f2633a7b5936321eed1cdaeb6115181d29060200160405180910390a15b505050505050565b6105b8826103d7565b6105c181610af0565b6104158383610ba6565b336001600160a01b037f00000000000000000000000000000000000000000000000000000000000000001614610670576040805162461bcd60e51b81526020600482015260248101919091527f4d616e7461536572766963654d616e616765722e6f6e6c792066696e616c697460448201527f79206d616e616765722063616e2063616c6c20746869732066756e6374696f6e60648201526084015b60405180910390fd5b3233146106ed5760405162461bcd60e51b8152602060048201526051602482015260008051602061105583398151915260448201527f74793a2068656164657220616e64206e6f6e7369676e65722064617461206d75606482015270737420626520696e2063616c6c6461746160781b608482015260a401610667565b436106fe6080830160608401610ed6565b63ffffffff161061077d5760405162461bcd60e51b815260206004820152604f602482015260008051602061105583398151915260448201527f74793a20737065636966696564207265666572656e6365426c6f636b4e756d6260648201526e657220697320696e2066757475726560881b608482015260a401610667565b63ffffffff431661012c6107976080840160608501610ed6565b6107a19190610efc565b63ffffffff1610156108275760405162461bcd60e51b8152602060048201526055602482015260008051602061105583398151915260448201527f74793a20737065636966696564207265666572656e6365426c6f636b4e756d62606482015274195c881a5cc81d1bdbc819985c881a5b881c185cdd605a1b608482015260a401610667565b6108346040820182610f27565b90506108436020830183610f27565b9050146108db5760405162461bcd60e51b8152602060048201526066602482015260008051602061105583398151915260448201527f74793a2071756f72756d4e756d6265727320616e64207369676e65645374616b60648201527f65466f7251756f72756d73206d757374206265206f66207468652073616d65206084820152650d8cadccee8d60d31b60a482015260c401610667565b6040516080820135602482015260a0820135604482015260c0820135606482015260e0820135608482015260009081906001600160a01b037f0000000000000000000000000000000000000000000000000000000000000000169060a40160408051601f198184030181529181526020820180516001600160e01b031663135556c960e31b1790525161096e9190610f75565b6000604051808303816000865af19150503d80600081146109ab576040519150601f19603f3d011682016040523d82523d6000602084013e6109b0565b606091505b509150915081610a58578051156109e85760006109cc82610cee565b90508060405162461bcd60e51b81526004016106679190610e6c565b6040805162461bcd60e51b81526020600482015260248101919091527f63616c6c2070726f706f7365204c324f7574707574206661696c65642077697460448201527f686f75742070726f766964696e6720616e79206572726f72206d6573736167656064820152608401610667565b60408051608085810135825260a0860135602083015260c08601358284015260e08601356060830152915133927fbea36b7214d7d22729389923a440c2ae7ecb5a9c0039ef0f3659f76f478a52b2928290030190a2505050565b610aba610c22565b6001600160a01b038116610ae457604051631e4fbdf760e01b815260006004820152602401610667565b610aed81610c7d565b50565b610aed8133610d4d565b6000600080516020611075833981519152610b158484610467565b610b95576000848152602082815260408083206001600160a01b03871684529091529020805460ff19166001179055610b4b3390565b6001600160a01b0316836001600160a01b0316857f2f8788117e7eff1d82e926ec794901d17c78024a50270940304540a733656f0d60405160405180910390a460019150506103d1565b60009150506103d1565b5092915050565b6000600080516020611075833981519152610bc18484610467565b15610b95576000848152602082815260408083206001600160a01b0387168085529252808320805460ff1916905551339287917ff6391f5c32d9c69d2a47ea670b442974b53935d1edc7fd64eb21e047a839171b9190a460019150506103d1565b33610c547f9016d09d72d40fdae2fd8ceac6b6234c7706214fd39c1cd1e609a0528c199300546001600160a01b031690565b6001600160a01b0316146104655760405163118cdaa760e01b8152336004820152602401610667565b7f9016d09d72d40fdae2fd8ceac6b6234c7706214fd39c1cd1e609a0528c19930080546001600160a01b031981166001600160a01b03848116918217845560405192169182907f8be0079c531659141344cd1fd0a4f28419497f9722a3daafe3b4186f6b6457e090600090a3505050565b6060604482511015610d3357505060408051808201909152601d81527f5472616e73616374696f6e2072657665727465642073696c656e746c79000000602082015290565b600482019150818060200190518101906103d19190610fa7565b610d578282610467565b610d865760405163e2517d3f60e01b81526001600160a01b038216600482015260248101839052604401610667565b5050565b600060208284031215610d9c57600080fd5b81356001600160e01b031981168114610db457600080fd5b9392505050565b600060208284031215610dcd57600080fd5b5035919050565b80356001600160a01b0381168114610deb57600080fd5b919050565b60008060408385031215610e0357600080fd5b82359150610e1360208401610dd4565b90509250929050565b60005b83811015610e37578181015183820152602001610e1f565b50506000910152565b60008151808452610e58816020860160208601610e1c565b601f01601f19169290920160200192915050565b602081526000610db46020830184610e40565b600060208284031215610e9157600080fd5b610db482610dd4565b600060208284031215610eac57600080fd5b813567ffffffffffffffff811115610ec357600080fd5b82016101008185031215610db457600080fd5b600060208284031215610ee857600080fd5b813563ffffffff81168114610db457600080fd5b63ffffffff818116838216019080821115610b9f57634e487b7160e01b600052601160045260246000fd5b6000808335601e19843603018112610f3e57600080fd5b83018035915067ffffffffffffffff821115610f5957600080fd5b602001915036819003821315610f6e57600080fd5b9250929050565b60008251610f87818460208701610e1c565b9190910192915050565b634e487b7160e01b600052604160045260246000fd5b600060208284031215610fb957600080fd5b815167ffffffffffffffff80821115610fd157600080fd5b818401915084601f830112610fe557600080fd5b815181811115610ff757610ff7610f91565b604051601f8201601f19908116603f0116810190838211818310171561101f5761101f610f91565b8160405282815287602084870101111561103857600080fd5b611049836020830160208801610e1c565b97965050505050505056fe4d616e7461536572766963654d616e616765722e76657269667946696e616c6902dd7bc7dec4dceedda775e58dd541e08a116c6c53815c0bd028192f7b626800a264697066735822122037b1057b6b5af80de161ab16d657b4b6f15727f21cb17aa0df2e0d61423fdea964736f6c63430008180033","linkReferences":{}},"methodIdentifiers":{"BLOCK_STALE_MEASURE()":"5e8b3f2d","DEFAULT_ADMIN_ROLE()":"a217fddf","THRESHOLD_DENOMINATOR()":"ef024458","batchId()":"4972134a","batchIdToBatchMetadataHash(uint32)":"eccbbfc9","finalityAddress()":"c228fd08","getRoleAdmin(bytes32)":"248a9ca3","grantRole(bytes32,address)":"2f2ff15d","hasRole(bytes32,address)":"91d14854","initialize(address)":"c4d66de8","isBatchConfirmer(address)":"a5b7890a","l2OutputOracle()":"4d9f1559","owner()":"8da5cb5b","quorumAdversaryThresholdPercentages()":"8687feae","quorumConfirmationThresholdPercentages()":"bafa9107","quorumNumbersRequired()":"e15234ff","renounceOwnership()":"715018a6","renounceRole(bytes32,address)":"36568abe","revokeRole(bytes32,address)":"d547741f","supportsInterface(bytes4)":"01ffc9a7","transferOwnership(address)":"f2fde38b","verifyFinality((bytes32,bytes,bytes,uint32,bytes32,uint256,bytes32,uint256))":"e3feaa17"},"id":39}