{"abi":[{"type":"constructor","inputs":[{"name":"_strategyManager","type":"address","internalType":"contract IStrategyManager"}],"stateMutability":"nonpayable"},{"type":"function","name":"DELEGATION_APPROVAL_TYPEHASH","inputs":[],"outputs":[{"name":"","type":"bytes32","internalType":"bytes32"}],"stateMutability":"view"},{"type":"function","name":"DOMAIN_TYPEHASH","inputs":[],"outputs":[{"name":"","type":"bytes32","internalType":"bytes32"}],"stateMutability":"view"},{"type":"function","name":"MAX_STAKER_OPT_OUT_WINDOW_BLOCKS","inputs":[],"outputs":[{"name":"","type":"uint256","internalType":"uint256"}],"stateMutability":"view"},{"type":"function","name":"MAX_WITHDRAWAL_DELAY_BLOCKS","inputs":[],"outputs":[{"name":"","type":"uint256","internalType":"uint256"}],"stateMutability":"view"},{"type":"function","name":"STAKER_DELEGATION_TYPEHASH","inputs":[],"outputs":[{"name":"","type":"bytes32","internalType":"bytes32"}],"stateMutability":"view"},{"type":"function","name":"calculateCurrentStakerDelegationDigestHash","inputs":[{"name":"staker","type":"address","internalType":"address"},{"name":"operator","type":"address","internalType":"address"},{"name":"expiry","type":"uint256","internalType":"uint256"}],"outputs":[{"name":"","type":"bytes32","internalType":"bytes32"}],"stateMutability":"view"},{"type":"function","name":"calculateDelegationApprovalDigestHash","inputs":[{"name":"staker","type":"address","internalType":"address"},{"name":"operator","type":"address","internalType":"address"},{"name":"_delegationApprover","type":"address","internalType":"address"},{"name":"approverSalt","type":"bytes32","internalType":"bytes32"},{"name":"expiry","type":"uint256","internalType":"uint256"}],"outputs":[{"name":"","type":"bytes32","internalType":"bytes32"}],"stateMutability":"view"},{"type":"function","name":"calculateStakerDelegationDigestHash","inputs":[{"name":"staker","type":"address","internalType":"address"},{"name":"_stakerNonce","type":"uint256","internalType":"uint256"},{"name":"operator","type":"address","internalType":"address"},{"name":"expiry","type":"uint256","internalType":"uint256"}],"outputs":[{"name":"","type":"bytes32","internalType":"bytes32"}],"stateMutability":"view"},{"type":"function","name":"calculateWithdrawalRoot","inputs":[{"name":"withdrawal","type":"tuple","internalType":"struct IDelegationManager.Withdrawal","components":[{"name":"staker","type":"address","internalType":"address"},{"name":"delegatedTo","type":"address","internalType":"address"},{"name":"withdrawer","type":"address","internalType":"address"},{"name":"nonce","type":"uint256","internalType":"uint256"},{"name":"startBlock","type":"uint32","internalType":"uint32"},{"name":"strategies","type":"address[]","internalType":"contract IStrategyBase[]"},{"name":"shares","type":"uint256[]","internalType":"uint256[]"}]}],"outputs":[{"name":"","type":"bytes32","internalType":"bytes32"}],"stateMutability":"pure"},{"type":"function","name":"completeQueuedWithdrawal","inputs":[{"name":"withdrawal","type":"tuple","internalType":"struct IDelegationManager.Withdrawal","components":[{"name":"staker","type":"address","internalType":"address"},{"name":"delegatedTo","type":"address","internalType":"address"},{"name":"withdrawer","type":"address","internalType":"address"},{"name":"nonce","type":"uint256","internalType":"uint256"},{"name":"startBlock","type":"uint32","internalType":"uint32"},{"name":"strategies","type":"address[]","internalType":"contract IStrategyBase[]"},{"name":"shares","type":"uint256[]","internalType":"uint256[]"}]},{"name":"weth","type":"address","internalType":"contract IERC20"},{"name":"middlewareTimesIndex","type":"uint256","internalType":"uint256"},{"name":"receiveAsWeth","type":"bool","internalType":"bool"}],"outputs":[],"stateMutability":"nonpayable"},{"type":"function","name":"completeQueuedWithdrawals","inputs":[{"name":"withdrawals","type":"tuple[]","internalType":"struct IDelegationManager.Withdrawal[]","components":[{"name":"staker","type":"address","internalType":"address"},{"name":"delegatedTo","type":"address","internalType":"address"},{"name":"withdrawer","type":"address","internalType":"address"},{"name":"nonce","type":"uint256","internalType":"uint256"},{"name":"startBlock","type":"uint32","internalType":"uint32"},{"name":"strategies","type":"address[]","internalType":"contract IStrategyBase[]"},{"name":"shares","type":"uint256[]","internalType":"uint256[]"}]},{"name":"weth","type":"address","internalType":"contract IERC20"},{"name":"middlewareTimesIndexes","type":"uint256[]","internalType":"uint256[]"},{"name":"receiveAsWeth","type":"bool[]","internalType":"bool[]"}],"outputs":[],"stateMutability":"nonpayable"},{"type":"function","name":"cumulativeWithdrawalsQueued","inputs":[{"name":"","type":"address","internalType":"address"}],"outputs":[{"name":"","type":"uint256","internalType":"uint256"}],"stateMutability":"view"},{"type":"function","name":"decreaseDelegatedShares","inputs":[{"name":"staker","type":"address","internalType":"address"},{"name":"strategy","type":"address","internalType":"contract IStrategyBase"},{"name":"shares","type":"uint256","internalType":"uint256"}],"outputs":[],"stateMutability":"nonpayable"},{"type":"function","name":"delegateTo","inputs":[{"name":"operator","type":"address","internalType":"address"},{"name":"approverSignatureAndExpiry","type":"tuple","internalType":"struct ISignatureUtils.SignatureWithExpiry","components":[{"name":"signature","type":"bytes","internalType":"bytes"},{"name":"expiry","type":"uint256","internalType":"uint256"}]},{"name":"approverSalt","type":"bytes32","internalType":"bytes32"}],"outputs":[],"stateMutability":"nonpayable"},{"type":"function","name":"delegateToBySignature","inputs":[{"name":"staker","type":"address","internalType":"address"},{"name":"operator","type":"address","internalType":"address"},{"name":"stakerSignatureAndExpiry","type":"tuple","internalType":"struct ISignatureUtils.SignatureWithExpiry","components":[{"name":"signature","type":"bytes","internalType":"bytes"},{"name":"expiry","type":"uint256","internalType":"uint256"}]},{"name":"approverSignatureAndExpiry","type":"tuple","internalType":"struct ISignatureUtils.SignatureWithExpiry","components":[{"name":"signature","type":"bytes","internalType":"bytes"},{"name":"expiry","type":"uint256","internalType":"uint256"}]},{"name":"approverSalt","type":"bytes32","internalType":"bytes32"}],"outputs":[],"stateMutability":"nonpayable"},{"type":"function","name":"delegatedTo","inputs":[{"name":"","type":"address","internalType":"address"}],"outputs":[{"name":"","type":"address","internalType":"address"}],"stateMutability":"view"},{"type":"function","name":"delegationApprover","inputs":[{"name":"operator","type":"address","internalType":"address"}],"outputs":[{"name":"","type":"address","internalType":"address"}],"stateMutability":"view"},{"type":"function","name":"delegationApproverSaltIsSpent","inputs":[{"name":"","type":"address","internalType":"address"},{"name":"","type":"bytes32","internalType":"bytes32"}],"outputs":[{"name":"","type":"bool","internalType":"bool"}],"stateMutability":"view"},{"type":"function","name":"domainSeparator","inputs":[],"outputs":[{"name":"","type":"bytes32","internalType":"bytes32"}],"stateMutability":"view"},{"type":"function","name":"earningsReceiver","inputs":[{"name":"operator","type":"address","internalType":"address"}],"outputs":[{"name":"","type":"address","internalType":"address"}],"stateMutability":"view"},{"type":"function","name":"getDelegatableShares","inputs":[{"name":"staker","type":"address","internalType":"address"}],"outputs":[{"name":"","type":"address[]","internalType":"contract IStrategyBase[]"},{"name":"","type":"uint256[]","internalType":"uint256[]"}],"stateMutability":"view"},{"type":"function","name":"getOperatorShares","inputs":[{"name":"operator","type":"address","internalType":"address"},{"name":"strategies","type":"address[]","internalType":"contract IStrategyBase[]"}],"outputs":[{"name":"","type":"uint256[]","internalType":"uint256[]"}],"stateMutability":"view"},{"type":"function","name":"getWithdrawalDelay","inputs":[{"name":"strategies","type":"address[]","internalType":"contract IStrategyBase[]"}],"outputs":[{"name":"","type":"uint256","internalType":"uint256"}],"stateMutability":"view"},{"type":"function","name":"increaseDelegatedShares","inputs":[{"name":"staker","type":"address","internalType":"address"},{"name":"strategy","type":"address","internalType":"contract IStrategyBase"},{"name":"shares","type":"uint256","internalType":"uint256"}],"outputs":[],"stateMutability":"nonpayable"},{"type":"function","name":"initialize","inputs":[{"name":"initialOwner","type":"address","internalType":"address"},{"name":"_pauserRegistry","type":"address","internalType":"contract IPauserRegistry"},{"name":"initialPausedStatus","type":"uint256","internalType":"uint256"},{"name":"_minWithdrawalDelayBlocks","type":"uint256","internalType":"uint256"},{"name":"_strategies","type":"address[]","internalType":"contract IStrategyBase[]"},{"name":"_withdrawalDelayBlocks","type":"uint256[]","internalType":"uint256[]"}],"outputs":[],"stateMutability":"nonpayable"},{"type":"function","name":"isDelegated","inputs":[{"name":"staker","type":"address","internalType":"address"}],"outputs":[{"name":"","type":"bool","internalType":"bool"}],"stateMutability":"view"},{"type":"function","name":"isOperator","inputs":[{"name":"operator","type":"address","internalType":"address"}],"outputs":[{"name":"","type":"bool","internalType":"bool"}],"stateMutability":"view"},{"type":"function","name":"migrateQueuedWithdrawals","inputs":[{"name":"withdrawalsToMigrate","type":"tuple[]","internalType":"struct IStrategyManager.DeprecatedStruct_QueuedWithdrawal[]","components":[{"name":"strategies","type":"address[]","internalType":"contract IStrategyBase[]"},{"name":"shares","type":"uint256[]","internalType":"uint256[]"},{"name":"staker","type":"address","internalType":"address"},{"name":"withdrawerAndNonce","type":"tuple","internalType":"struct IStrategyManager.DeprecatedStruct_WithdrawerAndNonce","components":[{"name":"withdrawer","type":"address","internalType":"address"},{"name":"nonce","type":"uint96","internalType":"uint96"}]},{"name":"withdrawalStartBlock","type":"uint32","internalType":"uint32"},{"name":"delegatedAddress","type":"address","internalType":"address"}]}],"outputs":[],"stateMutability":"nonpayable"},{"type":"function","name":"minWithdrawalDelayBlocks","inputs":[],"outputs":[{"name":"","type":"uint256","internalType":"uint256"}],"stateMutability":"view"},{"type":"function","name":"modifyOperatorDetails","inputs":[{"name":"newOperatorDetails","type":"tuple","internalType":"struct IDelegationManager.OperatorDetails","components":[{"name":"earningsReceiver","type":"address","internalType":"address"},{"name":"delegationApprover","type":"address","internalType":"address"},{"name":"stakerOptOutWindowBlocks","type":"uint32","internalType":"uint32"},{"name":"operatorType","type":"uint8","internalType":"enum IDelegationManager.OperatorType"}]}],"outputs":[],"stateMutability":"nonpayable"},{"type":"function","name":"operatorDetails","inputs":[{"name":"operator","type":"address","internalType":"address"}],"outputs":[{"name":"","type":"tuple","internalType":"struct IDelegationManager.OperatorDetails","components":[{"name":"earningsReceiver","type":"address","internalType":"address"},{"name":"delegationApprover","type":"address","internalType":"address"},{"name":"stakerOptOutWindowBlocks","type":"uint32","internalType":"uint32"},{"name":"operatorType","type":"uint8","internalType":"enum IDelegationManager.OperatorType"}]}],"stateMutability":"view"},{"type":"function","name":"operatorShares","inputs":[{"name":"","type":"address","internalType":"address"},{"name":"","type":"address","internalType":"contract IStrategyBase"}],"outputs":[{"name":"","type":"uint256","internalType":"uint256"}],"stateMutability":"view"},{"type":"function","name":"owner","inputs":[],"outputs":[{"name":"","type":"address","internalType":"address"}],"stateMutability":"view"},{"type":"function","name":"pause","inputs":[{"name":"newPausedStatus","type":"uint256","internalType":"uint256"}],"outputs":[],"stateMutability":"nonpayable"},{"type":"function","name":"pauseAll","inputs":[],"outputs":[],"stateMutability":"nonpayable"},{"type":"function","name":"paused","inputs":[{"name":"index","type":"uint8","internalType":"uint8"}],"outputs":[{"name":"","type":"bool","internalType":"bool"}],"stateMutability":"view"},{"type":"function","name":"paused","inputs":[],"outputs":[{"name":"","type":"uint256","internalType":"uint256"}],"stateMutability":"view"},{"type":"function","name":"pauserRegistry","inputs":[],"outputs":[{"name":"","type":"address","internalType":"contract IPauserRegistry"}],"stateMutability":"view"},{"type":"function","name":"pendingWithdrawals","inputs":[{"name":"","type":"bytes32","internalType":"bytes32"}],"outputs":[{"name":"","type":"bool","internalType":"bool"}],"stateMutability":"view"},{"type":"function","name":"queueWithdrawals","inputs":[{"name":"queuedWithdrawalParams","type":"tuple[]","internalType":"struct IDelegationManager.QueuedWithdrawalParams[]","components":[{"name":"strategies","type":"address[]","internalType":"contract IStrategyBase[]"},{"name":"shares","type":"uint256[]","internalType":"uint256[]"},{"name":"withdrawer","type":"address","internalType":"address"}]}],"outputs":[{"name":"","type":"bytes32[]","internalType":"bytes32[]"}],"stateMutability":"nonpayable"},{"type":"function","name":"registerAsOperator","inputs":[{"name":"registeringOperatorDetails","type":"tuple","internalType":"struct IDelegationManager.OperatorDetails","components":[{"name":"earningsReceiver","type":"address","internalType":"address"},{"name":"delegationApprover","type":"address","internalType":"address"},{"name":"stakerOptOutWindowBlocks","type":"uint32","internalType":"uint32"},{"name":"operatorType","type":"uint8","internalType":"enum IDelegationManager.OperatorType"}]},{"name":"nodeUrl","type":"string","internalType":"string"}],"outputs":[],"stateMutability":"nonpayable"},{"type":"function","name":"renounceOwnership","inputs":[],"outputs":[],"stateMutability":"nonpayable"},{"type":"function","name":"setMinWithdrawalDelayBlocks","inputs":[{"name":"newMinWithdrawalDelayBlocks","type":"uint256","internalType":"uint256"}],"outputs":[],"stateMutability":"nonpayable"},{"type":"function","name":"setPauserRegistry","inputs":[{"name":"newPauserRegistry","type":"address","internalType":"contract IPauserRegistry"}],"outputs":[],"stateMutability":"nonpayable"},{"type":"function","name":"setStrategyWithdrawalDelayBlocks","inputs":[{"name":"strategies","type":"address[]","internalType":"contract IStrategyBase[]"},{"name":"withdrawalDelayBlocks","type":"uint256[]","internalType":"uint256[]"}],"outputs":[],"stateMutability":"nonpayable"},{"type":"function","name":"stakerNonce","inputs":[{"name":"","type":"address","internalType":"address"}],"outputs":[{"name":"","type":"uint256","internalType":"uint256"}],"stateMutability":"view"},{"type":"function","name":"stakerOptOutWindowBlocks","inputs":[{"name":"operator","type":"address","internalType":"address"}],"outputs":[{"name":"","type":"uint256","internalType":"uint256"}],"stateMutability":"view"},{"type":"function","name":"stakerStrategyOperatorShares","inputs":[{"name":"","type":"address","internalType":"address"},{"name":"","type":"address","internalType":"contract IStrategyBase"},{"name":"","type":"address","internalType":"address"}],"outputs":[{"name":"","type":"uint256","internalType":"uint256"}],"stateMutability":"view"},{"type":"function","name":"strategyManager","inputs":[],"outputs":[{"name":"","type":"address","internalType":"contract IStrategyManager"}],"stateMutability":"view"},{"type":"function","name":"strategyWithdrawalDelayBlocks","inputs":[{"name":"","type":"address","internalType":"contract IStrategyBase"}],"outputs":[{"name":"","type":"uint256","internalType":"uint256"}],"stateMutability":"view"},{"type":"function","name":"transferOwnership","inputs":[{"name":"newOwner","type":"address","internalType":"address"}],"outputs":[],"stateMutability":"nonpayable"},{"type":"function","name":"undelegate","inputs":[{"name":"staker","type":"address","internalType":"address"}],"outputs":[{"name":"withdrawalRoots","type":"bytes32[]","internalType":"bytes32[]"}],"stateMutability":"nonpayable"},{"type":"function","name":"unpause","inputs":[{"name":"newPausedStatus","type":"uint256","internalType":"uint256"}],"outputs":[],"stateMutability":"nonpayable"},{"type":"function","name":"updateOperatorNodeUrl","inputs":[{"name":"nodeUrl","type":"string","internalType":"string"}],"outputs":[],"stateMutability":"nonpayable"},{"type":"event","name":"Initialized","inputs":[{"name":"version","type":"uint64","indexed":false,"internalType":"uint64"}],"anonymous":false},{"type":"event","name":"MinWithdrawalDelayBlocksSet","inputs":[{"name":"previousValue","type":"uint256","indexed":false,"internalType":"uint256"},{"name":"newValue","type":"uint256","indexed":false,"internalType":"uint256"}],"anonymous":false},{"type":"event","name":"OperatorDetailsModified","inputs":[{"name":"operator","type":"address","indexed":true,"internalType":"address"},{"name":"newOperatorDetails","type":"tuple","indexed":false,"internalType":"struct IDelegationManager.OperatorDetails","components":[{"name":"earningsReceiver","type":"address","internalType":"address"},{"name":"delegationApprover","type":"address","internalType":"address"},{"name":"stakerOptOutWindowBlocks","type":"uint32","internalType":"uint32"},{"name":"operatorType","type":"uint8","internalType":"enum IDelegationManager.OperatorType"}]}],"anonymous":false},{"type":"event","name":"OperatorNodeUrlUpdated","inputs":[{"name":"operator","type":"address","indexed":true,"internalType":"address"},{"name":"metadataURI","type":"string","indexed":false,"internalType":"string"}],"anonymous":false},{"type":"event","name":"OperatorRegistered","inputs":[{"name":"operator","type":"address","indexed":true,"internalType":"address"},{"name":"operatorDetails","type":"tuple","indexed":false,"internalType":"struct IDelegationManager.OperatorDetails","components":[{"name":"earningsReceiver","type":"address","internalType":"address"},{"name":"delegationApprover","type":"address","internalType":"address"},{"name":"stakerOptOutWindowBlocks","type":"uint32","internalType":"uint32"},{"name":"operatorType","type":"uint8","internalType":"enum IDelegationManager.OperatorType"}]}],"anonymous":false},{"type":"event","name":"OperatorSharesDecreased","inputs":[{"name":"operator","type":"address","indexed":true,"internalType":"address"},{"name":"staker","type":"address","indexed":false,"internalType":"address"},{"name":"strategy","type":"address","indexed":false,"internalType":"contract IStrategyBase"},{"name":"shares","type":"uint256","indexed":false,"internalType":"uint256"}],"anonymous":false},{"type":"event","name":"OperatorSharesIncreased","inputs":[{"name":"operator","type":"address","indexed":true,"internalType":"address"},{"name":"staker","type":"address","indexed":false,"internalType":"address"},{"name":"strategy","type":"address","indexed":false,"internalType":"contract IStrategyBase"},{"name":"shares","type":"uint256","indexed":false,"internalType":"uint256"}],"anonymous":false},{"type":"event","name":"OwnershipTransferred","inputs":[{"name":"previousOwner","type":"address","indexed":true,"internalType":"address"},{"name":"newOwner","type":"address","indexed":true,"internalType":"address"}],"anonymous":false},{"type":"event","name":"Paused","inputs":[{"name":"account","type":"address","indexed":true,"internalType":"address"},{"name":"newPausedStatus","type":"uint256","indexed":false,"internalType":"uint256"}],"anonymous":false},{"type":"event","name":"PauserRegistrySet","inputs":[{"name":"pauserRegistry","type":"address","indexed":false,"internalType":"contract IPauserRegistry"},{"name":"newPauserRegistry","type":"address","indexed":false,"internalType":"contract IPauserRegistry"}],"anonymous":false},{"type":"event","name":"StakerDelegated","inputs":[{"name":"staker","type":"address","indexed":true,"internalType":"address"},{"name":"operator","type":"address","indexed":true,"internalType":"address"}],"anonymous":false},{"type":"event","name":"StakerForceUndelegated","inputs":[{"name":"staker","type":"address","indexed":true,"internalType":"address"},{"name":"operator","type":"address","indexed":true,"internalType":"address"}],"anonymous":false},{"type":"event","name":"StakerUndelegated","inputs":[{"name":"staker","type":"address","indexed":true,"internalType":"address"},{"name":"operator","type":"address","indexed":true,"internalType":"address"}],"anonymous":false},{"type":"event","name":"StrategyWithdrawalDelayBlocksSet","inputs":[{"name":"strategy","type":"address","indexed":false,"internalType":"contract IStrategyBase"},{"name":"previousValue","type":"uint256","indexed":false,"internalType":"uint256"},{"name":"newValue","type":"uint256","indexed":false,"internalType":"uint256"}],"anonymous":false},{"type":"event","name":"Unpaused","inputs":[{"name":"account","type":"address","indexed":true,"internalType":"address"},{"name":"newPausedStatus","type":"uint256","indexed":false,"internalType":"uint256"}],"anonymous":false},{"type":"event","name":"WithdrawalCompleted","inputs":[{"name":"operator","type":"address","indexed":false,"internalType":"address"},{"name":"staker","type":"address","indexed":false,"internalType":"address"},{"name":"strategy","type":"address","indexed":false,"internalType":"contract IStrategyBase"},{"name":"shares","type":"uint256","indexed":false,"internalType":"uint256"}],"anonymous":false},{"type":"event","name":"WithdrawalMigrated","inputs":[{"name":"oldWithdrawalRoot","type":"bytes32","indexed":false,"internalType":"bytes32"},{"name":"newWithdrawalRoot","type":"bytes32","indexed":false,"internalType":"bytes32"}],"anonymous":false},{"type":"event","name":"WithdrawalQueued","inputs":[{"name":"withdrawalRoot","type":"bytes32","indexed":false,"internalType":"bytes32"},{"name":"withdrawal","type":"tuple","indexed":false,"internalType":"struct IDelegationManager.Withdrawal","components":[{"name":"staker","type":"address","internalType":"address"},{"name":"delegatedTo","type":"address","internalType":"address"},{"name":"withdrawer","type":"address","internalType":"address"},{"name":"nonce","type":"uint256","internalType":"uint256"},{"name":"startBlock","type":"uint32","internalType":"uint32"},{"name":"strategies","type":"address[]","internalType":"contract IStrategyBase[]"},{"name":"shares","type":"uint256[]","internalType":"uint256[]"}]}],"anonymous":false},{"type":"error","name":"ECDSAInvalidSignature","inputs":[]},{"type":"error","name":"ECDSAInvalidSignatureLength","inputs":[{"name":"length","type":"uint256","internalType":"uint256"}]},{"type":"error","name":"ECDSAInvalidSignatureS","inputs":[{"name":"s","type":"bytes32","internalType":"bytes32"}]},{"type":"error","name":"InvalidInitialization","inputs":[]},{"type":"error","name":"NotInitializing","inputs":[]},{"type":"error","name":"OwnableInvalidOwner","inputs":[{"name":"owner","type":"address","internalType":"address"}]},{"type":"error","name":"OwnableUnauthorizedAccount","inputs":[{"name":"account","type":"address","internalType":"address"}]},{"type":"error","name":"ReentrancyGuardReentrantCall","inputs":[]}],"bytecode":{"object":"0x60c0346200016e576001600160401b0390601f6200511f38819003918201601f19168301918483118484101762000172578084926020946040528339810103126200016e57516001600160a01b03811681036200016e576080527ff0c57e16840df040f15088dc2f81fe391c3923bec73e23a9662efc9c229c6a009081549060ff8260401c166200015c57808083160362000116575b4660a052604051614f9890816200018782396080518181816106a40152818161071301528181610840015281816108af015281816115f601528181611665015281816117920152818161180101528181611a460152818161205401528181612189015281816127ac015281816138f30152613a8c015260a05181613a340152f35b6001600160401b031990911681179091556040519081527fc7f505b2f371ae2175ee4913f4499e1f2633a7b5936321eed1cdaeb6115181d290602090a15f808062000095565b60405163f92ee8a960e01b8152600490fd5b5f80fd5b634e487b7160e01b5f52604160045260245ffdfe60806040526004361015610011575f80fd5b60e05f3560e01c9081630449ca3914612fbe57816304a4f97914612f845781630b9f487a14612f485781630dd8dd0214612db957816310d67a2f14612d37578163116745781461280c578163132d49671461278c578163136439dd1461265d5781631522bf021461260557816316928365146125c15781631bbce0911461257b5781631c8392d71461247f57816320606b701461244557816322bf40e4146121e957816328a573ae1461216957816329c77d4f1461213157816330d0377b1461208357816339b70e381461203f5781633cdeb5e0146120035781633e28391d14611fc65781634337738214611f8c5781634fc40b6114611f6f578163595c6a6714611eaf578163597b36da14611e7a5781635ac86ab714611e475781635c975abb14611e2a5781635cfe8d2c146119d2575080635f966f1414611999578063635bbd101461197557806365da12641461193c5780636d70f7ae146118f55780636f8c9884146114a3578063715018a61461143c578063778e55f3146113ef5780637f548071146112c4578063886f11951461129d5780638da5cb5b1461126957806390041347146111c2578063a17884841461118a578063b7f06ebe1461115b578063bb45fef214611112578063c448feb8146110f5578063c488375a146110bd578063c5e480db14610fe6578063c94b511114610fb3578063ca661c0414610f96578063cf80873e14610f18578063da8be86414610b3c578063e2b2390a14610ada578063e92ae72614610463578063eea9064b1461041d578063f2fde38b146103ca578063f698da25146103a85763fabc1cbc1461026f575f80fd5b346103a4576020806003193601126103a4575f5460405163755b36bd60e11b81526004803593926001600160a01b03918491849190829085165afa8015610399576102c4925f9161036c575b50163314613602565b600154198219811603610302577f3582d1828e26bf56bd801502bc021ac0bc8afb57c826e4986b45593c8fad389c90826001556040519283523392a2005b6084906040519062461bcd60e51b82526004820152603860248201527f5061757361626c652e756e70617573653a20696e76616c696420617474656d7060448201527f7420746f2070617573652066756e6374696f6e616c69747900000000000000006064820152fd5b61038c9150843d8611610392575b61038481836131cc565b8101906135e3565b5f6102bb565b503d61037a565b6040513d5f823e3d90fd5b5f80fd5b346103a4575f3660031901126103a45760206103c2613a31565b604051908152f35b346103a45760203660031901126103a4576103e3613075565b6103eb61460a565b6001600160a01b0381161561040557610403906148ae565b005b604051631e4fbdf760e01b81525f6004820152602490fd5b346103a45760603660031901126103a457610436613075565b602435906001600160401b0382116103a457610459610403923690600401613399565b6044359133614221565b346103a45760803660031901126103a4576001600160401b036004358181116103a457610494903690600401613045565b61049f92919261308b565b926044358381116103a4576104b8903690600401613045565b90936064359081116103a4576104d690949391943690600401613045565b906104df614a7e565b5f925b80841061050f5760017f9b779b17422d0df92223018b32b4d1fa46e071723d6817e2486d003becc55f0055005b8360051b8501359660de19863603018812156103a45761053085828961345e565b5061053c85858561345e565b359687151588036103a45761055b610556368b8a016132f2565b613811565b805f52606e60205260ff60405f20541615610a765761057e60808b8a0101613f54565b610591606d5463ffffffff4393166149ee565b116109f8576001600160a01b036105ac898c01604001613482565b163303610987575f908152606e60209081526040808320805460ff19169055338352606a9091529020546001600160a01b031697156107ee57909192935f5b6105fb888b0160a081019061358d565b90508110156107d75790816106a1816106908d60c0816106968f9d9c9b9a9961065a908f80610684610634608088610690950101613f54565b8461065f61065a61064b868c0160a081019061358d565b6001600160a01b03949161345e565b613482565b165f52607160205261067d439163ffffffff60405f205491166149ee565b1115614ac0565b850160a081019061358d565b9061345e565b9c0101908d0161358d565b357f00000000000000000000000000000000000000000000000000000000000000006001600160a01b03163b156103a45760405163c608c7f360e01b81523360048201526001600160a01b03988916602482015260448101919091528c88166064820152965f908890608490829084907f0000000000000000000000000000000000000000000000000000000000000000165af1908115610399578a6107bb6107898c8f946001906106909d5f80516020614f23833981519152986107c8575b50019b8c9161077d61065a846106908a850160a081019061358d565b960160c081019061358d565b604080516001600160a01b03948516815233602082015294909316928401929092529035606083015281906080820190565b0390a190919293946105eb565b6107d19061319e565b5f610761565b50929650929650926001905b0192959091946104e2565b909192935f5b610804888b0160a081019061358d565b905081101561097757908161083d816106908d60c0816106968f9d9c9b9a9961065a908f80610684610634608088610690950101613f54565b357f00000000000000000000000000000000000000000000000000000000000000006001600160a01b03163b156103a45760405163c4623ea160e01b81523360048201526001600160a01b03808f16602483015298891660448201526064810191909152965f908890608490829084907f0000000000000000000000000000000000000000000000000000000000000000165af1908115610399578a61091f6107898c8f946001906106909d5f80516020614f2383398151915298610968575b508561092c575b019b8c9161077d61065a846106908a850160a081019061358d565b0390a190919293946107f4565b61096361094661065a83610690878c0160a081019061358d565b61095a83610690878c0160c081019061358d565b359033896149fb565b610904565b6109719061319e565b5f6108fd565b50929650929650926001906107e3565b60405162461bcd60e51b815260206004820152605060248201525f80516020614f0383398151915260448201527f645769746864726177616c3a206f6e6c7920776974686472617765722063616e60648201526f1031b7b6b83632ba329030b1ba34b7b760811b608482015260a490fd5b60405162461bcd60e51b815260206004820152605f60248201525f80516020614f0383398151915260448201527f645769746864726177616c3a206d696e5769746864726177616c44656c61794260648201527f6c6f636b7320706572696f6420686173206e6f74207965742070617373656400608482015260a490fd5b60405162461bcd60e51b815260206004820152604360248201525f80516020614f0383398151915260448201527f645769746864726177616c3a20616374696f6e206973206e6f7420696e20717560648201526265756560e81b608482015260a490fd5b346103a45760603660031901126103a457610af3613075565b610afb61308b565b90610b046130a1565b9160018060a01b038092165f5260686020528160405f2091165f5260205260405f2091165f52602052602060405f2054604051908152f35b346103a4576020806003193601126103a457610b56613075565b6001600160a01b038082165f908152606a60205260409020541615610ea1576001600160a01b038082165f9081526069602052604090205416610e36576001600160a01b03818116918215610dcb57825f52606a84528160405f205416908333149182159283610dc2575b8015610da9575b15610d3e57610bd6826138cc565b959093610d13575b81817ffee30966a256b71e14bc0ebfc94315e28ef4a97a7131a9e2b7a310a73af446765f80a35f908152606a87526040902080546001600160a01b0319169055825180610c7357505050505050604051908101908082106001600160401b03831117610c5f57610c5b916040525f81525b604051918291826130cb565b0390f35b634e487b7160e01b5f52604160045260245ffd5b610c809096949596613539565b955f5b8451811015610d0357600190610cf2604051610c9e81613168565b839081815289368183013760405191610cb683613168565b82528936818401378a610cc9858b6135cf565b5116610cd4826135c2565b52610cdf84876135cf565b51610ce9836135c2565b52878781613a66565b610cfc828b6135cf565b5201610c83565b50505050505050610c5b90610c4f565b81817ff0eddf07e6ea14f388b47e1e94a0f464ecbd9eed4171130e0fc0e99fb4030a8a5f80a3610bde565b60405162461bcd60e51b815260048101879052603d60248201527f44656c65676174696f6e4d616e616765722e756e64656c65676174653a20636160448201527f6c6c65722063616e6e6f7420756e64656c6567617465207374616b65720000006064820152608490fd5b50805f526069865283600160405f200154163314610bc8565b50803314610bc1565b60405162461bcd60e51b815260048101859052603c60248201527f44656c65676174696f6e4d616e616765722e756e64656c65676174653a20636160448201527f6e6e6f7420756e64656c6567617465207a65726f2061646472657373000000006064820152608490fd5b60405162461bcd60e51b815260048101839052603d60248201527f44656c65676174696f6e4d616e616765722e756e64656c65676174653a206f7060448201527f657261746f72732063616e6e6f7420626520756e64656c6567617465640000006064820152608490fd5b60a4826040519062461bcd60e51b82526004820152604460248201527f44656c65676174696f6e4d616e616765722e756e64656c65676174653a20737460448201527f616b6572206d7573742062652064656c65676174656420746f20756e64656c656064820152636761746560e01b6084820152fd5b346103a4576020806003193601126103a457610f3a610f35613075565b6138cc565b604092919251928391604083016040845282518091526020606085019301945f5b828110610f76578580610c5b8787838203602085015261341e565b86516001600160a01b031685529581019587955093810193600101610f5b565b346103a4575f3660031901126103a457602060405162034bc08152f35b346103a45760803660031901126103a45760206103c2610fd1613075565b610fd96130a1565b6064359160243590613850565b346103a45760203660031901126103a457610fff613075565b5f606060405161100e816131b1565b828152826020820152826040820152015260018060a01b038091165f52606960205260405f20600160405191611043836131b1565b83815416835201546020820192808216845263ffffffff60ff6040850193828160a01c16855260c01c1692606085019260078510156110a9576080966110a79585528160405197511687525116602086015251166040840152516060830190613451565bf35b634e487b7160e01b5f52602160045260245ffd5b346103a45760203660031901126103a4576001600160a01b036110de613075565b165f526071602052602060405f2054604051908152f35b346103a4575f3660031901126103a4576020606d54604051908152f35b346103a45760403660031901126103a4576001600160a01b03611133613075565b165f52606c60205260405f206024355f52602052602060ff60405f2054166040519015158152f35b346103a45760203660031901126103a4576004355f52606e602052602060ff60405f2054166040519015158152f35b346103a45760203660031901126103a4576001600160a01b036111ab613075565b165f52606f602052602060405f2054604051908152f35b346103a45760403660031901126103a4576111db613075565b6024356001600160401b0381116103a4576111fa90369060040161326b565b906112058251613539565b6001600160a01b03918216925f5b815181101561125357600190855f5260206067815260405f20908661123884876135cf565b51165f525260405f205461124c82866135cf565b5201611213565b60405160208082528190610c5b9082018661341e565b346103a4575f3660031901126103a4575f80516020614ee3833981519152546040516001600160a01b039091168152602090f35b346103a4575f3660031901126103a4575f546040516001600160a01b039091168152602090f35b346103a45760a03660031901126103a4576112dd613075565b6112e561308b565b6001600160401b0391906044358381116103a457611307903690600401613399565b926064359081116103a457611320903690600401613399565b9060208401938451421161137a5761040394611371916001808060a01b03871692835f52606b60205261135b60405f2054915187838b613850565b935f52606b6020520160405f2055519085614b5c565b60843592614221565b60405162461bcd60e51b815260206004820152604160248201527f44656c65676174696f6e4d616e616765722e64656c6567617465546f4279536960448201527f676e61747572653a207374616b6572207369676e6174757265206578706972656064820152601960fa1b608482015260a490fd5b346103a45760403660031901126103a457611408613075565b61141061308b565b9060018060a01b038091165f52606760205260405f2091165f52602052602060405f2054604051908152f35b346103a4575f3660031901126103a45761145461460a565b5f80516020614ee383398151915280546001600160a01b031981169091555f906001600160a01b03167f8be0079c531659141344cd1fd0a4f28419497f9722a3daafe3b4186f6b6457e08280a3005b346103a4576003196080368201126103a457600435906001600160401b0382116103a45760e09082360301126103a4576114db61308b565b9060643580151581036103a4576114f0614a7e565b61150061055636846004016132f2565b805f52606e60205260ff60405f20541615610a765761153361152460848501613f54565b63ffffffff606d5491166149ee565b43106109f8576001600160a01b0361154d60448501613482565b163303610987575f908152606e60209081526040808320805460ff19169055338352606a9091529020546001600160a01b03169015611739575f5b61159860a484018460040161358d565b905081101561170e576115c76115b060848501613f54565b8261065f61065a61064b60a489018960040161358d565b6115de61065a8261069060a487018760040161358d565b906115f38161069060c487018760040161358d565b357f00000000000000000000000000000000000000000000000000000000000000006001600160a01b03163b156103a45760405163c608c7f360e01b81523360048201526001600160a01b03938416602482015260448101919091528583166064820152915f908390608490829084907f0000000000000000000000000000000000000000000000000000000000000000165af1918215610399576001926116ff575b50015f80516020614f238339815191526116bd61065a8361069060a488018860040161358d565b6116d18361069060c488018860040161358d565b604080516001600160a01b0387811682523360208301529390931690830152356060820152608090a1611588565b6117089061319e565b85611696565b505050505b60017f9b779b17422d0df92223018b32b4d1fa46e071723d6817e2486d003becc55f0055005b5f5b61174b60a484018460040161358d565b90508110156118ec576117636115b060848501613f54565b61177a61065a8261069060a487018760040161358d565b9061178f8161069060c487018760040161358d565b357f00000000000000000000000000000000000000000000000000000000000000006001600160a01b03163b156103a45760405163c4623ea160e01b81523360048201526001600160a01b03878116602483015293841660448201526064810191909152915f908390608490829084907f0000000000000000000000000000000000000000000000000000000000000000165af1918215610399576001926118dd575b50826118a1575b015f80516020614f2383398151915261185f61065a8361069060a488018860040161358d565b6118738361069060c488018860040161358d565b604080516001600160a01b0387811682523360208301529390931690830152356060820152608090a161173b565b6118d86118bb61065a8361069060a489018960040161358d565b6118cf8361069060c489018960040161358d565b359033866149fb565b611839565b6118e69061319e565b85611832565b50505050611713565b346103a45760203660031901126103a4576020611932611913613075565b6001600160a01b039081165f9081526069602052604090205416151590565b6040519015158152f35b346103a45760203660031901126103a45760206001600160a01b0380611960613075565b165f52606a825260405f205416604051908152f35b346103a45760203660031901126103a45761198e61460a565b610403600435614902565b346103a45760203660031901126103a45760206001600160a01b03806119bd613075565b165f526069825260405f205416604051908152f35b346103a45760203660031901126103a4576001600160401b03906004358281116103a457366023820112156103a457806004013592611a10846131fe565b93611a1e60405195866131cc565b8085526024602086019160051b840101923684116103a45760248101915b848310611d3257867f00000000000000000000000000000000000000000000000000000000000000006001600160a01b0316875f5b835181101561040357611a8481856135cf565b51906040519163cd293f6f60e01b83526020600484015260408380611ace611ab88551896024850152610104840190613734565b6020860151838203602319016044850152613770565b848401516001600160a01b0390811660648401526060860151805182166084850152602001516001600160601b031660a4840152608086015163ffffffff1660c484015260a08601511660e483015203815f895af1928315610399575f905f94611cf1575b50611b44575b506001915001611a71565b6040818101516001600160a01b03165f818152606f602052919091208054919290611b6e8361382e565b905560018060a01b0360a0820151169160018060a01b03606083015151169063ffffffff60808401511691602084519401519460405196611bae88613183565b8752602087015260408601526060850152608084015260a083015260c0820152611bd781613811565b92835f52606e908160205260ff60405f205416611c7857847f9009ab153e8014fbfb02f2217f5cde7aa7f9ad734ae85ca3ee3f4ca2fdd499f9611c647fdc00758b65eef71dc3780c04ebe36cab6bdb266c3a698187e29e0f0dca012630956040956001995f52602052855f208960ff198254161790558551918291858352876020840152878301906137a3565b0390a182519182526020820152a185611b39565b60405162461bcd60e51b815260206004820152604560248201527f44656c65676174696f6e4d616e616765722e6d6967726174655175657565645760448201527f69746864726177616c733a207769746864726177616c20616c72656164792065606482015264786973747360d81b608482015260a490fd5b9350506040833d604011611d2a575b81611d0d604093836131cc565b810103126103a4576020611d20846136ca565b9301519287611b33565b3d9150611d00565b82358481116103a457820180360391876023198401126103a4576040519260c0840184811088821117610c5f5760405260248301358781116103a457611d7e906024369186010161326b565b84526044830135908782116103a457611d9f604092602436918701016132d7565b6020860152611db0606485016130b7565b8583015260831901126103a45760405192611dca84613168565b611dd6608484016130b7565b845260a4830135936001600160601b03851685036103a45760e46020959482879687611e1a9501526060850152611e0f60c482016131ed565b6080850152016130b7565b60a0820152815201920191611a3c565b346103a4575f3660031901126103a4576020600154604051908152f35b346103a45760203660031901126103a45760043560ff81168091036103a45760016020911b806001541614604051908152f35b346103a45760203660031901126103a4576004356001600160401b0381116103a4576103c261055660209236906004016132f2565b346103a4575f3660031901126103a4575f5460405163237dfb4760e11b815233600482015290602090829060249082906001600160a01b03165afa8015610399575f90611f34575b611f00906136d7565b5f19806001556040519081527fab40a374bc51de372200a8bc981af8c9ecdc08dfdaef0bb6e09f88f3c616ef3d60203392a2005b506020813d602011611f67575b81611f4e602093836131cc565b810103126103a457611f62611f00916136ca565b611ef7565b3d9150611f41565b346103a4575f3660031901126103a45760206040516213c6808152f35b346103a4575f3660031901126103a45760206040517f39111bc4a4d688e1f685123d7497d4615370152a8ee4a0593e647bd06ad8bb0b8152f35b346103a45760203660031901126103a4576020611932611fe4613075565b6001600160a01b039081165f908152606a602052604090205416151590565b346103a45760203660031901126103a45760206001600160a01b0380612027613075565b165f5260698252600160405f20015416604051908152f35b346103a4575f3660031901126103a4576040517f00000000000000000000000000000000000000000000000000000000000000006001600160a01b03168152602090f35b346103a45760803660031901126103a457335f908152606960205260409020546001600160a01b0316156120ba5761040333613f65565b60405162461bcd60e51b815260206004820152604360248201527f44656c65676174696f6e4d616e616765722e6d6f646966794f70657261746f7260448201527f44657461696c733a2063616c6c6572206d75737420626520616e206f706572616064820152623a37b960e91b608482015260a490fd5b346103a45760203660031901126103a4576001600160a01b03612152613075565b165f52606b602052602060405f2054604051908152f35b346103a45761217736613133565b6001600160a01b03929091906121b0337f0000000000000000000000000000000000000000000000000000000000000000861614613688565b6001600160a01b038082165f908152606a6020526040902054166121d057005b836104039482165f52606a60205260405f2054166149fb565b346103a45760c03660031901126103a457612202613075565b61220a61308b565b604435608435916001600160401b03928381116103a45761222f903690600401613045565b60a4929192358581116103a45761224a903690600401613045565b9390927ff0c57e16840df040f15088dc2f81fe391c3923bec73e23a9662efc9c229c6a0097885460ff8160401c16159881168015908161243d575b6001149081612433575b15908161242a575b506124185767ffffffffffffffff1981166001178a55886123f9575b505f546001600160a01b039081161590816123ed575b50156123725761230f61231f928861232f996001556040519081527fab40a374bc51de372200a8bc981af8c9ecdc08dfdaef0bb6e09f88f3c616ef3d60203392a2613e82565b61231761480e565b6066556148ae565b61232a606435614902565b614642565b61233557005b68ff00000000000000001981541690557fc7f505b2f371ae2175ee4913f4499e1f2633a7b5936321eed1cdaeb6115181d2602060405160018152a1005b60405162461bcd60e51b815260206004820152604760248201527f5061757361626c652e5f696e697469616c697a655061757365723a205f696e6960448201527f7469616c697a6550617573657228292063616e206f6e6c792062652063616c6c6064820152666564206f6e636560c81b608482015260a490fd5b9050821615158a6122c9565b68ffffffffffffffffff191668010000000000000001178955896122b3565b60405163f92ee8a960e01b8152600490fd5b9050158b612297565b303b15915061228f565b8a9150612285565b346103a4575f3660031901126103a45760206040517f8cad95687ba82c2ce50e74f7b754645e5117c3a5bec8151c0726d5857980a8668152f35b346103a45760203660031901126103a4576004356001600160401b0381116103a4576124af903690600401613106565b335f908152606960205260409020546001600160a01b031615612504576124ff7f826d13513a58153c5878cd93af2008d3f8dfc32049e748b380b1b385645e280b91604051918291339583613661565b0390a2005b60405162461bcd60e51b815260206004820152604360248201527f44656c65676174696f6e4d616e616765722e7570646174654f70657261746f7260448201527f4e6f646555726c3a2063616c6c6572206d75737420626520616e206f706572616064820152623a37b960e91b608482015260a490fd5b346103a45760603660031901126103a45760206103c2612599613075565b6125a161308b565b6001600160a01b0382165f908152606b8552604090205460443592613850565b346103a45760203660031901126103a4576001600160a01b036125e2613075565b165f526069602052602063ffffffff600160405f20015460a01c16604051908152f35b346103a45760403660031901126103a4576001600160401b036004358181116103a457612636903690600401613045565b906024359283116103a457612652610403933690600401613045565b92909161232a61460a565b346103a4576020806003193601126103a4576004359060248160018060a01b035f54166040519283809263237dfb4760e11b82523360048301525afa8015610399575f90612756575b6126b091506136d7565b600154828116036126ec577fab40a374bc51de372200a8bc981af8c9ecdc08dfdaef0bb6e09f88f3c616ef3d90826001556040519283523392a2005b6084906040519062461bcd60e51b82526004820152603860248201527f5061757361626c652e70617573653a20696e76616c696420617474656d70742060448201527f746f20756e70617573652066756e6374696f6e616c69747900000000000000006064820152fd5b508181813d8311612785575b61276c81836131cc565b810103126103a4576127806126b0916136ca565b6126a6565b503d612762565b346103a45761279a36613133565b6001600160a01b03929091906127d3337f0000000000000000000000000000000000000000000000000000000000000000861614613688565b6001600160a01b038082165f908152606a6020526040902054166127f357005b836104039482165f52606a60205260405f205416614558565b346103a457366003190160a081126103a4576080136103a457608480356001600160401b0381116103a457612845903690600401613106565b919091335f526020916069835260018060a01b03908160405f205416612cc05761286e33613f65565b60405161287a81613168565b606081525f858201818152338252606a6020526040909120549092906001600160a01b0316612c4d57335f908152606960205260409020546001600160a01b031615612bd857335f526069865260019284600160405f200154169182151580612bce575b80612bc7575b612a2f575b50505050335f52606a845260405f20336001600160601b0360a01b82541617905533337fc3ee9f2e5fda98e8066a1f745b2df9285f416fe98cf2559cd21484b3d87433045f80a38061293a336138cc565b905f925b6129f4575b50505050604051926004358281168091036103a45784526024359182168092036103a45783015260443563ffffffff81168091036103a45760408301526064359060078210156103a457826129c06124ff9360607f826d13513a58153c5878cd93af2008d3f8dfc32049e748b380b1b385645e280b960190613451565b7f56911302237efb62a9bd04b0083a3bcf08e50246e09837cdae47ce169ff6d6c960803392a2604051918291339583613661565b8051831015612a2a578383612a2387612a0e8497866135cf565b5116612a1a83876135cf565b519033336149fb565b019261293e565b612943565b81514211612b7857825f52606c885260405f205f8052885260ff60405f205416612b29575090612b209291815f52606c885260405f205f8052885260405f20600160ff198254161790555160405190888201927f6d1fdcc5430bb8f0c2b78c3d153f848b370260144c36d3b8b064f06b5a04568e845233604084015233606084015260808301525f60a083015260c082015260c08152612ace81613183565b519020612b06612b14612adf613a31565b926040519283918b83019586909160429261190160f01b8352600283015260228201520190565b03601f1981018352826131cc565b51902090519033614b5c565b858080806128e9565b60405162461bcd60e51b815260048101899052603760248201525f80516020614f438339815191526044820152761c9bdd995c94d85b1d08185b1c9958591e481cdc195b9d604a1b6064820152fd5b60405162461bcd60e51b815260048101899052603760248201525f80516020614f438339815191526044820152761c9bdd995c881cda59db985d1d5c9948195e1c1a5c9959604a1b6064820152fd5b505f6128e4565b50823314156128de565b8562696e6b60e81b60a4926040519262461bcd60e51b84526004840152604360248401527f44656c65676174696f6e4d616e616765722e5f64656c65676174653a206f706560448401527f7261746f72206973206e6f74207265676973746572656420696e20446170704c6064840152820152fd5b85601960fa1b60a4926040519262461bcd60e51b84526004840152604160248401527f44656c65676174696f6e4d616e616765722e5f64656c65676174653a2073746160448401527f6b657220697320616c7265616479206163746976656c792064656c65676174656064840152820152fd5b83641d195c995960da1b60a4926040519262461bcd60e51b84526004840152604560248401527f44656c65676174696f6e4d616e616765722e726567697374657241734f70657260448401527f61746f723a206f70657261746f722068617320616c72656164792072656769736064840152820152fd5b346103a45760203660031901126103a457612d50613075565b5f5460405163755b36bd60e11b81526001600160a01b0392916020908290600490829087165afa9283156103995761040393612d95925f91612d9a5750163314613602565b613e82565b612db3915060203d6020116103925761038481836131cc565b856102bb565b346103a4576020806003193601126103a4576004356001600160401b0381116103a457612dea903690600401613045565b90612df482613539565b91335f52606a60205260018060a01b0360405f205416915f5b828110612e225760405180610c5b87826130cb565b612e36612e3082858561356b565b8061358d565b9050612e4f612e4683868661356b565b8881019061358d565b91905003612edd5780612ecc612e736040612e6d600195888861356b565b01613482565b848988612ec689612ebe612eb4612e906040612e6d8c868b61356b565b95612eab8b612ea3612e3082888d61356b565b96909a61356b565b9081019061358d565b9690923691613215565b943691613289565b93613a66565b612ed682886135cf565b5201612e0d565b60405162461bcd60e51b815260048101879052603860248201527f44656c65676174696f6e4d616e616765722e717565756557697468647261776160448201527f6c3a20696e707574206c656e677468206d69736d6174636800000000000000006064820152608490fd5b346103a45760a03660031901126103a45760206103c2612f66613075565b612f6e61308b565b90612f776130a1565b6084359260643592613496565b346103a4575f3660031901126103a45760206040517f6d1fdcc5430bb8f0c2b78c3d153f848b370260144c36d3b8b064f06b5a04568e8152f35b346103a4576020806003193601126103a4576004356001600160401b0381116103a457612fef903690600401613045565b9091606d54925f5b83811061300957602085604051908152f35b6001600160a01b0361301f61065a83878661345e565b165f526071835260405f205485811161303c575b50600101612ff7565b94506001613033565b9181601f840112156103a4578235916001600160401b0383116103a4576020808501948460051b0101116103a457565b600435906001600160a01b03821682036103a457565b602435906001600160a01b03821682036103a457565b604435906001600160a01b03821682036103a457565b35906001600160a01b03821682036103a457565b60209060206040818301928281528551809452019301915f5b8281106130f2575050505090565b8351855293810193928101926001016130e4565b9181601f840112156103a4578235916001600160401b0383116103a457602083818601950101116103a457565b60609060031901126103a4576001600160a01b039060043582811681036103a4579160243590811681036103a4579060443590565b604081019081106001600160401b03821117610c5f57604052565b60e081019081106001600160401b03821117610c5f57604052565b6001600160401b038111610c5f57604052565b608081019081106001600160401b03821117610c5f57604052565b90601f801991011681019081106001600160401b03821117610c5f57604052565b359063ffffffff821682036103a457565b6001600160401b038111610c5f5760051b60200190565b9291613220826131fe565b9161322e60405193846131cc565b829481845260208094019160051b81019283116103a457905b8282106132545750505050565b838091613260846130b7565b815201910190613247565b9080601f830112156103a45781602061328693359101613215565b90565b9291613294826131fe565b916132a260405193846131cc565b829481845260208094019160051b81019283116103a457905b8282106132c85750505050565b813581529083019083016132bb565b9080601f830112156103a45781602061328693359101613289565b919060e0838203126103a4576040519061330b82613183565b8193613316816130b7565b8352613324602082016130b7565b6020840152613335604082016130b7565b604084015260608101356060840152613350608082016131ed565b60808401526001600160401b039160a08201358381116103a4578161337691840161326b565b60a085015260c08201359283116103a45760c09261339492016132d7565b910152565b9190916040818403126103a457604051906133b382613168565b81938135916001600160401b03928381116103a45781019180601f840112156103a45782356020948111610c5f57604051916133f8601f8301601f19168701846131cc565b8183528582860101116103a45784815f9282809701838601378301015284520135910152565b9081518082526020808093019301915f5b82811061343d575050505090565b83518552938101939281019260010161342f565b9060078210156110a95752565b919081101561346e5760051b0190565b634e487b7160e01b5f52603260045260245ffd5b356001600160a01b03811681036103a45790565b939192906040519360208501957f6d1fdcc5430bb8f0c2b78c3d153f848b370260144c36d3b8b064f06b5a04568e875260018060a01b039283809216604088015216606086015216608084015260a083015260c082015260c081526134fa81613183565b519020612b0661353361350b613a31565b92604051928391602083019586909160429261190160f01b8352600283015260228201520190565b51902090565b90613543826131fe565b61355060405191826131cc565b8281528092613561601f19916131fe565b0190602036910137565b919081101561346e5760051b81013590605e19813603018212156103a4570190565b903590601e19813603018212156103a457018035906001600160401b0382116103a457602001918160051b360383136103a457565b80511561346e5760200190565b805182101561346e5760209160051b010190565b908160209103126103a457516001600160a01b03811681036103a45790565b1561360957565b60405162461bcd60e51b815260206004820152602a60248201527f6d73672e73656e646572206973206e6f74207065726d697373696f6e6564206160448201526939903ab73830bab9b2b960b11b6064820152608490fd5b90918060409360208452816020850152848401375f828201840152601f01601f1916010190565b1561368f57565b60405162461bcd60e51b815260206004820152601360248201527237b7363ca9ba3930ba32b3bca6b0b730b3b2b960691b6044820152606490fd5b519081151582036103a457565b156136de57565b60405162461bcd60e51b815260206004820152602860248201527f6d73672e73656e646572206973206e6f74207065726d697373696f6e6564206160448201526739903830bab9b2b960c11b6064820152608490fd5b9081518082526020808093019301915f5b828110613753575050505090565b83516001600160a01b031685529381019392810192600101613745565b9081518082526020808093019301915f5b82811061378f575050505090565b835185529381019392810192600101613781565b6132869160018060a01b0380835116825280602084015116602083015260408301511660408201526060820151606082015263ffffffff608083015116608082015260c061380060a084015160e060a085015260e0840190613734565b9201519060c0818403910152613770565b60405161353381612b0660208201946020865260408301906137a3565b5f19811461383c5760010190565b634e487b7160e01b5f52601160045260245ffd5b9192906040519260208401947f39111bc4a4d688e1f685123d7497d4615370152a8ee4a0593e647bd06ad8bb0b865260018060a01b038092166040860152166060840152608083015260a082015260a0815260c081018181106001600160401b03821117610c5f57604052519020612b0661353361350b613a31565b6040516394f649dd60e01b81526001600160a01b0391821660048201529091905f816024817f000000000000000000000000000000000000000000000000000000000000000087165afa928315610399575f915f9461392c575b50509190565b915092503d805f833e61393f81836131cc565b8101926040828503126103a45781516001600160401b03908181116103a45783019285601f850112156103a45783519360209361397b866131fe565b9561398960405197886131cc565b808752858088019160051b840101928984116103a4578601905b838210613a195750505050828101519182116103a457019380601f860112156103a45784516139d1816131fe565b956139df60405197886131cc565b818752838088019260051b8201019283116103a4578301905b828210613a0a57505050505f80613926565b815181529083019083016139f8565b815183811681036103a45781529086019086016139a3565b467f000000000000000000000000000000000000000000000000000000000000000003613a5e5760665490565b61328661480e565b949093909290916001600160a01b039190828716908115613dfe57825115613d7d5794957f0000000000000000000000000000000000000000000000000000000000000000841695905f5b8451811015613cc157858216613c99575b85831684148015613c1d575b15613b5b5785613ade82876135cf565b5116613aea82896135cf565b51893b156103a45760408051638c80d4e560e01b81526001600160a01b038e8116600483015293909316602484015260448301919091525f82606481838e5af1908115613b5257509060019291613b43575b5001613ab1565b613b4c9061319e565b5f613b3c565b513d5f823e3d90fd5b60e460405162461bcd60e51b8152602060048201527f73742062652073616d652061646472657373206173207374616b65722069662060848060248401527f44656c65676174696f6e4d616e616765722e5f72656d6f76655368617265734160448401527f6e6451756575655769746864726177616c3a2077697468647261776572206d7560648401528201527f746869726450617274795472616e7366657273466f7262696464656e2061726560a482015263081cd95d60e21b60c4820152fd5b5085613c2982876135cf565b5160408051639b4da03d60e01b815292909116600483015290602080826024818e5afa928315613b5257505f92613c63575b505015613ace565b90809250813d8311613c92575b613c7a81836131cc565b810103126103a457613c8b906136ca565b5f80613c5b565b503d613c70565b613cbc86613ca783886135cf565b5116613cb3838a6135cf565b51908c85614558565b613ac2565b50919493909697507f9009ab153e8014fbfb02f2217f5cde7aa7f9ad734ae85ca3ee3f4ca2fdd499f99550845f52606f60205260409681885f2093845494613d088661382e565b9055895197613d1689613183565b88521660208701521686850152606084015263ffffffff4316608084015260a083015260c0820152613d4781613811565b92835f52606e602052805f20600160ff19825416179055613d7781519283928684528060208501528301906137a3565b0390a190565b60405162461bcd60e51b815260206004820152604d60248201527f44656c65676174696f6e4d616e616765722e5f72656d6f76655368617265734160448201527f6e6451756575655769746864726177616c3a207374726174656769657320636160648201526c6e6e6f7420626520656d70747960981b608482015260a490fd5b60405162461bcd60e51b815260206004820152605060248201527f44656c65676174696f6e4d616e616765722e5f72656d6f76655368617265734160448201527f6e6451756575655769746864726177616c3a207374616b65722063616e6e6f7460648201526f206265207a65726f206164647265737360801b608482015260a490fd5b6001600160a01b03908116908115613ed7577f6e9fcd539896fca60e8b0f01dd580233e48a6b0f7df013b89ba7f565869acdb660405f549281519084168152846020820152a16001600160a01b031916175f55565b60405162461bcd60e51b815260206004820152604960248201527f5061757361626c652e5f73657450617573657252656769737472793a206e657760448201527f50617573657252656769737472792063616e6e6f7420626520746865207a65726064820152686f206164647265737360b81b608482015260a490fd5b3563ffffffff811681036103a45790565b6001600160a01b0360043581811692908390036103a4578215614199576044359063ffffffff808316918284036103a4576213c68083116140f357841690815f526069602052600160405f20015460a01c16821061406c575f526069602052600160405f20856001600160601b0360a01b82541617815501926024359081168091036103a4578354936064359360078510156103a457614044958360ff60c01b8760c01b169263ffffffff60a01b9060a01b169166ffffffffffffff60c81b161717179055604051948552602085015260408401526060830190613451565b7f8608ba5d3843c5892d0e0e7f8b3dbe140644275248c7acc0e70c6ab00524252760803392a2565b60405162461bcd60e51b815260206004820152605360248201527f44656c65676174696f6e4d616e616765722e5f7365744f70657261746f72446560448201527f7461696c733a207374616b65724f70744f757457696e646f77426c6f636b732060648201527218d85b9b9bdd08189948191958dc99585cd959606a1b608482015260a490fd5b60405162461bcd60e51b815260206004820152606c60248201527f44656c65676174696f6e4d616e616765722e5f7365744f70657261746f72446560448201527f7461696c733a207374616b65724f70744f757457696e646f77426c6f636b732060648201527f63616e6e6f74206265203e204d41585f5354414b45525f4f50545f4f55545f5760848201526b494e444f575f424c4f434b5360a01b60a482015260c490fd5b60405162461bcd60e51b815260206004820152605460248201527f44656c65676174696f6e4d616e616765722e5f7365744f70657261746f72446560448201527f7461696c733a2063616e6e6f742073657420606561726e696e677352656365696064820152737665726020746f207a65726f206164647265737360601b608482015260a490fd5b6001600160a01b038082165f908152606a602052604090205494959491939291166144d6576001600160a01b038082165f90815260696020526040902054161561445f5760018060a01b0392838216805f526020606981526001946040988760018b5f200154169081151580614455575b8061444b575b61433d575b505050859697606a8697851692835f52525f20826001600160601b0360a01b8254161790557fc3ee9f2e5fda98e8066a1f745b2df9285f416fe98cf2559cd21484b3d87433045f80a36142ef816138cc565b91905f945b614302575b50505050505050565b80518510156143385785856143318961431c8499866135cf565b511661432883886135cf565b519086896149fb565b01946142f4565b6142f9565b838301805142116143fa57825f52606c85528b5f20825f52855260ff8c5f2054166143a95782899a9b9c94926143969261439f955f52606c8852865f20825f528852865f20600160ff1982541617905551918a8a613496565b90519086614b5c565b9796955f8061429d565b8b5162461bcd60e51b815260048101869052603760248201525f80516020614f438339815191526044820152761c9bdd995c94d85b1d08185b1c9958591e481cdc195b9d604a1b6064820152608490fd5b8b5162461bcd60e51b815260048101869052603760248201525f80516020614f438339815191526044820152761c9bdd995c881cda59db985d1d5c9948195e1c1a5c9959604a1b6064820152608490fd5b5084331415614298565b5081331415614292565b60405162461bcd60e51b815260206004820152604360248201527f44656c65676174696f6e4d616e616765722e5f64656c65676174653a206f706560448201527f7261746f72206973206e6f74207265676973746572656420696e20446170704c606482015262696e6b60e81b608482015260a490fd5b60405162461bcd60e51b815260206004820152604160248201527f44656c65676174696f6e4d616e616765722e5f64656c65676174653a2073746160448201527f6b657220697320616c7265616479206163746976656c792064656c65676174656064820152601960fa1b608482015260a490fd5b9190820391821161383c57565b92906146057f6909600037b75d7b4733aedd815442b5ec018a827751c832aaff64eba5d6d2dd939260018060a01b0380961695865f526067602052604090815f2090861690815f52602052815f206145b184825461454b565b9055875f526068602052815f20905f52602052805f20875f52602052805f206145db83825461454b565b9055516001600160a01b039384168152939092166020840152604083019190915281906060820190565b0390a2565b5f80516020614ee3833981519152546001600160a01b0316330361462a57565b60405163118cdaa760e01b8152336004820152602490fd5b919091838303614790575f5b83811061465c575050505050565b6001600160a01b0361467261065a83878661345e565b16805f5260716020818152604090815f205490614690868b8a61345e565b359362034bc085116146e4579285927f0e7efa738e8b0ce6376a0c1af471655540d2e9a81647d7b09ed823018426576d9592606095600199985f52815283835f20558251948552840152820152a10161464e565b835162461bcd60e51b815260048101839052607360248201527f44656c65676174696f6e4d616e616765722e5f7365745374726174656779576960448201527f746864726177616c44656c6179426c6f636b733a205f7769746864726177616c60648201527f44656c6179426c6f636b732063616e6e6f74206265203e204d41585f5749544860848201527244524157414c5f44454c41595f424c4f434b5360681b60a482015260c490fd5b60405162461bcd60e51b815260206004820152604a60248201527f44656c65676174696f6e4d616e616765722e5f7365745374726174656779576960448201527f746864726177616c44656c6179426c6f636b733a20696e707574206c656e67746064820152690d040dad2e6dac2e8c6d60b31b608482015260a490fd5b67446170704c696e6b60c01b602060405161482881613168565b60088152015260405160208101907f8cad95687ba82c2ce50e74f7b754645e5117c3a5bec8151c0726d5857980a86682527fdadb978fc98e6e975439bb996be670dd8e228496518e61b3cb48e91f9251c40d60408201524660608201523060808201526080815260a081018181106001600160401b03821117610c5f5760405251902090565b5f80516020614ee383398151915280546001600160a01b039283166001600160a01b0319821681179092559091167f8be0079c531659141344cd1fd0a4f28419497f9722a3daafe3b4186f6b6457e05f80a3565b62034bc08111614943577fafa003cd76f87ff9d62b35beea889920f33c0c42b8d45b74954d61d50f4b6b696040606d548151908152836020820152a1606d55565b60405162461bcd60e51b815260206004820152607160248201527f44656c65676174696f6e4d616e616765722e5f7365744d696e5769746864726160448201527f77616c44656c6179426c6f636b733a205f6d696e5769746864726177616c446560648201527f6c6179426c6f636b732063616e6e6f74206265203e204d41585f5749544844526084820152704157414c5f44454c41595f424c4f434b5360781b60a482015260c490fd5b9190820180921161383c57565b92906146057f1ec042c965e2edd7107b51188ee0f383e22e76179041ab3a9d18ff151405166c939260018060a01b0380961695865f526067602052604090815f2090861690815f52602052815f20614a548482546149ee565b9055875f526068602052815f20905f52602052805f20875f52602052805f206145db8382546149ee565b7f9b779b17422d0df92223018b32b4d1fa46e071723d6817e2486d003becc55f006002815414614aae5760029055565b604051633ee5aeb560e01b8152600490fd5b15614ac757565b60405162461bcd60e51b815260206004820152606e60248201525f80516020614f0383398151915260448201527f645769746864726177616c3a207769746864726177616c44656c6179426c6f6360648201527f6b7320706572696f6420686173206e6f74207965742070617373656420666f7260848201526d207468697320737472617465677960901b60a482015260c490fd5b909190803b15614cbe576040518092630b135d3f60e11b948583526004830152604060248301528051908160448401525f5b828110614ca65750509181606481855f8360209884010152601f8019910116810103019160018060a01b03165afa908115610399575f91614c63575b506001600160e01b03191603614bdc57565b60405162461bcd60e51b815260206004820152605360248201527f454950313237315369676e61747572655574696c732e636865636b5369676e6160448201527f747572655f454950313237313a2045524331323731207369676e6174757265206064820152721d995c9a599a58d85d1a5bdb8819985a5b1959606a1b608482015260a490fd5b90506020813d602011614c9e575b81614c7e602093836131cc565b810103126103a457516001600160e01b0319811681036103a4575f614bca565b3d9150614c71565b60208282018101516064888401015286945001614b8e565b90916040519260208401917f19457468657265756d205369676e6564204d6573736167653a0a3332000000008352603c850152603c845260608401918483106001600160401b03841117610c5f57614d2894614d1f93604052519020614db7565b90939193614df1565b6001600160a01b03908116911603614d3c57565b60405162461bcd60e51b815260206004820152604760248201527f454950313237315369676e61747572655574696c732e636865636b5369676e6160448201527f747572655f454950313237313a207369676e6174757265206e6f742066726f6d6064820152661039b4b3b732b960c91b608482015260a490fd5b8151919060418303614de757614de09250602082015190606060408401519301515f1a90614e60565b9192909190565b50505f9160029190565b60048110156110a95780614e03575050565b60018103614e1d5760405163f645eedf60e01b8152600490fd5b60028103614e3e5760405163fce698f760e01b815260048101839052602490fd5b600314614e485750565b602490604051906335e2f38360e21b82526004820152fd5b91907f7fffffffffffffffffffffffffffffff5d576e7357a4501ddfe92f46681b20a08411614ed7579160209360809260ff5f9560405194855216868401526040830152606082015282805260015afa15610399575f516001600160a01b03811615614ecd57905f905f90565b505f906001905f90565b5050505f916003919056fe9016d09d72d40fdae2fd8ceac6b6234c7706214fd39c1cd1e609a0528c19930044656c65676174696f6e4d616e616765722e5f636f6d706c657465517565756593ebc1e92f873ffadc1224b4550b3d177e36562df0ab9ef605389e9e793a1aa744656c65676174696f6e4d616e616765722e5f64656c65676174653a20617070a2646970667358221220d6f2aa55d1c92cc8d61522b98f8e7f413315fbee93caf2d0fdadaf2d70ebad6064736f6c63430008180033","linkReferences":{}},"methodIdentifiers":{"DELEGATION_APPROVAL_TYPEHASH()":"04a4f979","DOMAIN_TYPEHASH()":"20606b70","MAX_STAKER_OPT_OUT_WINDOW_BLOCKS()":"4fc40b61","MAX_WITHDRAWAL_DELAY_BLOCKS()":"ca661c04","STAKER_DELEGATION_TYPEHASH()":"43377382","calculateCurrentStakerDelegationDigestHash(address,address,uint256)":"1bbce091","calculateDelegationApprovalDigestHash(address,address,address,bytes32,uint256)":"0b9f487a","calculateStakerDelegationDigestHash(address,uint256,address,uint256)":"c94b5111","calculateWithdrawalRoot((address,address,address,uint256,uint32,address[],uint256[]))":"597b36da","completeQueuedWithdrawal((address,address,address,uint256,uint32,address[],uint256[]),address,uint256,bool)":"6f8c9884","completeQueuedWithdrawals((address,address,address,uint256,uint32,address[],uint256[])[],address,uint256[],bool[])":"e92ae726","cumulativeWithdrawalsQueued(address)":"a1788484","decreaseDelegatedShares(address,address,uint256)":"132d4967","delegateTo(address,(bytes,uint256),bytes32)":"eea9064b","delegateToBySignature(address,address,(bytes,uint256),(bytes,uint256),bytes32)":"7f548071","delegatedTo(address)":"65da1264","delegationApprover(address)":"3cdeb5e0","delegationApproverSaltIsSpent(address,bytes32)":"bb45fef2","domainSeparator()":"f698da25","earningsReceiver(address)":"5f966f14","getDelegatableShares(address)":"cf80873e","getOperatorShares(address,address[])":"90041347","getWithdrawalDelay(address[])":"0449ca39","increaseDelegatedShares(address,address,uint256)":"28a573ae","initialize(address,address,uint256,uint256,address[],uint256[])":"22bf40e4","isDelegated(address)":"3e28391d","isOperator(address)":"6d70f7ae","migrateQueuedWithdrawals((address[],uint256[],address,(address,uint96),uint32,address)[])":"5cfe8d2c","minWithdrawalDelayBlocks()":"c448feb8","modifyOperatorDetails((address,address,uint32,uint8))":"30d0377b","operatorDetails(address)":"c5e480db","operatorShares(address,address)":"778e55f3","owner()":"8da5cb5b","pause(uint256)":"136439dd","pauseAll()":"595c6a67","paused()":"5c975abb","paused(uint8)":"5ac86ab7","pauserRegistry()":"886f1195","pendingWithdrawals(bytes32)":"b7f06ebe","queueWithdrawals((address[],uint256[],address)[])":"0dd8dd02","registerAsOperator((address,address,uint32,uint8),string)":"11674578","renounceOwnership()":"715018a6","setMinWithdrawalDelayBlocks(uint256)":"635bbd10","setPauserRegistry(address)":"10d67a2f","setStrategyWithdrawalDelayBlocks(address[],uint256[])":"1522bf02","stakerNonce(address)":"29c77d4f","stakerOptOutWindowBlocks(address)":"16928365","stakerStrategyOperatorShares(address,address,address)":"e2b2390a","strategyManager()":"39b70e38","strategyWithdrawalDelayBlocks(address)":"c488375a","transferOwnership(address)":"f2fde38b","undelegate(address)":"da8be864","unpause(uint256)":"fabc1cbc","updateOperatorNodeUrl(string)":"1c8392d7"},"id":53}