{"abi":[{"type":"constructor","inputs":[{"name":"_strategyManager","type":"address","internalType":"contract IStrategyManager"}],"stateMutability":"nonpayable"},{"type":"function","name":"DELEGATION_APPROVAL_TYPEHASH","inputs":[],"outputs":[{"name":"","type":"bytes32","internalType":"bytes32"}],"stateMutability":"view"},{"type":"function","name":"DOMAIN_TYPEHASH","inputs":[],"outputs":[{"name":"","type":"bytes32","internalType":"bytes32"}],"stateMutability":"view"},{"type":"function","name":"MAX_STAKER_OPT_OUT_WINDOW_BLOCKS","inputs":[],"outputs":[{"name":"","type":"uint256","internalType":"uint256"}],"stateMutability":"view"},{"type":"function","name":"MAX_WITHDRAWAL_DELAY_BLOCKS","inputs":[],"outputs":[{"name":"","type":"uint256","internalType":"uint256"}],"stateMutability":"view"},{"type":"function","name":"STAKER_DELEGATION_TYPEHASH","inputs":[],"outputs":[{"name":"","type":"bytes32","internalType":"bytes32"}],"stateMutability":"view"},{"type":"function","name":"calculateCurrentStakerDelegationDigestHash","inputs":[{"name":"staker","type":"address","internalType":"address"},{"name":"operator","type":"address","internalType":"address"},{"name":"expiry","type":"uint256","internalType":"uint256"}],"outputs":[{"name":"","type":"bytes32","internalType":"bytes32"}],"stateMutability":"view"},{"type":"function","name":"calculateDelegationApprovalDigestHash","inputs":[{"name":"staker","type":"address","internalType":"address"},{"name":"operator","type":"address","internalType":"address"},{"name":"_delegationApprover","type":"address","internalType":"address"},{"name":"approverSalt","type":"bytes32","internalType":"bytes32"},{"name":"expiry","type":"uint256","internalType":"uint256"}],"outputs":[{"name":"","type":"bytes32","internalType":"bytes32"}],"stateMutability":"view"},{"type":"function","name":"calculateStakerDelegationDigestHash","inputs":[{"name":"staker","type":"address","internalType":"address"},{"name":"_stakerNonce","type":"uint256","internalType":"uint256"},{"name":"operator","type":"address","internalType":"address"},{"name":"expiry","type":"uint256","internalType":"uint256"}],"outputs":[{"name":"","type":"bytes32","internalType":"bytes32"}],"stateMutability":"view"},{"type":"function","name":"calculateWithdrawalRoot","inputs":[{"name":"withdrawal","type":"tuple","internalType":"struct IDelegationManager.Withdrawal","components":[{"name":"staker","type":"address","internalType":"address"},{"name":"delegatedTo","type":"address","internalType":"address"},{"name":"withdrawer","type":"address","internalType":"address"},{"name":"nonce","type":"uint256","internalType":"uint256"},{"name":"startBlock","type":"uint32","internalType":"uint32"},{"name":"strategies","type":"address[]","internalType":"contract IStrategyBase[]"},{"name":"shares","type":"uint256[]","internalType":"uint256[]"}]}],"outputs":[{"name":"","type":"bytes32","internalType":"bytes32"}],"stateMutability":"pure"},{"type":"function","name":"completeQueuedWithdrawal","inputs":[{"name":"withdrawal","type":"tuple","internalType":"struct IDelegationManager.Withdrawal","components":[{"name":"staker","type":"address","internalType":"address"},{"name":"delegatedTo","type":"address","internalType":"address"},{"name":"withdrawer","type":"address","internalType":"address"},{"name":"nonce","type":"uint256","internalType":"uint256"},{"name":"startBlock","type":"uint32","internalType":"uint32"},{"name":"strategies","type":"address[]","internalType":"contract IStrategyBase[]"},{"name":"shares","type":"uint256[]","internalType":"uint256[]"}]},{"name":"weth","type":"address","internalType":"contract IERC20"},{"name":"middlewareTimesIndex","type":"uint256","internalType":"uint256"},{"name":"receiveAsWeth","type":"bool","internalType":"bool"}],"outputs":[],"stateMutability":"nonpayable"},{"type":"function","name":"completeQueuedWithdrawals","inputs":[{"name":"withdrawals","type":"tuple[]","internalType":"struct IDelegationManager.Withdrawal[]","components":[{"name":"staker","type":"address","internalType":"address"},{"name":"delegatedTo","type":"address","internalType":"address"},{"name":"withdrawer","type":"address","internalType":"address"},{"name":"nonce","type":"uint256","internalType":"uint256"},{"name":"startBlock","type":"uint32","internalType":"uint32"},{"name":"strategies","type":"address[]","internalType":"contract IStrategyBase[]"},{"name":"shares","type":"uint256[]","internalType":"uint256[]"}]},{"name":"weth","type":"address","internalType":"contract IERC20"},{"name":"middlewareTimesIndexes","type":"uint256[]","internalType":"uint256[]"},{"name":"receiveAsWeth","type":"bool[]","internalType":"bool[]"}],"outputs":[],"stateMutability":"nonpayable"},{"type":"function","name":"cumulativeWithdrawalsQueued","inputs":[{"name":"","type":"address","internalType":"address"}],"outputs":[{"name":"","type":"uint256","internalType":"uint256"}],"stateMutability":"view"},{"type":"function","name":"decreaseDelegatedShares","inputs":[{"name":"staker","type":"address","internalType":"address"},{"name":"strategy","type":"address","internalType":"contract IStrategyBase"},{"name":"shares","type":"uint256","internalType":"uint256"}],"outputs":[],"stateMutability":"nonpayable"},{"type":"function","name":"delegateTo","inputs":[{"name":"operator","type":"address","internalType":"address"},{"name":"approverSignatureAndExpiry","type":"tuple","internalType":"struct ISignatureUtils.SignatureWithExpiry","components":[{"name":"signature","type":"bytes","internalType":"bytes"},{"name":"expiry","type":"uint256","internalType":"uint256"}]},{"name":"approverSalt","type":"bytes32","internalType":"bytes32"}],"outputs":[],"stateMutability":"nonpayable"},{"type":"function","name":"delegateToBySignature","inputs":[{"name":"staker","type":"address","internalType":"address"},{"name":"operator","type":"address","internalType":"address"},{"name":"stakerSignatureAndExpiry","type":"tuple","internalType":"struct ISignatureUtils.SignatureWithExpiry","components":[{"name":"signature","type":"bytes","internalType":"bytes"},{"name":"expiry","type":"uint256","internalType":"uint256"}]},{"name":"approverSignatureAndExpiry","type":"tuple","internalType":"struct ISignatureUtils.SignatureWithExpiry","components":[{"name":"signature","type":"bytes","internalType":"bytes"},{"name":"expiry","type":"uint256","internalType":"uint256"}]},{"name":"approverSalt","type":"bytes32","internalType":"bytes32"}],"outputs":[],"stateMutability":"nonpayable"},{"type":"function","name":"delegatedTo","inputs":[{"name":"","type":"address","internalType":"address"}],"outputs":[{"name":"","type":"address","internalType":"address"}],"stateMutability":"view"},{"type":"function","name":"delegationApprover","inputs":[{"name":"operator","type":"address","internalType":"address"}],"outputs":[{"name":"","type":"address","internalType":"address"}],"stateMutability":"view"},{"type":"function","name":"delegationApproverSaltIsSpent","inputs":[{"name":"","type":"address","internalType":"address"},{"name":"","type":"bytes32","internalType":"bytes32"}],"outputs":[{"name":"","type":"bool","internalType":"bool"}],"stateMutability":"view"},{"type":"function","name":"domainSeparator","inputs":[],"outputs":[{"name":"","type":"bytes32","internalType":"bytes32"}],"stateMutability":"view"},{"type":"function","name":"earningsReceiver","inputs":[{"name":"operator","type":"address","internalType":"address"}],"outputs":[{"name":"","type":"address","internalType":"address"}],"stateMutability":"view"},{"type":"function","name":"getDelegatableShares","inputs":[{"name":"staker","type":"address","internalType":"address"}],"outputs":[{"name":"","type":"address[]","internalType":"contract IStrategyBase[]"},{"name":"","type":"uint256[]","internalType":"uint256[]"}],"stateMutability":"view"},{"type":"function","name":"getOperatorShares","inputs":[{"name":"operator","type":"address","internalType":"address"},{"name":"strategies","type":"address[]","internalType":"contract IStrategyBase[]"}],"outputs":[{"name":"","type":"uint256[]","internalType":"uint256[]"}],"stateMutability":"view"},{"type":"function","name":"getWithdrawalDelay","inputs":[{"name":"strategies","type":"address[]","internalType":"contract IStrategyBase[]"}],"outputs":[{"name":"","type":"uint256","internalType":"uint256"}],"stateMutability":"view"},{"type":"function","name":"increaseDelegatedShares","inputs":[{"name":"staker","type":"address","internalType":"address"},{"name":"strategy","type":"address","internalType":"contract IStrategyBase"},{"name":"shares","type":"uint256","internalType":"uint256"}],"outputs":[],"stateMutability":"nonpayable"},{"type":"function","name":"initialize","inputs":[{"name":"initialOwner","type":"address","internalType":"address"},{"name":"_pauserRegistry","type":"address","internalType":"contract IPauserRegistry"},{"name":"initialPausedStatus","type":"uint256","internalType":"uint256"},{"name":"_minWithdrawalDelayBlocks","type":"uint256","internalType":"uint256"},{"name":"_strategies","type":"address[]","internalType":"contract IStrategyBase[]"},{"name":"_withdrawalDelayBlocks","type":"uint256[]","internalType":"uint256[]"}],"outputs":[],"stateMutability":"nonpayable"},{"type":"function","name":"isDelegated","inputs":[{"name":"staker","type":"address","internalType":"address"}],"outputs":[{"name":"","type":"bool","internalType":"bool"}],"stateMutability":"view"},{"type":"function","name":"isOperator","inputs":[{"name":"operator","type":"address","internalType":"address"}],"outputs":[{"name":"","type":"bool","internalType":"bool"}],"stateMutability":"view"},{"type":"function","name":"migrateQueuedWithdrawals","inputs":[{"name":"withdrawalsToMigrate","type":"tuple[]","internalType":"struct IStrategyManager.DeprecatedStruct_QueuedWithdrawal[]","components":[{"name":"strategies","type":"address[]","internalType":"contract IStrategyBase[]"},{"name":"shares","type":"uint256[]","internalType":"uint256[]"},{"name":"staker","type":"address","internalType":"address"},{"name":"withdrawerAndNonce","type":"tuple","internalType":"struct IStrategyManager.DeprecatedStruct_WithdrawerAndNonce","components":[{"name":"withdrawer","type":"address","internalType":"address"},{"name":"nonce","type":"uint96","internalType":"uint96"}]},{"name":"withdrawalStartBlock","type":"uint32","internalType":"uint32"},{"name":"delegatedAddress","type":"address","internalType":"address"}]}],"outputs":[],"stateMutability":"nonpayable"},{"type":"function","name":"minWithdrawalDelayBlocks","inputs":[],"outputs":[{"name":"","type":"uint256","internalType":"uint256"}],"stateMutability":"view"},{"type":"function","name":"modifyOperatorDetails","inputs":[{"name":"newOperatorDetails","type":"tuple","internalType":"struct IDelegationManager.OperatorDetails","components":[{"name":"earningsReceiver","type":"address","internalType":"address"},{"name":"delegationApprover","type":"address","internalType":"address"},{"name":"stakerOptOutWindowBlocks","type":"uint32","internalType":"uint32"}]}],"outputs":[],"stateMutability":"nonpayable"},{"type":"function","name":"operatorDetails","inputs":[{"name":"operator","type":"address","internalType":"address"}],"outputs":[{"name":"","type":"tuple","internalType":"struct IDelegationManager.OperatorDetails","components":[{"name":"earningsReceiver","type":"address","internalType":"address"},{"name":"delegationApprover","type":"address","internalType":"address"},{"name":"stakerOptOutWindowBlocks","type":"uint32","internalType":"uint32"}]}],"stateMutability":"view"},{"type":"function","name":"operatorShares","inputs":[{"name":"","type":"address","internalType":"address"},{"name":"","type":"address","internalType":"contract IStrategyBase"}],"outputs":[{"name":"","type":"uint256","internalType":"uint256"}],"stateMutability":"view"},{"type":"function","name":"owner","inputs":[],"outputs":[{"name":"","type":"address","internalType":"address"}],"stateMutability":"view"},{"type":"function","name":"pause","inputs":[{"name":"newPausedStatus","type":"uint256","internalType":"uint256"}],"outputs":[],"stateMutability":"nonpayable"},{"type":"function","name":"pauseAll","inputs":[],"outputs":[],"stateMutability":"nonpayable"},{"type":"function","name":"paused","inputs":[{"name":"index","type":"uint8","internalType":"uint8"}],"outputs":[{"name":"","type":"bool","internalType":"bool"}],"stateMutability":"view"},{"type":"function","name":"paused","inputs":[],"outputs":[{"name":"","type":"uint256","internalType":"uint256"}],"stateMutability":"view"},{"type":"function","name":"pauserRegistry","inputs":[],"outputs":[{"name":"","type":"address","internalType":"contract IPauserRegistry"}],"stateMutability":"view"},{"type":"function","name":"pendingWithdrawals","inputs":[{"name":"","type":"bytes32","internalType":"bytes32"}],"outputs":[{"name":"","type":"bool","internalType":"bool"}],"stateMutability":"view"},{"type":"function","name":"queueWithdrawals","inputs":[{"name":"queuedWithdrawalParams","type":"tuple[]","internalType":"struct IDelegationManager.QueuedWithdrawalParams[]","components":[{"name":"strategies","type":"address[]","internalType":"contract IStrategyBase[]"},{"name":"shares","type":"uint256[]","internalType":"uint256[]"},{"name":"withdrawer","type":"address","internalType":"address"}]}],"outputs":[{"name":"","type":"bytes32[]","internalType":"bytes32[]"}],"stateMutability":"nonpayable"},{"type":"function","name":"registerAsOperator","inputs":[{"name":"registeringOperatorDetails","type":"tuple","internalType":"struct IDelegationManager.OperatorDetails","components":[{"name":"earningsReceiver","type":"address","internalType":"address"},{"name":"delegationApprover","type":"address","internalType":"address"},{"name":"stakerOptOutWindowBlocks","type":"uint32","internalType":"uint32"}]},{"name":"nodeUrl","type":"string","internalType":"string"}],"outputs":[],"stateMutability":"nonpayable"},{"type":"function","name":"renounceOwnership","inputs":[],"outputs":[],"stateMutability":"nonpayable"},{"type":"function","name":"setMinWithdrawalDelayBlocks","inputs":[{"name":"newMinWithdrawalDelayBlocks","type":"uint256","internalType":"uint256"}],"outputs":[],"stateMutability":"nonpayable"},{"type":"function","name":"setPauserRegistry","inputs":[{"name":"newPauserRegistry","type":"address","internalType":"contract IPauserRegistry"}],"outputs":[],"stateMutability":"nonpayable"},{"type":"function","name":"setStrategyWithdrawalDelayBlocks","inputs":[{"name":"strategies","type":"address[]","internalType":"contract IStrategyBase[]"},{"name":"withdrawalDelayBlocks","type":"uint256[]","internalType":"uint256[]"}],"outputs":[],"stateMutability":"nonpayable"},{"type":"function","name":"stakerNonce","inputs":[{"name":"","type":"address","internalType":"address"}],"outputs":[{"name":"","type":"uint256","internalType":"uint256"}],"stateMutability":"view"},{"type":"function","name":"stakerOptOutWindowBlocks","inputs":[{"name":"operator","type":"address","internalType":"address"}],"outputs":[{"name":"","type":"uint256","internalType":"uint256"}],"stateMutability":"view"},{"type":"function","name":"strategyManager","inputs":[],"outputs":[{"name":"","type":"address","internalType":"contract IStrategyManager"}],"stateMutability":"view"},{"type":"function","name":"strategyWithdrawalDelayBlocks","inputs":[{"name":"","type":"address","internalType":"contract IStrategyBase"}],"outputs":[{"name":"","type":"uint256","internalType":"uint256"}],"stateMutability":"view"},{"type":"function","name":"transferOwnership","inputs":[{"name":"newOwner","type":"address","internalType":"address"}],"outputs":[],"stateMutability":"nonpayable"},{"type":"function","name":"undelegate","inputs":[{"name":"staker","type":"address","internalType":"address"}],"outputs":[{"name":"withdrawalRoots","type":"bytes32[]","internalType":"bytes32[]"}],"stateMutability":"nonpayable"},{"type":"function","name":"unpause","inputs":[{"name":"newPausedStatus","type":"uint256","internalType":"uint256"}],"outputs":[],"stateMutability":"nonpayable"},{"type":"function","name":"updateOperatorNodeUrl","inputs":[{"name":"nodeUrl","type":"string","internalType":"string"}],"outputs":[],"stateMutability":"nonpayable"},{"type":"event","name":"Initialized","inputs":[{"name":"version","type":"uint64","indexed":false,"internalType":"uint64"}],"anonymous":false},{"type":"event","name":"MinWithdrawalDelayBlocksSet","inputs":[{"name":"previousValue","type":"uint256","indexed":false,"internalType":"uint256"},{"name":"newValue","type":"uint256","indexed":false,"internalType":"uint256"}],"anonymous":false},{"type":"event","name":"OperatorDetailsModified","inputs":[{"name":"operator","type":"address","indexed":true,"internalType":"address"},{"name":"newOperatorDetails","type":"tuple","indexed":false,"internalType":"struct IDelegationManager.OperatorDetails","components":[{"name":"earningsReceiver","type":"address","internalType":"address"},{"name":"delegationApprover","type":"address","internalType":"address"},{"name":"stakerOptOutWindowBlocks","type":"uint32","internalType":"uint32"}]}],"anonymous":false},{"type":"event","name":"OperatorNodeUrlUpdated","inputs":[{"name":"operator","type":"address","indexed":true,"internalType":"address"},{"name":"metadataURI","type":"string","indexed":false,"internalType":"string"}],"anonymous":false},{"type":"event","name":"OperatorRegistered","inputs":[{"name":"operator","type":"address","indexed":true,"internalType":"address"},{"name":"operatorDetails","type":"tuple","indexed":false,"internalType":"struct IDelegationManager.OperatorDetails","components":[{"name":"earningsReceiver","type":"address","internalType":"address"},{"name":"delegationApprover","type":"address","internalType":"address"},{"name":"stakerOptOutWindowBlocks","type":"uint32","internalType":"uint32"}]}],"anonymous":false},{"type":"event","name":"OperatorSharesDecreased","inputs":[{"name":"operator","type":"address","indexed":true,"internalType":"address"},{"name":"staker","type":"address","indexed":false,"internalType":"address"},{"name":"strategy","type":"address","indexed":false,"internalType":"contract IStrategyBase"},{"name":"shares","type":"uint256","indexed":false,"internalType":"uint256"}],"anonymous":false},{"type":"event","name":"OperatorSharesIncreased","inputs":[{"name":"operator","type":"address","indexed":true,"internalType":"address"},{"name":"staker","type":"address","indexed":false,"internalType":"address"},{"name":"strategy","type":"address","indexed":false,"internalType":"contract IStrategyBase"},{"name":"shares","type":"uint256","indexed":false,"internalType":"uint256"}],"anonymous":false},{"type":"event","name":"OwnershipTransferred","inputs":[{"name":"previousOwner","type":"address","indexed":true,"internalType":"address"},{"name":"newOwner","type":"address","indexed":true,"internalType":"address"}],"anonymous":false},{"type":"event","name":"Paused","inputs":[{"name":"account","type":"address","indexed":true,"internalType":"address"},{"name":"newPausedStatus","type":"uint256","indexed":false,"internalType":"uint256"}],"anonymous":false},{"type":"event","name":"PauserRegistrySet","inputs":[{"name":"pauserRegistry","type":"address","indexed":false,"internalType":"contract IPauserRegistry"},{"name":"newPauserRegistry","type":"address","indexed":false,"internalType":"contract IPauserRegistry"}],"anonymous":false},{"type":"event","name":"StakerDelegated","inputs":[{"name":"staker","type":"address","indexed":true,"internalType":"address"},{"name":"operator","type":"address","indexed":true,"internalType":"address"}],"anonymous":false},{"type":"event","name":"StakerForceUndelegated","inputs":[{"name":"staker","type":"address","indexed":true,"internalType":"address"},{"name":"operator","type":"address","indexed":true,"internalType":"address"}],"anonymous":false},{"type":"event","name":"StakerUndelegated","inputs":[{"name":"staker","type":"address","indexed":true,"internalType":"address"},{"name":"operator","type":"address","indexed":true,"internalType":"address"}],"anonymous":false},{"type":"event","name":"StrategyWithdrawalDelayBlocksSet","inputs":[{"name":"strategy","type":"address","indexed":false,"internalType":"contract IStrategyBase"},{"name":"previousValue","type":"uint256","indexed":false,"internalType":"uint256"},{"name":"newValue","type":"uint256","indexed":false,"internalType":"uint256"}],"anonymous":false},{"type":"event","name":"Unpaused","inputs":[{"name":"account","type":"address","indexed":true,"internalType":"address"},{"name":"newPausedStatus","type":"uint256","indexed":false,"internalType":"uint256"}],"anonymous":false},{"type":"event","name":"WithdrawalCompleted","inputs":[{"name":"operator","type":"address","indexed":false,"internalType":"address"},{"name":"staker","type":"address","indexed":false,"internalType":"address"},{"name":"strategy","type":"address","indexed":false,"internalType":"contract IStrategyBase"},{"name":"shares","type":"uint256","indexed":false,"internalType":"uint256"}],"anonymous":false},{"type":"event","name":"WithdrawalMigrated","inputs":[{"name":"oldWithdrawalRoot","type":"bytes32","indexed":false,"internalType":"bytes32"},{"name":"newWithdrawalRoot","type":"bytes32","indexed":false,"internalType":"bytes32"}],"anonymous":false},{"type":"event","name":"WithdrawalQueued","inputs":[{"name":"withdrawalRoot","type":"bytes32","indexed":false,"internalType":"bytes32"},{"name":"withdrawal","type":"tuple","indexed":false,"internalType":"struct IDelegationManager.Withdrawal","components":[{"name":"staker","type":"address","internalType":"address"},{"name":"delegatedTo","type":"address","internalType":"address"},{"name":"withdrawer","type":"address","internalType":"address"},{"name":"nonce","type":"uint256","internalType":"uint256"},{"name":"startBlock","type":"uint32","internalType":"uint32"},{"name":"strategies","type":"address[]","internalType":"contract IStrategyBase[]"},{"name":"shares","type":"uint256[]","internalType":"uint256[]"}]}],"anonymous":false},{"type":"error","name":"ECDSAInvalidSignature","inputs":[]},{"type":"error","name":"ECDSAInvalidSignatureLength","inputs":[{"name":"length","type":"uint256","internalType":"uint256"}]},{"type":"error","name":"ECDSAInvalidSignatureS","inputs":[{"name":"s","type":"bytes32","internalType":"bytes32"}]},{"type":"error","name":"InvalidInitialization","inputs":[]},{"type":"error","name":"NotInitializing","inputs":[]},{"type":"error","name":"OwnableInvalidOwner","inputs":[{"name":"owner","type":"address","internalType":"address"}]},{"type":"error","name":"OwnableUnauthorizedAccount","inputs":[{"name":"account","type":"address","internalType":"address"}]},{"type":"error","name":"ReentrancyGuardReentrantCall","inputs":[]}],"bytecode":{"object":"0x60c0346200016e576001600160401b0390601f62004fed38819003918201601f19168301918483118484101762000172578084926020946040528339810103126200016e57516001600160a01b03811681036200016e576080527ff0c57e16840df040f15088dc2f81fe391c3923bec73e23a9662efc9c229c6a009081549060ff8260401c166200015c57808083160362000116575b4660a052604051614e669081620001878239608051818181610747015281816107b6015281816108e301528181610952015281816115f40152818161166301528181611790015281816117ff01528181611a4401528181612052015281816120d9015281816126fc0152818161382101526139ba015260a051816139620152f35b6001600160401b031990911681179091556040519081527fc7f505b2f371ae2175ee4913f4499e1f2633a7b5936321eed1cdaeb6115181d290602090a15f808062000095565b60405163f92ee8a960e01b8152600490fd5b5f80fd5b634e487b7160e01b5f52604160045260245ffdfe60806040526004361015610011575f80fd5b60e05f3560e01c9081630449ca3914612ef957816304a4f97914612ebf5781630b9f487a14612e835781630dd8dd0214612cf45781630f589e59146127de57816310d67a2f1461275c578163132d4967146126dc578163136439dd146125ad5781631522bf021461255557816316928365146125115781631bbce091146124cb5781631c8392d7146123cf57816320606b701461239557816322bf40e41461213957816328a573ae146120b957816329c77d4f1461208157816339b70e381461203d5781633cdeb5e0146120015781633e28391d14611fc45781634337738214611f8a5781634fc40b6114611f6d578163595c6a6714611ead578163597b36da14611e785781635ac86ab714611e455781635c975abb14611e285781635cfe8d2c146119d0575080635f966f1414611997578063635bbd101461197357806365da12641461193a5780636d70f7ae146118f35780636f8c9884146114a1578063715018a61461143a578063778e55f3146113ed5780637f548071146112c2578063886f11951461129b5780638da5cb5b1461126757806390041347146111c0578063a178848414611188578063b7f06ebe14611159578063bb45fef214611110578063c448feb8146110f3578063c488375a146110bb578063c5e480db14611027578063c94b511114610ff4578063ca661c0414610fd7578063cf80873e14610f59578063da8be86414610b7d578063e92ae72614610506578063eea9064b146104c0578063f16172b014610412578063f2fde38b146103bf578063f698da251461039d5763fabc1cbc14610264575f80fd5b3461039957602080600319360112610399575f5460405163755b36bd60e11b81526004803593926001600160a01b03918491849190829085165afa801561038e576102b9925f91610361575b50163314613557565b6001541982198116036102f7577f3582d1828e26bf56bd801502bc021ac0bc8afb57c826e4986b45593c8fad389c90826001556040519283523392a2005b6084906040519062461bcd60e51b82526004820152603860248201527f5061757361626c652e756e70617573653a20696e76616c696420617474656d7060448201527f7420746f2070617573652066756e6374696f6e616c69747900000000000000006064820152fd5b6103819150843d8611610387575b6103798183613107565b810190613538565b5f6102b0565b503d61036f565b6040513d5f823e3d90fd5b5f80fd5b34610399575f3660031901126103995760206103b761395f565b604051908152f35b34610399576020366003190112610399576103d8612fb0565b6103e06144d6565b6001600160a01b038116156103fa576103f89061477c565b005b604051631e4fbdf760e01b81525f6004820152602490fd5b3461039957606036600319011261039957335f908152606860205260409020546001600160a01b031615610449576103f833613dc1565b60405162461bcd60e51b815260206004820152604360248201527f44656c65676174696f6e4d616e616765722e6d6f646966794f70657261746f7260448201527f44657461696c733a2063616c6c6572206d75737420626520616e206f706572616064820152623a37b960e91b608482015260a490fd5b34610399576060366003190112610399576104d9612fb0565b602435906001600160401b038211610399576104fc6103f89236906004016132d4565b6044359133614055565b34610399576080366003190112610399576001600160401b0360043581811161039957610537903690600401612f80565b610542929192612fc6565b926044358381116103995761055b903690600401612f80565b90936064359081116103995761057990949391943690600401612f80565b9061058261494b565b5f925b8084106105b25760017f9b779b17422d0df92223018b32b4d1fa46e071723d6817e2486d003becc55f0055005b8360051b8501359660de1986360301881215610399576105d385828961338c565b506105df85858561338c565b35968715158803610399576105fe6105f9368b8a0161322d565b61373f565b805f52606d60205260ff60405f20541615610b195761062160808b8a0101613db0565b610634606c5463ffffffff4393166148bc565b11610a9b576001600160a01b0361064f898c016040016133b0565b163303610a2a575f908152606d60209081526040808320805460ff1916905533835260699091529020546001600160a01b0316971561089157909192935f5b61069e888b0160a08101906134bb565b905081101561087a579081610744816107338d60c0816107398f9d9c9b9a996106fd908f806107276106d7608088610733950101613db0565b846107026106fd6106ee868c0160a08101906134bb565b6001600160a01b03949161338c565b6133b0565b165f526070602052610720439163ffffffff60405f205491166148bc565b111561498d565b850160a08101906134bb565b9061338c565b9c0101908d016134bb565b357f00000000000000000000000000000000000000000000000000000000000000006001600160a01b03163b156103995760405163c608c7f360e01b81523360048201526001600160a01b03988916602482015260448101919091528c88166064820152965f908890608490829084907f0000000000000000000000000000000000000000000000000000000000000000165af190811561038e578a61085e61082c8c8f946001906107339d5f80516020614df18339815191529861086b575b50019b8c916108206106fd846107338a850160a08101906134bb565b960160c08101906134bb565b604080516001600160a01b03948516815233602082015294909316928401929092529035606083015281906080820190565b0390a1909192939461068e565b610874906130d9565b5f610804565b50929650929650926001905b019295909194610585565b909192935f5b6108a7888b0160a08101906134bb565b9050811015610a1a5790816108e0816107338d60c0816107398f9d9c9b9a996106fd908f806107276106d7608088610733950101613db0565b357f00000000000000000000000000000000000000000000000000000000000000006001600160a01b03163b156103995760405163c4623ea160e01b81523360048201526001600160a01b03808f16602483015298891660448201526064810191909152965f908890608490829084907f0000000000000000000000000000000000000000000000000000000000000000165af190811561038e578a6109c261082c8c8f946001906107339d5f80516020614df183398151915298610a0b575b50856109cf575b019b8c916108206106fd846107338a850160a08101906134bb565b0390a19091929394610897565b610a066109e96106fd83610733878c0160a08101906134bb565b6109fd83610733878c0160c08101906134bb565b359033896148c9565b6109a7565b610a14906130d9565b5f6109a0565b5092965092965092600190610886565b60405162461bcd60e51b815260206004820152605060248201525f80516020614dd183398151915260448201527f645769746864726177616c3a206f6e6c7920776974686472617765722063616e60648201526f1031b7b6b83632ba329030b1ba34b7b760811b608482015260a490fd5b60405162461bcd60e51b815260206004820152605f60248201525f80516020614dd183398151915260448201527f645769746864726177616c3a206d696e5769746864726177616c44656c61794260648201527f6c6f636b7320706572696f6420686173206e6f74207965742070617373656400608482015260a490fd5b60405162461bcd60e51b815260206004820152604360248201525f80516020614dd183398151915260448201527f645769746864726177616c3a20616374696f6e206973206e6f7420696e20717560648201526265756560e81b608482015260a490fd5b346103995760208060031936011261039957610b97612fb0565b6001600160a01b038082165f908152606960205260409020541615610ee2576001600160a01b038082165f9081526068602052604090205416610e77576001600160a01b03818116918215610e0c57825f52606984528160405f205416908333149182159283610e03575b8015610dea575b15610d7f57610c17826137fa565b959093610d54575b81817ffee30966a256b71e14bc0ebfc94315e28ef4a97a7131a9e2b7a310a73af446765f80a35f908152606987526040902080546001600160a01b0319169055825180610cb457505050505050604051908101908082106001600160401b03831117610ca057610c9c916040525f81525b60405191829182613006565b0390f35b634e487b7160e01b5f52604160045260245ffd5b610cc19096949596613467565b955f5b8451811015610d4457600190610d33604051610cdf816130a3565b839081815289368183013760405191610cf7836130a3565b82528936818401378a610d0a858b6134fd565b5116610d15826134f0565b52610d2084876134fd565b51610d2a836134f0565b52878781613994565b610d3d828b6134fd565b5201610cc4565b50505050505050610c9c90610c90565b81817ff0eddf07e6ea14f388b47e1e94a0f464ecbd9eed4171130e0fc0e99fb4030a8a5f80a3610c1f565b60405162461bcd60e51b815260048101879052603d60248201527f44656c65676174696f6e4d616e616765722e756e64656c65676174653a20636160448201527f6c6c65722063616e6e6f7420756e64656c6567617465207374616b65720000006064820152608490fd5b50805f526068865283600160405f200154163314610c09565b50803314610c02565b60405162461bcd60e51b815260048101859052603c60248201527f44656c65676174696f6e4d616e616765722e756e64656c65676174653a20636160448201527f6e6e6f7420756e64656c6567617465207a65726f2061646472657373000000006064820152608490fd5b60405162461bcd60e51b815260048101839052603d60248201527f44656c65676174696f6e4d616e616765722e756e64656c65676174653a206f7060448201527f657261746f72732063616e6e6f7420626520756e64656c6567617465640000006064820152608490fd5b60a4826040519062461bcd60e51b82526004820152604460248201527f44656c65676174696f6e4d616e616765722e756e64656c65676174653a20737460448201527f616b6572206d7573742062652064656c65676174656420746f20756e64656c656064820152636761746560e01b6084820152fd5b346103995760208060031936011261039957610f7b610f76612fb0565b6137fa565b604092919251928391604083016040845282518091526020606085019301945f5b828110610fb7578580610c9c87878382036020850152613359565b86516001600160a01b031685529581019587955093810193600101610f9c565b34610399575f36600319011261039957602060405162034bc08152f35b346103995760803660031901126103995760206103b7611012612fb0565b61101a612fdc565b606435916024359061377e565b34610399576020366003190112610399576060611042612fb0565b5f60408051611050816130ec565b828152826020820152015260018060a01b038091165f5260686020526040805f209181519061107e826130ec565b600181855416948584520154916020810190828416825263ffffffff948591019360a01c1683526040519485525116602084015251166040820152f35b34610399576020366003190112610399576001600160a01b036110dc612fb0565b165f526070602052602060405f2054604051908152f35b34610399575f366003190112610399576020606c54604051908152f35b34610399576040366003190112610399576001600160a01b03611131612fb0565b165f52606b60205260405f206024355f52602052602060ff60405f2054166040519015158152f35b34610399576020366003190112610399576004355f52606d602052602060ff60405f2054166040519015158152f35b34610399576020366003190112610399576001600160a01b036111a9612fb0565b165f52606e602052602060405f2054604051908152f35b34610399576040366003190112610399576111d9612fb0565b6024356001600160401b038111610399576111f89036906004016131a6565b906112038251613467565b6001600160a01b03918216925f5b815181101561125157600190855f5260206067815260405f20908661123684876134fd565b51165f525260405f205461124a82866134fd565b5201611211565b60405160208082528190610c9c90820186613359565b34610399575f366003190112610399575f80516020614db1833981519152546040516001600160a01b039091168152602090f35b34610399575f366003190112610399575f546040516001600160a01b039091168152602090f35b346103995760a0366003190112610399576112db612fb0565b6112e3612fc6565b6001600160401b039190604435838111610399576113059036906004016132d4565b926064359081116103995761131e9036906004016132d4565b90602084019384514211611378576103f89461136f916001808060a01b03871692835f52606a60205261135960405f2054915187838b61377e565b935f52606a6020520160405f2055519085614a29565b60843592614055565b60405162461bcd60e51b815260206004820152604160248201527f44656c65676174696f6e4d616e616765722e64656c6567617465546f4279536960448201527f676e61747572653a207374616b6572207369676e6174757265206578706972656064820152601960fa1b608482015260a490fd5b3461039957604036600319011261039957611406612fb0565b61140e612fc6565b9060018060a01b038091165f52606760205260405f2091165f52602052602060405f2054604051908152f35b34610399575f366003190112610399576114526144d6565b5f80516020614db183398151915280546001600160a01b031981169091555f906001600160a01b03167f8be0079c531659141344cd1fd0a4f28419497f9722a3daafe3b4186f6b6457e08280a3005b346103995760031960803682011261039957600435906001600160401b0382116103995760e0908236030112610399576114d9612fc6565b906064358015158103610399576114ee61494b565b6114fe6105f9368460040161322d565b805f52606d60205260ff60405f20541615610b195761153161152260848501613db0565b63ffffffff606c5491166148bc565b4310610a9b576001600160a01b0361154b604485016133b0565b163303610a2a575f908152606d60209081526040808320805460ff1916905533835260699091529020546001600160a01b03169015611737575f5b61159660a48401846004016134bb565b905081101561170c576115c56115ae60848501613db0565b826107026106fd6106ee60a48901896004016134bb565b6115dc6106fd8261073360a48701876004016134bb565b906115f18161073360c48701876004016134bb565b357f00000000000000000000000000000000000000000000000000000000000000006001600160a01b03163b156103995760405163c608c7f360e01b81523360048201526001600160a01b03938416602482015260448101919091528583166064820152915f908390608490829084907f0000000000000000000000000000000000000000000000000000000000000000165af191821561038e576001926116fd575b50015f80516020614df18339815191526116bb6106fd8361073360a48801886004016134bb565b6116cf8361073360c48801886004016134bb565b604080516001600160a01b0387811682523360208301529390931690830152356060820152608090a1611586565b611706906130d9565b85611694565b505050505b60017f9b779b17422d0df92223018b32b4d1fa46e071723d6817e2486d003becc55f0055005b5f5b61174960a48401846004016134bb565b90508110156118ea576117616115ae60848501613db0565b6117786106fd8261073360a48701876004016134bb565b9061178d8161073360c48701876004016134bb565b357f00000000000000000000000000000000000000000000000000000000000000006001600160a01b03163b156103995760405163c4623ea160e01b81523360048201526001600160a01b03878116602483015293841660448201526064810191909152915f908390608490829084907f0000000000000000000000000000000000000000000000000000000000000000165af191821561038e576001926118db575b508261189f575b015f80516020614df183398151915261185d6106fd8361073360a48801886004016134bb565b6118718361073360c48801886004016134bb565b604080516001600160a01b0387811682523360208301529390931690830152356060820152608090a1611739565b6118d66118b96106fd8361073360a48901896004016134bb565b6118cd8361073360c48901896004016134bb565b359033866148c9565b611837565b6118e4906130d9565b85611830565b50505050611711565b34610399576020366003190112610399576020611930611911612fb0565b6001600160a01b039081165f9081526068602052604090205416151590565b6040519015158152f35b346103995760203660031901126103995760206001600160a01b038061195e612fb0565b165f526069825260405f205416604051908152f35b346103995760203660031901126103995761198c6144d6565b6103f86004356147d0565b346103995760203660031901126103995760206001600160a01b03806119bb612fb0565b165f526068825260405f205416604051908152f35b34610399576020366003190112610399576001600160401b0390600435828111610399573660238201121561039957806004013592611a0e84613139565b93611a1c6040519586613107565b8085526024602086019160051b840101923684116103995760248101915b848310611d3057867f00000000000000000000000000000000000000000000000000000000000000006001600160a01b0316875f5b83518110156103f857611a8281856134fd565b51906040519163cd293f6f60e01b83526020600484015260408380611acc611ab68551896024850152610104840190613662565b602086015183820360231901604485015261369e565b848401516001600160a01b0390811660648401526060860151805182166084850152602001516001600160601b031660a4840152608086015163ffffffff1660c484015260a08601511660e483015203815f895af192831561038e575f905f94611cef575b50611b42575b506001915001611a6f565b6040818101516001600160a01b03165f818152606e602052919091208054919290611b6c8361375c565b905560018060a01b0360a0820151169160018060a01b03606083015151169063ffffffff60808401511691602084519401519460405196611bac886130be565b8752602087015260408601526060850152608084015260a083015260c0820152611bd58161373f565b92835f52606d908160205260ff60405f205416611c7657847f9009ab153e8014fbfb02f2217f5cde7aa7f9ad734ae85ca3ee3f4ca2fdd499f9611c627fdc00758b65eef71dc3780c04ebe36cab6bdb266c3a698187e29e0f0dca012630956040956001995f52602052855f208960ff198254161790558551918291858352876020840152878301906136d1565b0390a182519182526020820152a185611b37565b60405162461bcd60e51b815260206004820152604560248201527f44656c65676174696f6e4d616e616765722e6d6967726174655175657565645760448201527f69746864726177616c733a207769746864726177616c20616c72656164792065606482015264786973747360d81b608482015260a490fd5b9350506040833d604011611d28575b81611d0b60409383613107565b81010312610399576020611d1e846135f8565b9301519287611b31565b3d9150611cfe565b82358481116103995782018036039187602319840112610399576040519260c0840184811088821117610ca057604052602483013587811161039957611d7c90602436918601016131a6565b845260448301359087821161039957611d9d60409260243691870101613212565b6020860152611dae60648501612ff2565b8583015260831901126103995760405192611dc8846130a3565b611dd460848401612ff2565b845260a4830135936001600160601b03851685036103995760e46020959482879687611e189501526060850152611e0d60c48201613128565b608085015201612ff2565b60a0820152815201920191611a3a565b34610399575f366003190112610399576020600154604051908152f35b346103995760203660031901126103995760043560ff81168091036103995760016020911b806001541614604051908152f35b34610399576020366003190112610399576004356001600160401b038111610399576103b76105f9602092369060040161322d565b34610399575f366003190112610399575f5460405163237dfb4760e11b815233600482015290602090829060249082906001600160a01b03165afa801561038e575f90611f32575b611efe90613605565b5f19806001556040519081527fab40a374bc51de372200a8bc981af8c9ecdc08dfdaef0bb6e09f88f3c616ef3d60203392a2005b506020813d602011611f65575b81611f4c60209383613107565b8101031261039957611f60611efe916135f8565b611ef5565b3d9150611f3f565b34610399575f3660031901126103995760206040516213c6808152f35b34610399575f3660031901126103995760206040517f39111bc4a4d688e1f685123d7497d4615370152a8ee4a0593e647bd06ad8bb0b8152f35b34610399576020366003190112610399576020611930611fe2612fb0565b6001600160a01b039081165f9081526069602052604090205416151590565b346103995760203660031901126103995760206001600160a01b0380612025612fb0565b165f5260688252600160405f20015416604051908152f35b34610399575f366003190112610399576040517f00000000000000000000000000000000000000000000000000000000000000006001600160a01b03168152602090f35b34610399576020366003190112610399576001600160a01b036120a2612fb0565b165f52606a602052602060405f2054604051908152f35b34610399576120c73661306e565b6001600160a01b0392909190612100337f00000000000000000000000000000000000000000000000000000000000000008616146135b6565b6001600160a01b038082165f908152606960205260409020541661212057005b836103f89482165f52606960205260405f2054166148c9565b346103995760c036600319011261039957612152612fb0565b61215a612fc6565b604435608435916001600160401b03928381116103995761217f903690600401612f80565b60a4929192358581116103995761219a903690600401612f80565b9390927ff0c57e16840df040f15088dc2f81fe391c3923bec73e23a9662efc9c229c6a0097885460ff8160401c16159881168015908161238d575b6001149081612383575b15908161237a575b506123685767ffffffffffffffff1981166001178a5588612349575b505f546001600160a01b0390811615908161233d575b50156122c25761225f61226f928861227f996001556040519081527fab40a374bc51de372200a8bc981af8c9ecdc08dfdaef0bb6e09f88f3c616ef3d60203392a2614381565b6122676146da565b60665561477c565b61227a6064356147d0565b61450e565b61228557005b68ff00000000000000001981541690557fc7f505b2f371ae2175ee4913f4499e1f2633a7b5936321eed1cdaeb6115181d2602060405160018152a1005b60405162461bcd60e51b815260206004820152604760248201527f5061757361626c652e5f696e697469616c697a655061757365723a205f696e6960448201527f7469616c697a6550617573657228292063616e206f6e6c792062652063616c6c6064820152666564206f6e636560c81b608482015260a490fd5b9050821615158a612219565b68ffffffffffffffffff19166801000000000000000117895589612203565b60405163f92ee8a960e01b8152600490fd5b9050158b6121e7565b303b1591506121df565b8a91506121d5565b34610399575f3660031901126103995760206040517f8cad95687ba82c2ce50e74f7b754645e5117c3a5bec8151c0726d5857980a8668152f35b34610399576020366003190112610399576004356001600160401b038111610399576123ff903690600401613041565b335f908152606860205260409020546001600160a01b0316156124545761244f7f826d13513a58153c5878cd93af2008d3f8dfc32049e748b380b1b385645e280b91604051918291339583613511565b0390a2005b60405162461bcd60e51b815260206004820152604360248201527f44656c65676174696f6e4d616e616765722e7570646174654f70657261746f7260448201527f4e6f646555726c3a2063616c6c6572206d75737420626520616e206f706572616064820152623a37b960e91b608482015260a490fd5b346103995760603660031901126103995760206103b76124e9612fb0565b6124f1612fc6565b6001600160a01b0382165f908152606a855260409020546044359261377e565b34610399576020366003190112610399576001600160a01b03612532612fb0565b165f526068602052602063ffffffff600160405f20015460a01c16604051908152f35b34610399576040366003190112610399576001600160401b0360043581811161039957612586903690600401612f80565b90602435928311610399576125a26103f8933690600401612f80565b92909161227a6144d6565b3461039957602080600319360112610399576004359060248160018060a01b035f54166040519283809263237dfb4760e11b82523360048301525afa801561038e575f906126a6575b6126009150613605565b6001548281160361263c577fab40a374bc51de372200a8bc981af8c9ecdc08dfdaef0bb6e09f88f3c616ef3d90826001556040519283523392a2005b6084906040519062461bcd60e51b82526004820152603860248201527f5061757361626c652e70617573653a20696e76616c696420617474656d70742060448201527f746f20756e70617573652066756e6374696f6e616c69747900000000000000006064820152fd5b508181813d83116126d5575b6126bc8183613107565b81010312610399576126d0612600916135f8565b6125f6565b503d6126b2565b34610399576126ea3661306e565b6001600160a01b0392909190612723337f00000000000000000000000000000000000000000000000000000000000000008616146135b6565b6001600160a01b038082165f908152606960205260409020541661274357005b836103f89482165f52606960205260405f205416614453565b3461039957602036600319011261039957612775612fb0565b5f5460405163755b36bd60e11b81526001600160a01b0392916020908290600490829087165afa92831561038e576103f8936127ba925f916127bf5750163314613557565b614381565b6127d8915060203d602011610387576103798183613107565b856102b0565b34610399573660031901608081126103995760601361039957606480356001600160401b03811161039957612817903690600401613041565b919091335f526020916068835260018060a01b03908160405f205416612c7d5761284033613dc1565b60405161284c816130a3565b606081525f85820181815233825260696020526040909120549092906001600160a01b0316612c0a57335f908152606860205260409020546001600160a01b031615612b9357335f526068865260019284600160405f200154169182151580612b89575b80612b82575b6129e8575b50505050335f526069845260405f20336001600160601b0360a01b82541617905533337fc3ee9f2e5fda98e8066a1f745b2df9285f416fe98cf2559cd21484b3d87433045f80a38061290c336137fa565b905f925b6129ad575b5050505060405192600435828116809103610399578452602435918216809203610399578301526044359063ffffffff8216809203610399578261244f9260407f826d13513a58153c5878cd93af2008d3f8dfc32049e748b380b1b385645e280b9501527f8e8485583a2310d41f7c82b9427d0bd49bad74bb9cff9d3402a29d8f9b28a0e260603392a2604051918291339583613511565b80518310156129e35783836129dc876129c78497866134fd565b51166129d383876134fd565b519033336148c9565b0192612910565b612915565b81514211612b3257825f52606b885260405f205f8052885260ff60405f205416612ae2575090612ad99291815f52606b885260405f205f8052885260405f20600160ff198254161790555160405190888201927f6d1fdcc5430bb8f0c2b78c3d153f848b370260144c36d3b8b064f06b5a04568e845233604084015233606084015260808301525f60a083015260c082015260c08152612a87816130be565b519020612abf612acd612a9861395f565b926040519283918b83019586909160429261190160f01b8352600283015260228201520190565b03601f198101835282613107565b51902090519033614a29565b858080806128bb565b87761c9bdd995c94d85b1d08185b1c9958591e481cdc195b9d604a1b6084926040519262461bcd60e51b84526004840152603760248401525f80516020614e118339815191526044840152820152fd5b87761c9bdd995c881cda59db985d1d5c9948195e1c1a5c9959604a1b6084926040519262461bcd60e51b84526004840152603760248401525f80516020614e118339815191526044840152820152fd5b505f6128b6565b50823314156128b0565b857f7261746f72206973206e6f74207265676973746572656420696e204d616e746160a4926040519262461bcd60e51b84526004840152604560248401527f44656c65676174696f6e4d616e616765722e5f64656c65676174653a206f70656044840152820152642630bcb2b960d91b6084820152fd5b857f6b657220697320616c7265616479206163746976656c792064656c656761746560a4926040519262461bcd60e51b84526004840152604160248401527f44656c65676174696f6e4d616e616765722e5f64656c65676174653a207374616044840152820152601960fa1b6084820152fd5b837f61746f723a206f70657261746f722068617320616c726561647920726567697360a4926040519262461bcd60e51b84526004840152604560248401527f44656c65676174696f6e4d616e616765722e726567697374657241734f7065726044840152820152641d195c995960da1b6084820152fd5b3461039957602080600319360112610399576004356001600160401b03811161039957612d25903690600401612f80565b90612d2f82613467565b91335f52606960205260018060a01b0360405f205416915f5b828110612d5d5760405180610c9c8782613006565b612d71612d6b828585613499565b806134bb565b9050612d8a612d81838686613499565b888101906134bb565b91905003612e185780612e07612dae6040612da86001958888613499565b016133b0565b848988612e0189612df9612def612dcb6040612da88c868b613499565b95612de68b612dde612d6b82888d613499565b96909a613499565b908101906134bb565b9690923691613150565b9436916131c4565b93613994565b612e1182886134fd565b5201612d48565b60405162461bcd60e51b815260048101879052603860248201527f44656c65676174696f6e4d616e616765722e717565756557697468647261776160448201527f6c3a20696e707574206c656e677468206d69736d6174636800000000000000006064820152608490fd5b346103995760a03660031901126103995760206103b7612ea1612fb0565b612ea9612fc6565b90612eb2612fdc565b60843592606435926133c4565b34610399575f3660031901126103995760206040517f6d1fdcc5430bb8f0c2b78c3d153f848b370260144c36d3b8b064f06b5a04568e8152f35b3461039957602080600319360112610399576004356001600160401b03811161039957612f2a903690600401612f80565b9091606c54925f5b838110612f4457602085604051908152f35b6001600160a01b03612f5a6106fd83878661338c565b165f526070835260405f2054858111612f77575b50600101612f32565b94506001612f6e565b9181601f84011215610399578235916001600160401b038311610399576020808501948460051b01011161039957565b600435906001600160a01b038216820361039957565b602435906001600160a01b038216820361039957565b604435906001600160a01b038216820361039957565b35906001600160a01b038216820361039957565b60209060206040818301928281528551809452019301915f5b82811061302d575050505090565b83518552938101939281019260010161301f565b9181601f84011215610399578235916001600160401b038311610399576020838186019501011161039957565b6060906003190112610399576001600160a01b0390600435828116810361039957916024359081168103610399579060443590565b604081019081106001600160401b03821117610ca057604052565b60e081019081106001600160401b03821117610ca057604052565b6001600160401b038111610ca057604052565b606081019081106001600160401b03821117610ca057604052565b90601f801991011681019081106001600160401b03821117610ca057604052565b359063ffffffff8216820361039957565b6001600160401b038111610ca05760051b60200190565b929161315b82613139565b916131696040519384613107565b829481845260208094019160051b810192831161039957905b82821061318f5750505050565b83809161319b84612ff2565b815201910190613182565b9080601f83011215610399578160206131c193359101613150565b90565b92916131cf82613139565b916131dd6040519384613107565b829481845260208094019160051b810192831161039957905b8282106132035750505050565b813581529083019083016131f6565b9080601f83011215610399578160206131c1933591016131c4565b919060e0838203126103995760405190613246826130be565b819361325181612ff2565b835261325f60208201612ff2565b602084015261327060408201612ff2565b60408401526060810135606084015261328b60808201613128565b60808401526001600160401b039160a082013583811161039957816132b19184016131a6565b60a085015260c08201359283116103995760c0926132cf9201613212565b910152565b91909160408184031261039957604051906132ee826130a3565b81938135916001600160401b03928381116103995781019180601f840112156103995782356020948111610ca05760405191613333601f8301601f1916870184613107565b8183528582860101116103995784815f9282809701838601378301015284520135910152565b9081518082526020808093019301915f5b828110613378575050505090565b83518552938101939281019260010161336a565b919081101561339c5760051b0190565b634e487b7160e01b5f52603260045260245ffd5b356001600160a01b03811681036103995790565b939192906040519360208501957f6d1fdcc5430bb8f0c2b78c3d153f848b370260144c36d3b8b064f06b5a04568e875260018060a01b039283809216604088015216606086015216608084015260a083015260c082015260c08152613428816130be565b519020612abf61346161343961395f565b92604051928391602083019586909160429261190160f01b8352600283015260228201520190565b51902090565b9061347182613139565b61347e6040519182613107565b828152809261348f601f1991613139565b0190602036910137565b919081101561339c5760051b81013590605e1981360301821215610399570190565b903590601e198136030182121561039957018035906001600160401b03821161039957602001918160051b3603831361039957565b80511561339c5760200190565b805182101561339c5760209160051b010190565b90918060409360208452816020850152848401375f828201840152601f01601f1916010190565b9081602091031261039957516001600160a01b03811681036103995790565b1561355e57565b60405162461bcd60e51b815260206004820152602a60248201527f6d73672e73656e646572206973206e6f74207065726d697373696f6e6564206160448201526939903ab73830bab9b2b960b11b6064820152608490fd5b156135bd57565b60405162461bcd60e51b815260206004820152601360248201527237b7363ca9ba3930ba32b3bca6b0b730b3b2b960691b6044820152606490fd5b5190811515820361039957565b1561360c57565b60405162461bcd60e51b815260206004820152602860248201527f6d73672e73656e646572206973206e6f74207065726d697373696f6e6564206160448201526739903830bab9b2b960c11b6064820152608490fd5b9081518082526020808093019301915f5b828110613681575050505090565b83516001600160a01b031685529381019392810192600101613673565b9081518082526020808093019301915f5b8281106136bd575050505090565b8351855293810193928101926001016136af565b6131c19160018060a01b0380835116825280602084015116602083015260408301511660408201526060820151606082015263ffffffff608083015116608082015260c061372e60a084015160e060a085015260e0840190613662565b9201519060c081840391015261369e565b60405161346181612abf60208201946020865260408301906136d1565b5f19811461376a5760010190565b634e487b7160e01b5f52601160045260245ffd5b9192906040519260208401947f39111bc4a4d688e1f685123d7497d4615370152a8ee4a0593e647bd06ad8bb0b865260018060a01b038092166040860152166060840152608083015260a082015260a0815260c081018181106001600160401b03821117610ca057604052519020612abf61346161343961395f565b6040516394f649dd60e01b81526001600160a01b0391821660048201529091905f816024817f000000000000000000000000000000000000000000000000000000000000000087165afa92831561038e575f915f9461385a575b50509190565b915092503d805f833e61386d8183613107565b8101926040828503126103995781516001600160401b03908181116103995783019285601f85011215610399578351936020936138a986613139565b956138b76040519788613107565b808752858088019160051b84010192898411610399578601905b83821061394757505050508281015191821161039957019380601f860112156103995784516138ff81613139565b9561390d6040519788613107565b818752838088019260051b820101928311610399578301905b82821061393857505050505f80613854565b81518152908301908301613926565b815183811681036103995781529086019086016138d1565b467f00000000000000000000000000000000000000000000000000000000000000000361398c5760665490565b6131c16146da565b949093909290916001600160a01b039190828716908115613d2c57825115613cab5794957f0000000000000000000000000000000000000000000000000000000000000000841695905f5b8451811015613bef57858216613bc7575b85831684148015613b4b575b15613a895785613a0c82876134fd565b5116613a1882896134fd565b51893b156103995760408051638c80d4e560e01b81526001600160a01b038e8116600483015293909316602484015260448301919091525f82606481838e5af1908115613a8057509060019291613a71575b50016139df565b613a7a906130d9565b5f613a6a565b513d5f823e3d90fd5b60e460405162461bcd60e51b8152602060048201527f73742062652073616d652061646472657373206173207374616b65722069662060848060248401527f44656c65676174696f6e4d616e616765722e5f72656d6f76655368617265734160448401527f6e6451756575655769746864726177616c3a2077697468647261776572206d7560648401528201527f746869726450617274795472616e7366657273466f7262696464656e2061726560a482015263081cd95d60e21b60c4820152fd5b5085613b5782876134fd565b5160408051639b4da03d60e01b815292909116600483015290602080826024818e5afa928315613a8057505f92613b91575b5050156139fc565b90809250813d8311613bc0575b613ba88183613107565b8101031261039957613bb9906135f8565b5f80613b89565b503d613b9e565b613bea86613bd583886134fd565b5116613be1838a6134fd565b51908c85614453565b6139f0565b50919493909697507f9009ab153e8014fbfb02f2217f5cde7aa7f9ad734ae85ca3ee3f4ca2fdd499f99550845f52606e60205260409681885f2093845494613c368661375c565b9055895197613c44896130be565b88521660208701521686850152606084015263ffffffff4316608084015260a083015260c0820152613c758161373f565b92835f52606d602052805f20600160ff19825416179055613ca581519283928684528060208501528301906136d1565b0390a190565b60405162461bcd60e51b815260206004820152604d60248201527f44656c65676174696f6e4d616e616765722e5f72656d6f76655368617265734160448201527f6e6451756575655769746864726177616c3a207374726174656769657320636160648201526c6e6e6f7420626520656d70747960981b608482015260a490fd5b60405162461bcd60e51b815260206004820152605060248201527f44656c65676174696f6e4d616e616765722e5f72656d6f76655368617265734160448201527f6e6451756575655769746864726177616c3a207374616b65722063616e6e6f7460648201526f206265207a65726f206164647265737360801b608482015260a490fd5b3563ffffffff811681036103995790565b6004356001600160a01b038181169291839003610399578215613fcd5760443563ffffffff80821693848303610399576213c6808511613f2757831690815f526068602052600160405f20015460a01c168410613ea0575f526068602052600160405f20856001600160601b0360a01b8254161781550190602435928316809303610399578282549163ffffffff60a01b9060a01b16916001600160401b0360c01b1617179055604051928352602083015260408201527ffebe5cd24b2cbc7b065b9d0fdeb904461e4afcff57dd57acda1e7832031ba7ac60603392a2565b60405162461bcd60e51b815260206004820152605360248201527f44656c65676174696f6e4d616e616765722e5f7365744f70657261746f72446560448201527f7461696c733a207374616b65724f70744f757457696e646f77426c6f636b732060648201527218d85b9b9bdd08189948191958dc99585cd959606a1b608482015260a490fd5b60405162461bcd60e51b815260206004820152606c60248201527f44656c65676174696f6e4d616e616765722e5f7365744f70657261746f72446560448201527f7461696c733a207374616b65724f70744f757457696e646f77426c6f636b732060648201527f63616e6e6f74206265203e204d41585f5354414b45525f4f50545f4f55545f5760848201526b494e444f575f424c4f434b5360a01b60a482015260c490fd5b60405162461bcd60e51b815260206004820152605460248201527f44656c65676174696f6e4d616e616765722e5f7365744f70657261746f72446560448201527f7461696c733a2063616e6e6f742073657420606561726e696e677352656365696064820152737665726020746f207a65726f206164647265737360601b608482015260a490fd5b6001600160a01b038082165f90815260696020526040902054949594919392911661430c576001600160a01b038082165f9081526068602052604090205416156142935760018060a01b0392838216805f526020606881526001946040988760018b5f200154169081151580614289575b8061427f575b614171575b50505085969760698697851692835f52525f20826001600160601b0360a01b8254161790557fc3ee9f2e5fda98e8066a1f745b2df9285f416fe98cf2559cd21484b3d87433045f80a3614123816137fa565b91905f945b614136575b50505050505050565b805185101561416c578585614165896141508499866134fd565b511661415c83886134fd565b519086896148c9565b0194614128565b61412d565b8383018051421161422e57825f52606b85528b5f20825f52855260ff8c5f2054166141dd5782899a9b9c94926141ca926141d3955f52606b8852865f20825f528852865f20600160ff1982541617905551918a8a6133c4565b90519086614a29565b9796955f806140d1565b8b5162461bcd60e51b815260048101869052603760248201525f80516020614e118339815191526044820152761c9bdd995c94d85b1d08185b1c9958591e481cdc195b9d604a1b6064820152608490fd5b8b5162461bcd60e51b815260048101869052603760248201525f80516020614e118339815191526044820152761c9bdd995c881cda59db985d1d5c9948195e1c1a5c9959604a1b6064820152608490fd5b50843314156140cc565b50813314156140c6565b60405162461bcd60e51b815260206004820152604560248201527f44656c65676174696f6e4d616e616765722e5f64656c65676174653a206f706560448201527f7261746f72206973206e6f74207265676973746572656420696e204d616e74616064820152642630bcb2b960d91b608482015260a490fd5b60405162461bcd60e51b815260206004820152604160248201527f44656c65676174696f6e4d616e616765722e5f64656c65676174653a2073746160448201527f6b657220697320616c7265616479206163746976656c792064656c65676174656064820152601960fa1b608482015260a490fd5b6001600160a01b039081169081156143d6577f6e9fcd539896fca60e8b0f01dd580233e48a6b0f7df013b89ba7f565869acdb660405f549281519084168152846020820152a16001600160a01b031916175f55565b60405162461bcd60e51b815260206004820152604960248201527f5061757361626c652e5f73657450617573657252656769737472793a206e657760448201527f50617573657252656769737472792063616e6e6f7420626520746865207a65726064820152686f206164647265737360b81b608482015260a490fd5b92919060018060a01b0380941693845f52606760205260405f209083165f5260205260405f2080549380850394851161376a57939055604080516001600160a01b0392831681529290911660208301528101919091527f6909600037b75d7b4733aedd815442b5ec018a827751c832aaff64eba5d6d2dd9080606081015b0390a2565b5f80516020614db1833981519152546001600160a01b031633036144f657565b60405163118cdaa760e01b8152336004820152602490fd5b91909183830361465c575f5b838110614528575050505050565b6001600160a01b0361453e6106fd83878661338c565b16805f5260706020818152604090815f20549061455c868b8a61338c565b359362034bc085116145b0579285927f0e7efa738e8b0ce6376a0c1af471655540d2e9a81647d7b09ed823018426576d9592606095600199985f52815283835f20558251948552840152820152a10161451a565b835162461bcd60e51b815260048101839052607360248201527f44656c65676174696f6e4d616e616765722e5f7365745374726174656779576960448201527f746864726177616c44656c6179426c6f636b733a205f7769746864726177616c60648201527f44656c6179426c6f636b732063616e6e6f74206265203e204d41585f5749544860848201527244524157414c5f44454c41595f424c4f434b5360681b60a482015260c490fd5b60405162461bcd60e51b815260206004820152604a60248201527f44656c65676174696f6e4d616e616765722e5f7365745374726174656779576960448201527f746864726177616c44656c6179426c6f636b733a20696e707574206c656e67746064820152690d040dad2e6dac2e8c6d60b31b608482015260a490fd5b6926b0b73a30a630bcb2b960b11b60206040516146f6816130a3565b600a8152015260405160208101907f8cad95687ba82c2ce50e74f7b754645e5117c3a5bec8151c0726d5857980a86682527fdeb8ada69f89928b9d9833a89a4f75e138be5bec4c5edb30b367aaa62f32d79a60408201524660608201523060808201526080815260a081018181106001600160401b03821117610ca05760405251902090565b5f80516020614db183398151915280546001600160a01b039283166001600160a01b0319821681179092559091167f8be0079c531659141344cd1fd0a4f28419497f9722a3daafe3b4186f6b6457e05f80a3565b62034bc08111614811577fafa003cd76f87ff9d62b35beea889920f33c0c42b8d45b74954d61d50f4b6b696040606c548151908152836020820152a1606c55565b60405162461bcd60e51b815260206004820152607160248201527f44656c65676174696f6e4d616e616765722e5f7365744d696e5769746864726160448201527f77616c44656c6179426c6f636b733a205f6d696e5769746864726177616c446560648201527f6c6179426c6f636b732063616e6e6f74206265203e204d41585f5749544844526084820152704157414c5f44454c41595f424c4f434b5360781b60a482015260c490fd5b9190820180921161376a57565b92906144d17f1ec042c965e2edd7107b51188ee0f383e22e76179041ab3a9d18ff151405166c939260018060a01b0380961695865f52606760205260405f209085165f5260205260405f2061491f8282546148bc565b9055604080516001600160a01b0394851681529490931660208501529183019190915281906060820190565b7f9b779b17422d0df92223018b32b4d1fa46e071723d6817e2486d003becc55f00600281541461497b5760029055565b604051633ee5aeb560e01b8152600490fd5b1561499457565b60405162461bcd60e51b815260206004820152606e60248201525f80516020614dd183398151915260448201527f645769746864726177616c3a207769746864726177616c44656c6179426c6f6360648201527f6b7320706572696f6420686173206e6f74207965742070617373656420666f7260848201526d207468697320737472617465677960901b60a482015260c490fd5b909190803b15614b8b576040518092630b135d3f60e11b948583526004830152604060248301528051908160448401525f5b828110614b735750509181606481855f8360209884010152601f8019910116810103019160018060a01b03165afa90811561038e575f91614b30575b506001600160e01b03191603614aa957565b60405162461bcd60e51b815260206004820152605360248201527f454950313237315369676e61747572655574696c732e636865636b5369676e6160448201527f747572655f454950313237313a2045524331323731207369676e6174757265206064820152721d995c9a599a58d85d1a5bdb8819985a5b1959606a1b608482015260a490fd5b90506020813d602011614b6b575b81614b4b60209383613107565b8101031261039957516001600160e01b031981168103610399575f614a97565b3d9150614b3e565b60208282018101516064888401015286945001614a5b565b90614bd990614be29360405160208101917f19457468657265756d205369676e6564204d6573736167653a0a3332000000008352603c820152603c8152614bd1816130ec565b519020614c71565b90939193614cab565b6001600160a01b03908116911603614bf657565b60405162461bcd60e51b815260206004820152604760248201527f454950313237315369676e61747572655574696c732e636865636b5369676e6160448201527f747572655f454950313237313a207369676e6174757265206e6f742066726f6d6064820152661039b4b3b732b960c91b608482015260a490fd5b8151919060418303614ca157614c9a9250602082015190606060408401519301515f1a90614d2e565b9192909190565b50505f9160029190565b6004811015614d1a5780614cbd575050565b60018103614cd75760405163f645eedf60e01b8152600490fd5b60028103614cf85760405163fce698f760e01b815260048101839052602490fd5b600314614d025750565b602490604051906335e2f38360e21b82526004820152fd5b634e487b7160e01b5f52602160045260245ffd5b91907f7fffffffffffffffffffffffffffffff5d576e7357a4501ddfe92f46681b20a08411614da5579160209360809260ff5f9560405194855216868401526040830152606082015282805260015afa1561038e575f516001600160a01b03811615614d9b57905f905f90565b505f906001905f90565b5050505f916003919056fe9016d09d72d40fdae2fd8ceac6b6234c7706214fd39c1cd1e609a0528c19930044656c65676174696f6e4d616e616765722e5f636f6d706c657465517565756593ebc1e92f873ffadc1224b4550b3d177e36562df0ab9ef605389e9e793a1aa744656c65676174696f6e4d616e616765722e5f64656c65676174653a20617070a2646970667358221220aa1e9abf1f3adb60b89c7dd81a18334caea8fab2258148fcfbbb41b530480d6d64736f6c63430008180033","linkReferences":{}},"methodIdentifiers":{"DELEGATION_APPROVAL_TYPEHASH()":"04a4f979","DOMAIN_TYPEHASH()":"20606b70","MAX_STAKER_OPT_OUT_WINDOW_BLOCKS()":"4fc40b61","MAX_WITHDRAWAL_DELAY_BLOCKS()":"ca661c04","STAKER_DELEGATION_TYPEHASH()":"43377382","calculateCurrentStakerDelegationDigestHash(address,address,uint256)":"1bbce091","calculateDelegationApprovalDigestHash(address,address,address,bytes32,uint256)":"0b9f487a","calculateStakerDelegationDigestHash(address,uint256,address,uint256)":"c94b5111","calculateWithdrawalRoot((address,address,address,uint256,uint32,address[],uint256[]))":"597b36da","completeQueuedWithdrawal((address,address,address,uint256,uint32,address[],uint256[]),address,uint256,bool)":"6f8c9884","completeQueuedWithdrawals((address,address,address,uint256,uint32,address[],uint256[])[],address,uint256[],bool[])":"e92ae726","cumulativeWithdrawalsQueued(address)":"a1788484","decreaseDelegatedShares(address,address,uint256)":"132d4967","delegateTo(address,(bytes,uint256),bytes32)":"eea9064b","delegateToBySignature(address,address,(bytes,uint256),(bytes,uint256),bytes32)":"7f548071","delegatedTo(address)":"65da1264","delegationApprover(address)":"3cdeb5e0","delegationApproverSaltIsSpent(address,bytes32)":"bb45fef2","domainSeparator()":"f698da25","earningsReceiver(address)":"5f966f14","getDelegatableShares(address)":"cf80873e","getOperatorShares(address,address[])":"90041347","getWithdrawalDelay(address[])":"0449ca39","increaseDelegatedShares(address,address,uint256)":"28a573ae","initialize(address,address,uint256,uint256,address[],uint256[])":"22bf40e4","isDelegated(address)":"3e28391d","isOperator(address)":"6d70f7ae","migrateQueuedWithdrawals((address[],uint256[],address,(address,uint96),uint32,address)[])":"5cfe8d2c","minWithdrawalDelayBlocks()":"c448feb8","modifyOperatorDetails((address,address,uint32))":"f16172b0","operatorDetails(address)":"c5e480db","operatorShares(address,address)":"778e55f3","owner()":"8da5cb5b","pause(uint256)":"136439dd","pauseAll()":"595c6a67","paused()":"5c975abb","paused(uint8)":"5ac86ab7","pauserRegistry()":"886f1195","pendingWithdrawals(bytes32)":"b7f06ebe","queueWithdrawals((address[],uint256[],address)[])":"0dd8dd02","registerAsOperator((address,address,uint32),string)":"0f589e59","renounceOwnership()":"715018a6","setMinWithdrawalDelayBlocks(uint256)":"635bbd10","setPauserRegistry(address)":"10d67a2f","setStrategyWithdrawalDelayBlocks(address[],uint256[])":"1522bf02","stakerNonce(address)":"29c77d4f","stakerOptOutWindowBlocks(address)":"16928365","strategyManager()":"39b70e38","strategyWithdrawalDelayBlocks(address)":"c488375a","transferOwnership(address)":"f2fde38b","undelegate(address)":"da8be864","unpause(uint256)":"fabc1cbc","updateOperatorNodeUrl(string)":"1c8392d7"},"id":53}