{"abi":[{"type":"constructor","inputs":[{"name":"_delegation","type":"address","internalType":"contract IDelegationManager"}],"stateMutability":"nonpayable"},{"type":"function","name":"DEPOSIT_TYPEHASH","inputs":[],"outputs":[{"name":"","type":"bytes32","internalType":"bytes32"}],"stateMutability":"view"},{"type":"function","name":"DOMAIN_TYPEHASH","inputs":[],"outputs":[{"name":"","type":"bytes32","internalType":"bytes32"}],"stateMutability":"view"},{"type":"function","name":"addShares","inputs":[{"name":"staker","type":"address","internalType":"address"},{"name":"mantaToken","type":"address","internalType":"contract IERC20"},{"name":"strategy","type":"address","internalType":"contract IStrategyBase"},{"name":"shares","type":"uint256","internalType":"uint256"}],"outputs":[],"stateMutability":"nonpayable"},{"type":"function","name":"addStrategiesToDepositWhitelist","inputs":[{"name":"strategiesToWhitelist","type":"address[]","internalType":"contract IStrategyBase[]"},{"name":"thirdPartyTransfersForbiddenValues","type":"bool[]","internalType":"bool[]"}],"outputs":[],"stateMutability":"nonpayable"},{"type":"function","name":"calculateWithdrawalRoot","inputs":[{"name":"queuedWithdrawal","type":"tuple","internalType":"struct IStrategyManager.DeprecatedStruct_QueuedWithdrawal","components":[{"name":"strategies","type":"address[]","internalType":"contract IStrategyBase[]"},{"name":"shares","type":"uint256[]","internalType":"uint256[]"},{"name":"staker","type":"address","internalType":"address"},{"name":"withdrawerAndNonce","type":"tuple","internalType":"struct IStrategyManager.DeprecatedStruct_WithdrawerAndNonce","components":[{"name":"withdrawer","type":"address","internalType":"address"},{"name":"nonce","type":"uint96","internalType":"uint96"}]},{"name":"withdrawalStartBlock","type":"uint32","internalType":"uint32"},{"name":"delegatedAddress","type":"address","internalType":"address"}]}],"outputs":[{"name":"","type":"bytes32","internalType":"bytes32"}],"stateMutability":"pure"},{"type":"function","name":"delegation","inputs":[],"outputs":[{"name":"","type":"address","internalType":"contract IDelegationManager"}],"stateMutability":"view"},{"type":"function","name":"depositIntoStrategy","inputs":[{"name":"strategy","type":"address","internalType":"contract IStrategyBase"},{"name":"tokenAddress","type":"address","internalType":"contract IERC20"},{"name":"amount","type":"uint256","internalType":"uint256"}],"outputs":[{"name":"shares","type":"uint256","internalType":"uint256"}],"stateMutability":"nonpayable"},{"type":"function","name":"depositIntoStrategyWithSignature","inputs":[{"name":"strategy","type":"address","internalType":"contract IStrategyBase"},{"name":"tokenAddress","type":"address","internalType":"contract IERC20"},{"name":"amount","type":"uint256","internalType":"uint256"},{"name":"staker","type":"address","internalType":"address"},{"name":"expiry","type":"uint256","internalType":"uint256"},{"name":"signature","type":"bytes","internalType":"bytes"}],"outputs":[{"name":"shares","type":"uint256","internalType":"uint256"}],"stateMutability":"nonpayable"},{"type":"function","name":"domainSeparator","inputs":[],"outputs":[{"name":"","type":"bytes32","internalType":"bytes32"}],"stateMutability":"view"},{"type":"function","name":"getDeposits","inputs":[{"name":"staker","type":"address","internalType":"address"}],"outputs":[{"name":"","type":"address[]","internalType":"contract IStrategyBase[]"},{"name":"","type":"uint256[]","internalType":"uint256[]"}],"stateMutability":"view"},{"type":"function","name":"getStakerStrategyShares","inputs":[{"name":"user","type":"address","internalType":"address"},{"name":"strategy","type":"address","internalType":"contract IStrategyBase"}],"outputs":[{"name":"shares","type":"uint256","internalType":"uint256"}],"stateMutability":"view"},{"type":"function","name":"initialize","inputs":[{"name":"initialOwner","type":"address","internalType":"address"},{"name":"initialStrategyWhitelister","type":"address","internalType":"address"}],"outputs":[],"stateMutability":"nonpayable"},{"type":"function","name":"migrateQueuedWithdrawal","inputs":[{"name":"queuedWithdrawal","type":"tuple","internalType":"struct IStrategyManager.DeprecatedStruct_QueuedWithdrawal","components":[{"name":"strategies","type":"address[]","internalType":"contract IStrategyBase[]"},{"name":"shares","type":"uint256[]","internalType":"uint256[]"},{"name":"staker","type":"address","internalType":"address"},{"name":"withdrawerAndNonce","type":"tuple","internalType":"struct IStrategyManager.DeprecatedStruct_WithdrawerAndNonce","components":[{"name":"withdrawer","type":"address","internalType":"address"},{"name":"nonce","type":"uint96","internalType":"uint96"}]},{"name":"withdrawalStartBlock","type":"uint32","internalType":"uint32"},{"name":"delegatedAddress","type":"address","internalType":"address"}]}],"outputs":[{"name":"","type":"bool","internalType":"bool"},{"name":"","type":"bytes32","internalType":"bytes32"}],"stateMutability":"nonpayable"},{"type":"function","name":"nonces","inputs":[{"name":"","type":"address","internalType":"address"}],"outputs":[{"name":"","type":"uint256","internalType":"uint256"}],"stateMutability":"view"},{"type":"function","name":"owner","inputs":[],"outputs":[{"name":"","type":"address","internalType":"address"}],"stateMutability":"view"},{"type":"function","name":"removeShares","inputs":[{"name":"staker","type":"address","internalType":"address"},{"name":"strategy","type":"address","internalType":"contract IStrategyBase"},{"name":"shares","type":"uint256","internalType":"uint256"}],"outputs":[],"stateMutability":"nonpayable"},{"type":"function","name":"removeStrategiesFromDepositWhitelist","inputs":[{"name":"strategiesToRemoveFromWhitelist","type":"address[]","internalType":"contract IStrategyBase[]"}],"outputs":[],"stateMutability":"nonpayable"},{"type":"function","name":"renounceOwnership","inputs":[],"outputs":[],"stateMutability":"nonpayable"},{"type":"function","name":"setStrategyWhitelister","inputs":[{"name":"newStrategyWhitelister","type":"address","internalType":"address"}],"outputs":[],"stateMutability":"nonpayable"},{"type":"function","name":"stakerStrategyList","inputs":[{"name":"","type":"address","internalType":"address"},{"name":"","type":"uint256","internalType":"uint256"}],"outputs":[{"name":"","type":"address","internalType":"contract IStrategyBase"}],"stateMutability":"view"},{"type":"function","name":"stakerStrategyListLength","inputs":[{"name":"staker","type":"address","internalType":"address"}],"outputs":[{"name":"","type":"uint256","internalType":"uint256"}],"stateMutability":"view"},{"type":"function","name":"stakerStrategyShares","inputs":[{"name":"","type":"address","internalType":"address"},{"name":"","type":"address","internalType":"contract IStrategyBase"}],"outputs":[{"name":"","type":"uint256","internalType":"uint256"}],"stateMutability":"view"},{"type":"function","name":"strategyIsWhitelistedForDeposit","inputs":[{"name":"","type":"address","internalType":"contract IStrategyBase"}],"outputs":[{"name":"","type":"bool","internalType":"bool"}],"stateMutability":"view"},{"type":"function","name":"strategyWhitelister","inputs":[],"outputs":[{"name":"","type":"address","internalType":"address"}],"stateMutability":"view"},{"type":"function","name":"thirdPartyTransfersForbidden","inputs":[{"name":"","type":"address","internalType":"contract IStrategyBase"}],"outputs":[{"name":"","type":"bool","internalType":"bool"}],"stateMutability":"view"},{"type":"function","name":"transferOwnership","inputs":[{"name":"newOwner","type":"address","internalType":"address"}],"outputs":[],"stateMutability":"nonpayable"},{"type":"function","name":"withdrawSharesAsTokens","inputs":[{"name":"recipient","type":"address","internalType":"address"},{"name":"strategy","type":"address","internalType":"contract IStrategyBase"},{"name":"shares","type":"uint256","internalType":"uint256"},{"name":"tokenAddress","type":"address","internalType":"contract IERC20"}],"outputs":[],"stateMutability":"nonpayable"},{"type":"function","name":"withdrawalRootPending","inputs":[{"name":"","type":"bytes32","internalType":"bytes32"}],"outputs":[{"name":"","type":"bool","internalType":"bool"}],"stateMutability":"view"},{"type":"event","name":"Deposit","inputs":[{"name":"staker","type":"address","indexed":false,"internalType":"address"},{"name":"mantaToken","type":"address","indexed":false,"internalType":"contract IERC20"},{"name":"strategy","type":"address","indexed":false,"internalType":"contract IStrategyBase"},{"name":"shares","type":"uint256","indexed":false,"internalType":"uint256"}],"anonymous":false},{"type":"event","name":"Initialized","inputs":[{"name":"version","type":"uint64","indexed":false,"internalType":"uint64"}],"anonymous":false},{"type":"event","name":"OwnershipTransferred","inputs":[{"name":"previousOwner","type":"address","indexed":true,"internalType":"address"},{"name":"newOwner","type":"address","indexed":true,"internalType":"address"}],"anonymous":false},{"type":"event","name":"StrategyAddedToDepositWhitelist","inputs":[{"name":"strategy","type":"address","indexed":false,"internalType":"contract IStrategyBase"}],"anonymous":false},{"type":"event","name":"StrategyRemovedFromDepositWhitelist","inputs":[{"name":"strategy","type":"address","indexed":false,"internalType":"contract IStrategyBase"}],"anonymous":false},{"type":"event","name":"StrategyWhitelisterChanged","inputs":[{"name":"previousAddress","type":"address","indexed":false,"internalType":"address"},{"name":"newAddress","type":"address","indexed":false,"internalType":"address"}],"anonymous":false},{"type":"event","name":"UpdatedThirdPartyTransfersForbidden","inputs":[{"name":"strategy","type":"address","indexed":false,"internalType":"contract IStrategyBase"},{"name":"value","type":"bool","indexed":false,"internalType":"bool"}],"anonymous":false},{"type":"error","name":"AddressEmptyCode","inputs":[{"name":"target","type":"address","internalType":"address"}]},{"type":"error","name":"AddressInsufficientBalance","inputs":[{"name":"account","type":"address","internalType":"address"}]},{"type":"error","name":"ECDSAInvalidSignature","inputs":[]},{"type":"error","name":"ECDSAInvalidSignatureLength","inputs":[{"name":"length","type":"uint256","internalType":"uint256"}]},{"type":"error","name":"ECDSAInvalidSignatureS","inputs":[{"name":"s","type":"bytes32","internalType":"bytes32"}]},{"type":"error","name":"FailedInnerCall","inputs":[]},{"type":"error","name":"InvalidInitialization","inputs":[]},{"type":"error","name":"NotInitializing","inputs":[]},{"type":"error","name":"OwnableInvalidOwner","inputs":[{"name":"owner","type":"address","internalType":"address"}]},{"type":"error","name":"OwnableUnauthorizedAccount","inputs":[{"name":"account","type":"address","internalType":"address"}]},{"type":"error","name":"ReentrancyGuardReentrantCall","inputs":[]},{"type":"error","name":"SafeERC20FailedOperation","inputs":[{"name":"token","type":"address","internalType":"address"}]}],"bytecode":{"object":"0x60c03462000132576001600160401b0390601f6200243f38819003918201601f19168301918483118484101762000136578084926020946040528339810103126200013257516001600160a01b038116810362000132576080527ff0c57e16840df040f15088dc2f81fe391c3923bec73e23a9662efc9c229c6a009081549060ff8260401c1662000120578080831603620000da575b6040516122f490816200014b8239608051818181610251015281816104ba015281816105e8015281816106af01528181610a50015261190e015260a051816117b10152f35b6001600160401b031990911681179091556040519081527fc7f505b2f371ae2175ee4913f4499e1f2633a7b5936321eed1cdaeb6115181d290602090a15f808062000095565b60405163f92ee8a960e01b8152600490fd5b5f80fd5b634e487b7160e01b5f52604160045260245ffdfe6080604081815260049182361015610015575f80fd5b5f925f3560e01c91826320606b701461125d5750816332e89ace14610d52578163485cc95514610c1c57816348825e9414610be25781635bd5cbfc14610af5578163663c1de414610ba6578163715018a614610b3f5781637a7e0d9214610af55781637ecebe0014610abe5781638b8aac3c14610a875781638c80d4e514610a265781638da5cb5b146109f257816394f649dd146108b7578163967fc0d21461088f5781639b4da03d14610853578163b43b514b1461083e578163b5d8b5b81461070b578163c3c6b3a9146106df578163c4623ea11461066e578163c608c7f3146105aa578163c665670214610580578163cbc2bd6214610527578163cd293f6f146104a1578163df5b354714610280578163df5cf7231461023c578163e7a050aa146101d6578163f2fde38b1461017c575063f698da2514610156575f80fd5b346101785781600319360112610178576020906101716117ae565b9051908152f35b5080fd5b9050346101d25760203660031901126101d257610197611295565b916101a0611ba5565b6001600160a01b038316156101bc57836101b984611b03565b80f35b51631e4fbdf760e01b8152908101839052602490fd5b8280fd5b505034610178576060366003190112610178576020906102116101f7611295565b6101ff6112ab565b6102076117e5565b6044359133611827565b9060017f9b779b17422d0df92223018b32b4d1fa46e071723d6817e2486d003becc55f005551908152f35b505034610178578160031936011261017857517f00000000000000000000000000000000000000000000000000000000000000006001600160a01b03168152602090f35b9050346101d257816003193601126101d25767ffffffffffffffff91813583811161049d576102b290369084016115c8565b919093602435908111610499576102cc90369085016115c8565b6002546001600160a01b0395929392906102e9908716331461170c565b81850361041c5750865b8481106102fe578780f35b8561031261030d83888b61178a565b61179a565b1688526008908760209280845287868c60ff938c85848420541615610343575b5050505050505060019150016102f3565b8489946103989461030d948b9461037f61030d877f0c35b17d91c96eb2751cd456e1252f42a386e524ef9ff26ecc9950859fdc04fe9c8f61178a565b1682528752209760ff199860018a82541617905561178a565b8b895191168152a16103ae61030d848a8d61178a565b906103ba84878a61178a565b359182151580930361041857600195600a917f77d930df4937793473a95024d87a98fd2ccb9e92d3c2463b3dacd65d3e6a57868a8e81519316928381528785820152a15f5252865f20928354169116179055875f87868c838c610332565b8c80fd5b60a490602084519162461bcd60e51b8352820152604b60248201527f53747261746567794d616e616765722e61646453747261746567696573546f4460448201527f65706f73697457686974656c6973743a206172726179206c656e67746873206460648201526a0de40dcdee840dac2e8c6d60ab1b6084820152fd5b8580fd5b8480fd5b828434610524576104ed6104b436611410565b6104e8337f00000000000000000000000000000000000000000000000000000000000000006001600160a01b031614611622565b611666565b8282828152600660205220805460ff8116610513575b5050825191151582526020820152f35b60ff19169055600191508380610503565b80fd5b505034610178578060031936011261017857610541611295565b6001600160a01b0390811683526005602052818320805460243594908510156105245750602093610571916115f9565b92905490519260031b1c168152f35b8334610524576020366003190112610524576101b961059d611295565b6105a5611ba5565b611b57565b9190503461066a57608036600319011261066a576105c6611295565b6105ce6112ab565b6105d66112d5565b916001600160a01b0391829061060f337f0000000000000000000000000000000000000000000000000000000000000000841614611622565b1690813b1561066a575f6064928482968851998a978896636ce5768960e11b8852169086015216602484015260443560448401525af19081156106615750610655575080f35b61065f91506112eb565b005b513d5f823e3d90fd5b5f80fd5b3461066a57608036600319011261066a57610687611295565b61068f6112ab565b6001600160a01b03919060443590838216820361066a576106d661065f947f0000000000000000000000000000000000000000000000000000000000000000163314611622565b60643592611ea8565b823461066a57602036600319011261066a57602091355f526006825260ff815f20541690519015158152f35b90503461066a576020908160031936011261066a5780359067ffffffffffffffff821161066a5761073e913691016115c8565b6002546001600160a01b03949190610759908616331461170c565b5f5b81811061076457005b808661077661030d600194868961178a565b165f52600880875260ff855f205416610791575b500161075b565b876107a061030d84878a61178a565b165f528652835f2060ff19908181541690557f4074413b4b443e4e58019f2855a8765113358c7c72e39509c6af45fc0f5ba030876107e261030d85888b61178a565b8a885191168152a16107f861030d83868961178a565b7f77d930df4937793473a95024d87a98fd2ccb9e92d3c2463b3dacd65d3e6a5786868a81519316928381525f8b820152a15f52600a8752845f209081541690558761078a565b823461066a576020906101716104e836611410565b823461066a57602036600319011261066a576020906001600160a01b03610878611295565b165f52600a825260ff815f20541690519015158152f35b823461066a575f36600319011261066a5760025490516001600160a01b039091168152602090f35b90503461066a576020918260031936011261066a576001600160a01b039083826108df611295565b16805f526005808352835f20546108f5816113f8565b966109028651988961134b565b818852601f19610911836113f8565b0136868a01375f5b82811061099757505050505f5260058152815f2093825193848387549182815201965f52835f20905f5b81811061098157878761097d888861095d858f038661134b565b6109708451958587968752860190611389565b91848303908501526113c5565b0390f35b8254841689529785019760019283019201610943565b845f99989952818652865f20848752896109b3838a5f206115f9565b90549060031b1c165f528652865f205488518210156109df5781851b8901870152969796600101610919565b603283634e487b7160e01b5f525260245ffd5b823461066a575f36600319011261066a575f8051602061229f8339815191525490516001600160a01b039091168152602090f35b3461066a57606036600319011261066a5761065f610a42611295565b610a4a6112ab565b610a7e337f00000000000000000000000000000000000000000000000000000000000000006001600160a01b031614611622565b60443591611bdd565b823461066a57602036600319011261066a576020906001600160a01b03610aac611295565b165f5260058252805f20549051908152f35b823461066a57602036600319011261066a576020906001600160a01b03610ae3611295565b165f5260018252805f20549051908152f35b823461066a578060031936011261066a57602091610b11611295565b610b196112ab565b6001600160a01b039182165f908152928552838320911682528352819020549051908152f35b3461066a575f36600319011261066a57610b57611ba5565b5f8051602061229f83398151915280546001600160a01b031981169091555f906001600160a01b03167f8be0079c531659141344cd1fd0a4f28419497f9722a3daafe3b4186f6b6457e08280a3005b823461066a57602036600319011261066a576020906001600160a01b03610bcb611295565b165f526008825260ff815f20541690519015158152f35b823461066a575f36600319011261066a57602090517f5ae595116949b1fee2743931d6247721100864ec2fba3ecd7fdd59be090c89d98152f35b90503461066a578160031936011261066a57610c36611295565b90610c3f6112ab565b7ff0c57e16840df040f15088dc2f81fe391c3923bec73e23a9662efc9c229c6a0092835460ff81871c16159367ffffffffffffffff821680159081610d4a575b6001149081610d40575b159081610d37575b50610d29575067ffffffffffffffff1981166001178555610cc792916105a59185610d0a575b50610cc0611a77565b5f55611b03565b610ccd57005b805468ff00000000000000001916905551600181527fc7f505b2f371ae2175ee4913f4499e1f2633a7b5936321eed1cdaeb6115181d290602090a1005b68ffffffffffffffffff19166801000000000000000117865587610cb7565b865163f92ee8a960e01b8152fd5b90501588610c91565b303b159150610c89565b869150610c7f565b823461066a5760c036600319011261066a57610d6c611295565b90610d756112ab565b91604492833591610d846112d5565b9560a4359567ffffffffffffffff60843581891161066a573660238a01121561066a578884013590602492610db88361136d565b92610dc58b51948561134b565b80845260209b3686838301011161066a57815f92878f93018388013785010152610ded6117e5565b6001600160a01b038781165f818152600a8e528c90205491929160ff166111e05742841061116a578b8d8f851695865f5260018252825f205493878451938401947f5ae595116949b1fee2743931d6247721100864ec2fba3ecd7fdd59be090c89d986528401526060830152858d1660808301528d60a08301528360c083015260e082015260e08152610100810181811085821117611158578f949391928f936001949285935251902094875f5252018c5f20558c610eaa6117ae565b928d519182019361190160f01b8552602283015260428201526042815260808101928184108385111761114657838e52815190209594939291908f3b156110485750505050908a908a51928391630b135d3f60e11b95868452898401528c8784015280519081898501525f5b828110611030575050606483825f83839584010152601f801991011681010301915afa908115611026575f91610fe8575b506001600160e01b03191603610f6557505050610211939495611827565b865162461bcd60e51b81529283018890526053908301527f454950313237315369676e61747572655574696c732e636865636b5369676e61908201527f747572655f454950313237313a2045524331323731207369676e6174757265206064820152721d995c9a599a58d85d1a5bdb8819985a5b1959606a1b608482015260a490fd5b90508981813d831161101f575b610fff818361134b565b8101031261066a57516001600160e01b03198116810361066a578b610f47565b503d610ff5565b89513d5f823e3d90fd5b818101860151878201606401528f9587955001610f16565b8060a060e092989597969801947f19457468657265756d205369676e6564204d6573736167653a0a333200000000865260bc820152603c8452019082821090821117611134578c525190206110a9916110a0916120f1565b9092919261212b565b16036110bd57505050610211939495611827565b865162461bcd60e51b81529283018890526047908301527f454950313237315369676e61747572655574696c732e636865636b5369676e61908201527f747572655f454950313237313a207369676e6174757265206e6f742066726f6d6064820152661039b4b3b732b960c91b608482015260a490fd5b8660418a634e487b7160e01b5f52525ffd5b8760418b634e487b7160e01b5f52525ffd5b8860418c634e487b7160e01b5f52525ffd5b5050895162461bcd60e51b81528087018c90526043818601527f53747261746567794d616e616765722e6465706f736974496e746f5374726174818701527f656779576974685369676e61747572653a207369676e617475726520657870696064820152621c995960ea1b608482015260a49150fd5b5050895162461bcd60e51b81528087018c9052604a818601527f53747261746567794d616e616765722e6465706f736974496e746f5374726174818701527f656779576974685369676e61747572653a207468697264207472616e736665726064820152691cc8191a5cd8589b195960b21b608482015260a49150fd5b3461066a575f36600319011261066a57807f8cad95687ba82c2ce50e74f7b754645e5117c3a5bec8151c0726d5857980a86660209252f35b600435906001600160a01b038216820361066a57565b602435906001600160a01b038216820361066a57565b35906001600160a01b038216820361066a57565b606435906001600160a01b038216820361066a57565b67ffffffffffffffff81116112ff57604052565b634e487b7160e01b5f52604160045260245ffd5b6040810190811067ffffffffffffffff8211176112ff57604052565b60a0810190811067ffffffffffffffff8211176112ff57604052565b90601f8019910116810190811067ffffffffffffffff8211176112ff57604052565b67ffffffffffffffff81116112ff57601f01601f191660200190565b9081518082526020808093019301915f5b8281106113a8575050505090565b83516001600160a01b03168552938101939281019260010161139a565b9081518082526020808093019301915f5b8281106113e4575050505090565b8351855293810193928101926001016113d6565b67ffffffffffffffff81116112ff5760051b60200190565b600319906020828201811361066a576004359167ffffffffffffffff9384841161066a5760e08483039182011261066a5760409182519560c08701878110828211176112ff578452856004013581811161066a5786018260238201121561066a57600481013590611480826113f8565b9161148d8751938461134b565b80835260248884019160051b8301019185831161066a576024899101915b8383106115b057505050508752602486013590811161066a578501908060238301121561066a5760048201356114e0816113f8565b926114ed8651948561134b565b81845260248785019260051b82010192831161066a5790866024879695949301915b83831061159d5750915050870152611529604486016112c1565b86830152606319011261066a57519061154182611313565b61154d606484016112c1565b82526084830135906bffffffffffffffffffffffff8216820361066a57820152606083015260a481013563ffffffff8116810361066a5760808301526115959060c4016112c1565b60a082015290565b823581528796509181019188910161150f565b81906115bb846112c1565b81520191019088906114ab565b9181601f8401121561066a5782359167ffffffffffffffff831161066a576020808501948460051b01011161066a57565b805482101561160e575f5260205f2001905f90565b634e487b7160e01b5f52603260045260245ffd5b1561162957565b60405162461bcd60e51b815260206004820152601560248201527437b7363ca232b632b3b0ba34b7b726b0b730b3b2b960591b6044820152606490fd5b6116c761170660e092805160208201519160018060a01b0380604083015116916bffffffffffffffffffffffff602060608301518460a063ffffffff60808701511695015116946116da6040519b8c99858b019e8f526101008b0190611389565b601f199a8b8b83030160408c01526113c5565b966060890152815116608088015201511660a085015260c084015260e08301520390810183528261134b565b51902090565b1561171357565b60a460405162461bcd60e51b815260206004820152604460248201527f53747261746567794d616e616765722e6f6e6c7953747261746567795768697460448201527f656c69737465723a206e6f742074686520737472617465677957686974656c6960648201526339ba32b960e11b6084820152fd5b919081101561160e5760051b0190565b356001600160a01b038116810361066a5790565b467f0000000000000000000000000000000000000000000000000000000000000000036117da575f5490565b6117e2611a77565b90565b7f9b779b17422d0df92223018b32b4d1fa46e071723d6817e2486d003becc55f0060028154146118155760029055565b604051633ee5aeb560e01b8152600490fd5b9290919260018060a01b0380841693845f526020956008875260409460ff865f205416156119f7578551906118ba5f808b85016323b872dd60e01b81523360248701528b6044870152846064870152606486526118838661132f565b88871695519082875af13d156119ef573d9061189e8261136d565b916118ab8b51938461134b565b82523d5f8d84013e5b8461223b565b80518a81151591826119ce575b505090506119b6578651916311f9fbc960e21b83526004830152602482015287816044815f8b5af19788156119ac575f98611978575b505061190b91879185611ea8565b807f000000000000000000000000000000000000000000000000000000000000000016803b1561066a575f928360649286519788958694631452b9d760e11b865216600485015260248401528860448401525af1908115610661575061196f575090565b6117e2906112eb565b9080939850813d83116119a5575b611990818361134b565b8101031261066a5761190b915196915f6118fd565b503d611986565b86513d5f823e3d90fd5b8651635274afe760e01b815260048101839052602490fd5b838092935001031261066a5789015180159081150361066a57808a5f6118c7565b6060906118b4565b855162461bcd60e51b815260048101899052604d60248201527f53747261746567794d616e616765722e6f6e6c7953747261746567696573576860448201527f6974656c6973746564466f724465706f7369743a207374726174656779206e6f60648201526c1d081dda1a5d195b1a5cdd1959609a1b608482015260a490fd5b6926b0b73a30a630bcb2b960b11b6020604051611a9381611313565b600a8152015260405160208101907f8cad95687ba82c2ce50e74f7b754645e5117c3a5bec8151c0726d5857980a86682527fdeb8ada69f89928b9d9833a89a4f75e138be5bec4c5edb30b367aaa62f32d79a6040820152466060820152306080820152608081526117068161132f565b5f8051602061229f83398151915280546001600160a01b039283166001600160a01b0319821681179092559091167f8be0079c531659141344cd1fd0a4f28419497f9722a3daafe3b4186f6b6457e05f80a3565b6002547f4264275e593955ff9d6146a51a4525f6ddace2e81db9391abcc9d1ca48047d29604060018060a01b0381519481851686521693846020820152a16001600160a01b03191617600255565b5f8051602061229f833981519152546001600160a01b03163303611bc557565b60405163118cdaa760e01b8152336004820152602490fd5b90918015611e3d5760018060a01b0380921690815f5260049160209083825260409285845f20971696875f528352835f2054808211611dde57825f52858452845f20885f528452818103855f205514611c3a575050505050505f90565b9091929394815f526005808452845f2054915f915b838310611d20575b505014611ca657906005915f52525f20908154908115611c9357505f190191611c8083836115f9565b909182549160031b1b1916905555600190565b603190634e487b7160e01b5f525260245ffd5b50905162461bcd60e51b815291820152604960248201527f53747261746567794d616e616765722e5f72656d6f766553747261746567794660448201527f726f6d5374616b657253747261746567794c6973743a207374726174656779206064820152681b9bdd08199bdd5b9960ba1b608482015260a490fd5b9097969594939291835f528185528789611d3c83895f206115f9565b929054600393841b1c1614611d5e575060010197909791929394959697611c4f565b909293809596979899505f52818652865f208054905f198201918211611dcb5791611d8e8b92611dc495946115f9565b9054911b1c1690855f528652611da683885f206115f9565b90919060018060a01b038084549260031b9316831b921b1916179055565b5f80611c57565b60118a634e487b7160e01b5f525260245ffd5b845162461bcd60e51b8152808701859052603360248201527f53747261746567794d616e616765722e5f72656d6f76655368617265733a20736044820152720d0c2e4ca82dadeeadce840e8dede40d0d2ced606b1b6064820152608490fd5b60405162461bcd60e51b815260206004820152603e60248201527f53747261746567794d616e616765722e5f72656d6f76655368617265733a207360448201527f68617265416d6f756e742073686f756c64206e6f74206265207a65726f2100006064820152608490fd5b90926001600160a01b039291831691821561208657811561202257825f52602060048152604090815f209286811693845f528252825f205415611f56575b50845f5260048152815f20835f528152815f2095865497858901809911611f42577f7cfff908a4b583f36430b25d75964c458d8ede8a99bd61be750e97ee1b2f3a969860809855835196875216908501528301526060820152a1565b634e487b7160e01b5f52601160045260245ffd5b855f526005825281835f20541015611fa057855f5260058252825f2090815491680100000000000000008310156112ff5782611da6916001611f9a950181556115f9565b5f611ee6565b5060a491519062461bcd60e51b82526004820152605060248201527f53747261746567794d616e616765722e5f6164645368617265733a206465706f60448201527f73697420776f756c6420657863656564204d41585f5354414b45525f5354524160648201526f0a88a8eb2be9892a6a8be988a9c8ea8960831b6084820152fd5b60405162461bcd60e51b815260206004820152603660248201527f53747261746567794d616e616765722e5f6164645368617265733a207368617260448201527565732073686f756c64206e6f74206265207a65726f2160501b6064820152608490fd5b60405162461bcd60e51b815260206004820152603960248201527f53747261746567794d616e616765722e5f6164645368617265733a207374616b60448201527f65722063616e6e6f74206265207a65726f2061646472657373000000000000006064820152608490fd5b81519190604183036121215761211a9250602082015190606060408401519301515f1a906121ae565b9192909190565b50505f9160029190565b600481101561219a578061213d575050565b600181036121575760405163f645eedf60e01b8152600490fd5b600281036121785760405163fce698f760e01b815260048101839052602490fd5b6003146121825750565b602490604051906335e2f38360e21b82526004820152fd5b634e487b7160e01b5f52602160045260245ffd5b91907f7fffffffffffffffffffffffffffffff5d576e7357a4501ddfe92f46681b20a08411612230579160209360809260ff5f9560405194855216868401526040830152606082015282805260015afa15612225575f516001600160a01b0381161561221b57905f905f90565b505f906001905f90565b6040513d5f823e3d90fd5b5050505f9160039190565b90612262575080511561225057805190602001fd5b604051630a12f52160e11b8152600490fd5b81511580612295575b612273575090565b604051639996b31560e01b81526001600160a01b039091166004820152602490fd5b50803b1561226b56fe9016d09d72d40fdae2fd8ceac6b6234c7706214fd39c1cd1e609a0528c199300a2646970667358221220640a3b7b7ae7031bfed087cf86623096682c0541ca239b2f32db6fc9591b1a4664736f6c63430008180033","linkReferences":{}},"methodIdentifiers":{"DEPOSIT_TYPEHASH()":"48825e94","DOMAIN_TYPEHASH()":"20606b70","addShares(address,address,address,uint256)":"c4623ea1","addStrategiesToDepositWhitelist(address[],bool[])":"df5b3547","calculateWithdrawalRoot((address[],uint256[],address,(address,uint96),uint32,address))":"b43b514b","delegation()":"df5cf723","depositIntoStrategy(address,address,uint256)":"e7a050aa","depositIntoStrategyWithSignature(address,address,uint256,address,uint256,bytes)":"32e89ace","domainSeparator()":"f698da25","getDeposits(address)":"94f649dd","getStakerStrategyShares(address,address)":"5bd5cbfc","initialize(address,address)":"485cc955","migrateQueuedWithdrawal((address[],uint256[],address,(address,uint96),uint32,address))":"cd293f6f","nonces(address)":"7ecebe00","owner()":"8da5cb5b","removeShares(address,address,uint256)":"8c80d4e5","removeStrategiesFromDepositWhitelist(address[])":"b5d8b5b8","renounceOwnership()":"715018a6","setStrategyWhitelister(address)":"c6656702","stakerStrategyList(address,uint256)":"cbc2bd62","stakerStrategyListLength(address)":"8b8aac3c","stakerStrategyShares(address,address)":"7a7e0d92","strategyIsWhitelistedForDeposit(address)":"663c1de4","strategyWhitelister()":"967fc0d2","thirdPartyTransfersForbidden(address)":"9b4da03d","transferOwnership(address)":"f2fde38b","withdrawSharesAsTokens(address,address,uint256,address)":"c608c7f3","withdrawalRootPending(bytes32)":"c3c6b3a9"},"id":58}