{"abi":[{"type":"constructor","inputs":[{"name":"_delegationManager","type":"address","internalType":"contract IDelegationManager"},{"name":"_stragegyManager","type":"address","internalType":"contract IStrategyManager"},{"name":"_rewardTokenAddress","type":"address","internalType":"contract IERC20"},{"name":"_stakePercent","type":"uint256","internalType":"uint256"}],"stateMutability":"nonpayable"},{"type":"function","name":"delegationManager","inputs":[],"outputs":[{"name":"","type":"address","internalType":"contract IDelegationManager"}],"stateMutability":"view"},{"type":"function","name":"initialize","inputs":[{"name":"initialOwner","type":"address","internalType":"address"},{"name":"_rewardManager","type":"address","internalType":"address"},{"name":"_payFeeManager","type":"address","internalType":"address"}],"outputs":[],"stateMutability":"nonpayable"},{"type":"function","name":"operatorClaimReward","inputs":[],"outputs":[{"name":"","type":"bool","internalType":"bool"}],"stateMutability":"nonpayable"},{"type":"function","name":"operatorRewards","inputs":[{"name":"","type":"address","internalType":"address"}],"outputs":[{"name":"","type":"uint256","internalType":"uint256"}],"stateMutability":"view"},{"type":"function","name":"owner","inputs":[],"outputs":[{"name":"","type":"address","internalType":"address"}],"stateMutability":"view"},{"type":"function","name":"payFee","inputs":[{"name":"strategy","type":"address","internalType":"address"},{"name":"operator","type":"address","internalType":"address"},{"name":"baseFee","type":"uint256","internalType":"uint256"}],"outputs":[],"stateMutability":"nonpayable"},{"type":"function","name":"payFeeManager","inputs":[],"outputs":[{"name":"","type":"address","internalType":"address"}],"stateMutability":"view"},{"type":"function","name":"renounceOwnership","inputs":[],"outputs":[],"stateMutability":"nonpayable"},{"type":"function","name":"rewardManager","inputs":[],"outputs":[{"name":"","type":"address","internalType":"address"}],"stateMutability":"view"},{"type":"function","name":"rewardTokenAddress","inputs":[],"outputs":[{"name":"","type":"address","internalType":"contract IERC20"}],"stateMutability":"view"},{"type":"function","name":"stakeHolderClaimReward","inputs":[{"name":"strategy","type":"address","internalType":"address"}],"outputs":[{"name":"","type":"bool","internalType":"bool"}],"stateMutability":"nonpayable"},{"type":"function","name":"stakePercent","inputs":[],"outputs":[{"name":"","type":"uint256","internalType":"uint256"}],"stateMutability":"view"},{"type":"function","name":"strategyManager","inputs":[],"outputs":[{"name":"","type":"address","internalType":"contract IStrategyManager"}],"stateMutability":"view"},{"type":"function","name":"strategyStakeRewards","inputs":[{"name":"","type":"address","internalType":"address"}],"outputs":[{"name":"","type":"uint256","internalType":"uint256"}],"stateMutability":"view"},{"type":"function","name":"transferOwnership","inputs":[{"name":"newOwner","type":"address","internalType":"address"}],"outputs":[],"stateMutability":"nonpayable"},{"type":"function","name":"updateStakePercent","inputs":[{"name":"_stakePercent","type":"uint256","internalType":"uint256"}],"outputs":[],"stateMutability":"nonpayable"},{"type":"event","name":"Initialized","inputs":[{"name":"version","type":"uint64","indexed":false,"internalType":"uint64"}],"anonymous":false},{"type":"event","name":"OperatorAndStakeReward","inputs":[{"name":"strategy","type":"address","indexed":false,"internalType":"address"},{"name":"operator","type":"address","indexed":false,"internalType":"address"},{"name":"stakerFee","type":"uint256","indexed":false,"internalType":"uint256"},{"name":"operatorFee","type":"uint256","indexed":false,"internalType":"uint256"}],"anonymous":false},{"type":"event","name":"OperatorClaimReward","inputs":[{"name":"operator","type":"address","indexed":false,"internalType":"address"},{"name":"amount","type":"uint256","indexed":false,"internalType":"uint256"}],"anonymous":false},{"type":"event","name":"OwnershipTransferred","inputs":[{"name":"previousOwner","type":"address","indexed":true,"internalType":"address"},{"name":"newOwner","type":"address","indexed":true,"internalType":"address"}],"anonymous":false},{"type":"event","name":"StakeHolderClaimReward","inputs":[{"name":"stakeHolder","type":"address","indexed":false,"internalType":"address"},{"name":"strategy","type":"address","indexed":false,"internalType":"address"},{"name":"amount","type":"uint256","indexed":false,"internalType":"uint256"}],"anonymous":false},{"type":"error","name":"AddressEmptyCode","inputs":[{"name":"target","type":"address","internalType":"address"}]},{"type":"error","name":"AddressInsufficientBalance","inputs":[{"name":"account","type":"address","internalType":"address"}]},{"type":"error","name":"FailedInnerCall","inputs":[]},{"type":"error","name":"InvalidInitialization","inputs":[]},{"type":"error","name":"NotInitializing","inputs":[]},{"type":"error","name":"OwnableInvalidOwner","inputs":[{"name":"owner","type":"address","internalType":"address"}]},{"type":"error","name":"OwnableUnauthorizedAccount","inputs":[{"name":"account","type":"address","internalType":"address"}]},{"type":"error","name":"ReentrancyGuardReentrantCall","inputs":[]},{"type":"error","name":"SafeERC20FailedOperation","inputs":[{"name":"token","type":"address","internalType":"address"}]}],"bytecode":{"object":"0x60e03461015757601f61104f38819003918201601f19168301926001600160401b039290918385118386101761015b5781608092849260409788528339810103126101575780516001600160a01b039182821682036101575760208101519083821682036101575785810151938416840361015757606001519160805260a0525f5560c0527ff0c57e16840df040f15088dc2f81fe391c3923bec73e23a9662efc9c229c6a009081549060ff82851c16610146578080831603610102575b8351610edf9081610170823960805181818161013401526106e0015260a05181818161047b0152610ab3015260c0518181816104e9015281816105f30152610b3a0152f35b6001600160401b0319909116811790915581519081527fc7f505b2f371ae2175ee4913f4499e1f2633a7b5936321eed1cdaeb6115181d290602090a15f80806100bd565b835163f92ee8a960e01b8152600490fd5b5f80fd5b634e487b7160e01b5f52604160045260245ffdfe604060808152600480361015610013575f80fd5b5f3560e01c806258091d14610921578063057e3f24146108f95780630adfcd811461064a5780630f4ef8a614610622578063125f9e33146105df5780632cb08272146104c757806334a6cdc5146104aa57806339b70e381461046757806341a2b8d61461043157806365d4dab3146103fa578063715018a61461039357806386d48fb5146102ff5780638da5cb5b146102cb578063c0c53b8b14610163578063ea4d3c9b146101205763f2fde38b146100ca575f80fd5b3461011c57602036600319011261011c576100e361094f565b916100ec610d9a565b6001600160a01b038316156101065761010483610dd2565b005b905f6024925191631e4fbdf760e01b8352820152fd5b5f80fd5b823461011c575f36600319011261011c57517f00000000000000000000000000000000000000000000000000000000000000006001600160a01b03168152602090f35b50903461011c57606036600319011261011c5761017e61094f565b610186610965565b6001600160a01b03916044358381169081900361011c577ff0c57e16840df040f15088dc2f81fe391c3923bec73e23a9662efc9c229c6a009384549360ff85881c16159467ffffffffffffffff8116801590816102c3575b60011490816102b9575b1590816102b0575b506102a0578561023e9697989950600167ffffffffffffffff198316178955610281575b506bffffffffffffffffffffffff60a01b9283600254161760025516906001541617600155610dd2565b61024457005b805468ff00000000000000001916905551600181527fc7f505b2f371ae2175ee4913f4499e1f2633a7b5936321eed1cdaeb6115181d290602090a1005b68ffffffffffffffffff1916680100000000000000011787555f610214565b875163f92ee8a960e01b81528990fd5b9050155f6101f0565b303b1591506101e8565b8791506101de565b823461011c575f36600319011261011c575f80516020610e8a8339815191525490516001600160a01b039091168152602090f35b50903461011c57602036600319011261011c576001546001600160a01b0316330361032a5750355f55005b906020608492519162461bcd60e51b8352820152603860248201527f5265776172644d616e616765722e6f6e6c7920726577617264206d616e61676560448201527f722063616e2063616c6c20746869732066756e6374696f6e00000000000000006064820152fd5b3461011c575f36600319011261011c576103ab610d9a565b5f80516020610e8a83398151915280546001600160a01b031981169091555f906001600160a01b03167f8be0079c531659141344cd1fd0a4f28419497f9722a3daafe3b4186f6b6457e08280a3005b823461011c57602036600319011261011c576020906001600160a01b0361041f61094f565b165f5260038252805f20549051908152f35b50903461011c57602036600319011261011c576020916001600160a01b0361045761094f565b165f528252805f20549051908152f35b823461011c575f36600319011261011c57517f00000000000000000000000000000000000000000000000000000000000000006001600160a01b03168152602090f35b823461011c575f36600319011261011c576020905f549051908152f35b50903461011c575f36600319011261011c57335f52602091808352815f2054907f00000000000000000000000000000000000000000000000000000000000000009083516370a0823160e01b81523082820152858160248160018060a01b0387165afa9081156105d5575f916105a2575b50836105989381936105707ff358f13bbeaf315167e16e69fa1b06ca23f46b7fcc119b65b735a427539b332b976105819510156109f6565b335f5288525f878120553390610ca8565b835133815260208101919091529081906040820190565b0390a15160018152f35b939190508584813d83116105ce575b6105bb818361097b565b8101031261011c57925190929083610538565b503d6105b1565b85513d5f823e3d90fd5b823461011c575f36600319011261011c57517f00000000000000000000000000000000000000000000000000000000000000006001600160a01b03168152602090f35b823461011c575f36600319011261011c5760015490516001600160a01b039091168152602090f35b50903461011c57606036600319011261011c5761066561094f565b61066d610965565b60025490926001600160a01b0392909183163303610890578216938151633a98ef3960e01b8152602090818184818a5afa908115610886575f91610859575b50835163778e55f360e01b81526001600160a01b0380881685830190815290891660208201528390829081906040010381897f0000000000000000000000000000000000000000000000000000000000000000165afa9081156105d5575f9161082c575b5081151580610823575b156107a2579161075d6107557f80531474d393ce4cf1f6eff52666de82a1d793bd3644571afcd02e839460cdc89997959360809997956109b1565b6044356109b1565b93610782606461076e5f54886109cf565b048096895f526003855281875f2055610a74565b951691825f52815284835f205582519586528501528301526060820152a1005b505060a492519162461bcd60e51b8352820152605060248201527f5265776172644d616e61676572206f70657261746f72436c61696d526577617260448201527f643a206f6e65206f6620746f74616c53686172657320616e64206f706572617460648201526f6f72536861726573206973207a65726f60801b6084820152fd5b5080151561071a565b90508281813d8311610852575b610843818361097b565b8101031261011c57515f610710565b503d610839565b90508181813d831161087f575b610870818361097b565b8101031261011c57515f6106ac565b503d610866565b84513d5f823e3d90fd5b815162461bcd60e51b8152602081870152603960248201527f5265776172644d616e616765722e6f6e6c792070617920666565206d616e616760448201527f65722063616e2063616c6c20746869732066756e6374696f6e000000000000006064820152608490fd5b823461011c575f36600319011261011c5760025490516001600160a01b039091168152602090f35b823461011c57602036600319011261011c5760209061094661094161094f565b610a81565b90519015158152f35b600435906001600160a01b038216820361011c57565b602435906001600160a01b038216820361011c57565b90601f8019910116810190811067ffffffffffffffff82111761099d57604052565b634e487b7160e01b5f52604160045260245ffd5b81156109bb570490565b634e487b7160e01b5f52601260045260245ffd5b818102929181159184041417156109e257565b634e487b7160e01b5f52601160045260245ffd5b156109fd57565b60a460405162461bcd60e51b815260206004820152604460248201527f5265776172644d616e61676572206f70657261746f72436c61696d526577617260448201527f643a2052657761726420546f6b656e2062616c616e636520696e7375666669636064820152631a595b9d60e21b6084820152fd5b919082039182116109e257565b60408051633d3f06c960e11b81523360048201526001600160a01b0392831660248201819052602092909183816044817f000000000000000000000000000000000000000000000000000000000000000089165afa908115610c9e575f91610c71575b508151633a98ef3960e01b8152908482600481875afa918215610c26575f92610c42575b5080158015610c3a575b610c3057610b2e610b3492855f5260038752845f2054926109b1565b906109cf565b916024847f0000000000000000000000000000000000000000000000000000000000000000968451928380926370a0823160e01b82523060048301528a165afa908115610c26575f91610beb575b5090610bd9847f225586d654a262de7f45c07692f8b60b054903c50fa0268ef5ce14d20a0e545797610bbb8260609998979610156109f6565b835f5260038752845f20610bd0838254610a74565b90553390610ca8565b815193338552840152820152a1600190565b9480949392915085813d8311610c1f575b610c06818361097b565b8101031261011c57935192939192909190610bd9610b82565b503d610bfc565b83513d5f823e3d90fd5b5050505050505f90565b508115610b12565b9091508481813d8311610c6a575b610c5a818361097b565b8101031261011c5751905f610b08565b503d610c50565b90508381813d8311610c97575b610c88818361097b565b8101031261011c57515f610ae4565b503d610c7e565b82513d5f823e3d90fd5b60405163a9059cbb60e01b602082019081526001600160a01b03939093166024820152604480820194909452928352601f19915f91829190610ceb60648761097b565b60018060a01b031694519082865af1903d15610d8d573d9167ffffffffffffffff831161099d57610d3b92610d2b602060405194601f840116018461097b565b82523d5f602084013e5b83610e26565b8051908115159182610d69575b5050610d515750565b60249060405190635274afe760e01b82526004820152fd5b819250906020918101031261011c576020015180159081150361011c575f80610d48565b50610d3b90606090610d35565b5f80516020610e8a833981519152546001600160a01b03163303610dba57565b60405163118cdaa760e01b8152336004820152602490fd5b5f80516020610e8a83398151915280546001600160a01b039283166001600160a01b0319821681179092559091167f8be0079c531659141344cd1fd0a4f28419497f9722a3daafe3b4186f6b6457e05f80a3565b90610e4d5750805115610e3b57805190602001fd5b604051630a12f52160e11b8152600490fd5b81511580610e80575b610e5e575090565b604051639996b31560e01b81526001600160a01b039091166004820152602490fd5b50803b15610e5656fe9016d09d72d40fdae2fd8ceac6b6234c7706214fd39c1cd1e609a0528c199300a2646970667358221220652b4921ded751d3b346cec099f1647fe01f36bda50fa53143dca9ca5b8e471564736f6c63430008180033","linkReferences":{}},"methodIdentifiers":{"delegationManager()":"ea4d3c9b","initialize(address,address,address)":"c0c53b8b","operatorClaimReward()":"2cb08272","operatorRewards(address)":"41a2b8d6","owner()":"8da5cb5b","payFee(address,address,uint256)":"0adfcd81","payFeeManager()":"057e3f24","renounceOwnership()":"715018a6","rewardManager()":"0f4ef8a6","rewardTokenAddress()":"125f9e33","stakeHolderClaimReward(address)":"0058091d","stakePercent()":"34a6cdc5","strategyManager()":"39b70e38","strategyStakeRewards(address)":"65d4dab3","transferOwnership(address)":"f2fde38b","updateStakePercent(uint256)":"86d48fb5"},"id":55}