{"abi":[{"type":"constructor","inputs":[{"name":"_delegationManager","type":"address","internalType":"contract IDelegationManager"},{"name":"_stragegyManager","type":"address","internalType":"contract IStrategyManager"},{"name":"_rewardTokenAddress","type":"address","internalType":"contract IERC20"},{"name":"_stakePercent","type":"uint256","internalType":"uint256"}],"stateMutability":"nonpayable"},{"type":"function","name":"delegationManager","inputs":[],"outputs":[{"name":"","type":"address","internalType":"contract IDelegationManager"}],"stateMutability":"view"},{"type":"function","name":"initialize","inputs":[{"name":"initialOwner","type":"address","internalType":"address"},{"name":"_rewardManager","type":"address","internalType":"address"},{"name":"_payFeeManager","type":"address","internalType":"address"}],"outputs":[],"stateMutability":"nonpayable"},{"type":"function","name":"operatorClaimReward","inputs":[],"outputs":[{"name":"","type":"bool","internalType":"bool"}],"stateMutability":"nonpayable"},{"type":"function","name":"operatorRewards","inputs":[{"name":"","type":"address","internalType":"address"}],"outputs":[{"name":"","type":"uint256","internalType":"uint256"}],"stateMutability":"view"},{"type":"function","name":"owner","inputs":[],"outputs":[{"name":"","type":"address","internalType":"address"}],"stateMutability":"view"},{"type":"function","name":"payFee","inputs":[{"name":"strategy","type":"address","internalType":"address"},{"name":"operator","type":"address","internalType":"address"},{"name":"baseFee","type":"uint256","internalType":"uint256"}],"outputs":[],"stateMutability":"nonpayable"},{"type":"function","name":"payFeeManager","inputs":[],"outputs":[{"name":"","type":"address","internalType":"address"}],"stateMutability":"view"},{"type":"function","name":"renounceOwnership","inputs":[],"outputs":[],"stateMutability":"nonpayable"},{"type":"function","name":"rewardManager","inputs":[],"outputs":[{"name":"","type":"address","internalType":"address"}],"stateMutability":"view"},{"type":"function","name":"rewardTokenAddress","inputs":[],"outputs":[{"name":"","type":"address","internalType":"contract IERC20"}],"stateMutability":"view"},{"type":"function","name":"stakeHolderClaimReward","inputs":[{"name":"strategy","type":"address","internalType":"address"}],"outputs":[{"name":"","type":"bool","internalType":"bool"}],"stateMutability":"nonpayable"},{"type":"function","name":"stakePercent","inputs":[],"outputs":[{"name":"","type":"uint256","internalType":"uint256"}],"stateMutability":"view"},{"type":"function","name":"strategyManager","inputs":[],"outputs":[{"name":"","type":"address","internalType":"contract IStrategyManager"}],"stateMutability":"view"},{"type":"function","name":"strategyStakeRewards","inputs":[{"name":"","type":"address","internalType":"address"}],"outputs":[{"name":"","type":"uint256","internalType":"uint256"}],"stateMutability":"view"},{"type":"function","name":"transferOwnership","inputs":[{"name":"newOwner","type":"address","internalType":"address"}],"outputs":[],"stateMutability":"nonpayable"},{"type":"function","name":"updateStakePercent","inputs":[{"name":"_stakePercent","type":"uint256","internalType":"uint256"}],"outputs":[],"stateMutability":"nonpayable"},{"type":"event","name":"Initialized","inputs":[{"name":"version","type":"uint64","indexed":false,"internalType":"uint64"}],"anonymous":false},{"type":"event","name":"OperatorAndStakeReward","inputs":[{"name":"strategy","type":"address","indexed":false,"internalType":"address"},{"name":"operator","type":"address","indexed":false,"internalType":"address"},{"name":"stakerFee","type":"uint256","indexed":false,"internalType":"uint256"},{"name":"operatorFee","type":"uint256","indexed":false,"internalType":"uint256"}],"anonymous":false},{"type":"event","name":"OperatorClaimReward","inputs":[{"name":"operator","type":"address","indexed":false,"internalType":"address"},{"name":"amount","type":"uint256","indexed":false,"internalType":"uint256"}],"anonymous":false},{"type":"event","name":"OwnershipTransferred","inputs":[{"name":"previousOwner","type":"address","indexed":true,"internalType":"address"},{"name":"newOwner","type":"address","indexed":true,"internalType":"address"}],"anonymous":false},{"type":"event","name":"StakeHolderClaimReward","inputs":[{"name":"stakeHolder","type":"address","indexed":false,"internalType":"address"},{"name":"amount","type":"uint256","indexed":false,"internalType":"uint256"}],"anonymous":false},{"type":"error","name":"AddressEmptyCode","inputs":[{"name":"target","type":"address","internalType":"address"}]},{"type":"error","name":"AddressInsufficientBalance","inputs":[{"name":"account","type":"address","internalType":"address"}]},{"type":"error","name":"FailedInnerCall","inputs":[]},{"type":"error","name":"InvalidInitialization","inputs":[]},{"type":"error","name":"NotInitializing","inputs":[]},{"type":"error","name":"OwnableInvalidOwner","inputs":[{"name":"owner","type":"address","internalType":"address"}]},{"type":"error","name":"OwnableUnauthorizedAccount","inputs":[{"name":"account","type":"address","internalType":"address"}]},{"type":"error","name":"ReentrancyGuardReentrantCall","inputs":[]},{"type":"error","name":"SafeERC20FailedOperation","inputs":[{"name":"token","type":"address","internalType":"address"}]}],"bytecode":{"object":"0x60e03461015757601f610e8238819003918201601f19168301926001600160401b039290918385118386101761015b5781608092849260409788528339810103126101575780516001600160a01b039182821682036101575760208101519083821682036101575785810151938416840361015757606001519160805260a0525f5560c0527ff0c57e16840df040f15088dc2f81fe391c3923bec73e23a9662efc9c229c6a009081549060ff82851c16610146578080831603610102575b8351610d12908161017082396080518181816101340152610666015260a05181818161047b0152610949015260c0518181816105130152818161057b01526109f90152f35b6001600160401b0319909116811790915581519081527fc7f505b2f371ae2175ee4913f4499e1f2633a7b5936321eed1cdaeb6115181d290602090a15f80806100bd565b835163f92ee8a960e01b8152600490fd5b5f80fd5b634e487b7160e01b5f52604160045260245ffdfe604060808152600480361015610013575f80fd5b5f3560e01c806258091d1461082f578063057e3f24146108075780630adfcd81146105d25780630f4ef8a6146105aa578063125f9e33146105675780632cb08272146104c757806334a6cdc5146104aa57806339b70e381461046757806341a2b8d61461043157806365d4dab3146103fa578063715018a61461039357806386d48fb5146102ff5780638da5cb5b146102cb578063c0c53b8b14610163578063ea4d3c9b146101205763f2fde38b146100ca575f80fd5b3461011c57602036600319011261011c576100e361085d565b916100ec610bcd565b6001600160a01b038316156101065761010483610c05565b005b905f6024925191631e4fbdf760e01b8352820152fd5b5f80fd5b823461011c575f36600319011261011c57517f00000000000000000000000000000000000000000000000000000000000000006001600160a01b03168152602090f35b50903461011c57606036600319011261011c5761017e61085d565b610186610873565b6001600160a01b03916044358381169081900361011c577ff0c57e16840df040f15088dc2f81fe391c3923bec73e23a9662efc9c229c6a009384549360ff85881c16159467ffffffffffffffff8116801590816102c3575b60011490816102b9575b1590816102b0575b506102a0578561023e9697989950600167ffffffffffffffff198316178955610281575b506bffffffffffffffffffffffff60a01b9283600254161760025516906001541617600155610c05565b61024457005b805468ff00000000000000001916905551600181527fc7f505b2f371ae2175ee4913f4499e1f2633a7b5936321eed1cdaeb6115181d290602090a1005b68ffffffffffffffffff1916680100000000000000011787555f610214565b875163f92ee8a960e01b81528990fd5b9050155f6101f0565b303b1591506101e8565b8791506101de565b823461011c575f36600319011261011c575f80516020610cbd8339815191525490516001600160a01b039091168152602090f35b50903461011c57602036600319011261011c576001546001600160a01b0316330361032a5750355f55005b906020608492519162461bcd60e51b8352820152603860248201527f5265776172644d616e616765722e6f6e6c7920726577617264206d616e61676560448201527f722063616e2063616c6c20746869732066756e6374696f6e00000000000000006064820152fd5b3461011c575f36600319011261011c576103ab610bcd565b5f80516020610cbd83398151915280546001600160a01b031981169091555f906001600160a01b03167f8be0079c531659141344cd1fd0a4f28419497f9722a3daafe3b4186f6b6457e08280a3005b823461011c57602036600319011261011c576020906001600160a01b0361041f61085d565b165f5260038252805f20549051908152f35b50903461011c57602036600319011261011c576020916001600160a01b0361045761085d565b165f528252805f20549051908152f35b823461011c575f36600319011261011c57517f00000000000000000000000000000000000000000000000000000000000000006001600160a01b03168152602090f35b823461011c575f36600319011261011c576020905f549051908152f35b50903461011c575f36600319011261011c577ff358f13bbeaf315167e16e69fa1b06ca23f46b7fcc119b65b735a427539b332b61055d602093335f52808552835f2054906105378233307f0000000000000000000000000000000000000000000000000000000000000000610ad1565b335f81815291875285822091909155845190815260208101919091529081906040820190565b0390a15160018152f35b823461011c575f36600319011261011c57517f00000000000000000000000000000000000000000000000000000000000000006001600160a01b03168152602090f35b823461011c575f36600319011261011c5760015490516001600160a01b039091168152602090f35b50903461011c57606036600319011261011c576105ed61085d565b6105f5610873565b60015490916001600160a01b03918216330361079e57811692805194633a98ef3960e01b8652602080878381895afa968715610794575f97610765575b50825163778e55f360e01b81526001600160a01b0380871684830190815290881660208201528290829081906040010381887f0000000000000000000000000000000000000000000000000000000000000000165afa90811561075b575f9161071a575b50906106d56106cd7f80531474d393ce4cf1f6eff52666de82a1d793bd3644571afcd02e839460cdc89960809998979695946108bf565b6044356108bf565b936106fa60646106e65f54886108dd565b048096895f526003855281875f2055610904565b951691825f52815284835f205582519586528501528301526060820152a1005b96959493929180915087813d8311610754575b6107378183610889565b8101031261011c57955194959394929391929091906106d5610696565b503d61072d565b84513d5f823e3d90fd5b9080975081813d831161078d575b61077d8183610889565b8101031261011c5751955f610632565b503d610773565b83513d5f823e3d90fd5b835162461bcd60e51b8152602081870152603960248201527f5265776172644d616e616765722e6f6e6c792070617920666565206d616e616760448201527f65722063616e2063616c6c20746869732066756e6374696f6e000000000000006064820152608490fd5b823461011c575f36600319011261011c5760025490516001600160a01b039091168152602090f35b823461011c57602036600319011261011c5760209061085461084f61085d565b610911565b90519015158152f35b600435906001600160a01b038216820361011c57565b602435906001600160a01b038216820361011c57565b90601f8019910116810190811067ffffffffffffffff8211176108ab57604052565b634e487b7160e01b5f52604160045260245ffd5b81156108c9570490565b634e487b7160e01b5f52601260045260245ffd5b818102929181159184041417156108f057565b634e487b7160e01b5f52601160045260245ffd5b919082039182116108f057565b60408051633d3f06c960e11b81523360048201526001600160a01b0392831660248201819052602093919290918490849060449082907f0000000000000000000000000000000000000000000000000000000000000000165afa928315610ac7575f93610a98575b508051633a98ef3960e01b8152928484600481865afa938415610a8e575f94610a5f575b5080158015610a57575b610a4e577f05c713f9714a7f88571f4dd4709e245825e594762ffafd8b649886a952836185946109f06003926109ea610a4697875f52858552865f2054926108bf565b906108dd565b93610a1d8533307f0000000000000000000000000000000000000000000000000000000000000000610ad1565b5f5252805f20610a2e838254610904565b90555133815260208101919091529081906040820190565b0390a1600190565b50505050505f90565b5083156109a7565b9093508481813d8311610a87575b610a778183610889565b8101031261011c5751925f61099d565b503d610a6d565b82513d5f823e3d90fd5b9092508381813d8311610ac0575b610ab08183610889565b8101031261011c5751915f610979565b503d610aa6565b50513d5f823e3d90fd5b6040516323b872dd60e01b602082019081526001600160a01b039384166024830152938316604482015260648082019590955293845267ffffffffffffffff92909160a085019190848311868410176108ab575f9384936040521694519082865af1903d15610bc0573d9081116108ab57610b6e9160405191610b5e6020601f19601f8401160184610889565b82523d5f602084013e5b83610c59565b8051908115159182610b9c575b5050610b845750565b60249060405190635274afe760e01b82526004820152fd5b819250906020918101031261011c576020015180159081150361011c575f80610b7b565b50610b6e90606090610b68565b5f80516020610cbd833981519152546001600160a01b03163303610bed57565b60405163118cdaa760e01b8152336004820152602490fd5b5f80516020610cbd83398151915280546001600160a01b039283166001600160a01b0319821681179092559091167f8be0079c531659141344cd1fd0a4f28419497f9722a3daafe3b4186f6b6457e05f80a3565b90610c805750805115610c6e57805190602001fd5b604051630a12f52160e11b8152600490fd5b81511580610cb3575b610c91575090565b604051639996b31560e01b81526001600160a01b039091166004820152602490fd5b50803b15610c8956fe9016d09d72d40fdae2fd8ceac6b6234c7706214fd39c1cd1e609a0528c199300a26469706673582212200e402d41f9d0f23846267b49dceb9e607917f1082ed3795613e5baae760c4ab364736f6c63430008180033","linkReferences":{}},"methodIdentifiers":{"delegationManager()":"ea4d3c9b","initialize(address,address,address)":"c0c53b8b","operatorClaimReward()":"2cb08272","operatorRewards(address)":"41a2b8d6","owner()":"8da5cb5b","payFee(address,address,uint256)":"0adfcd81","payFeeManager()":"057e3f24","renounceOwnership()":"715018a6","rewardManager()":"0f4ef8a6","rewardTokenAddress()":"125f9e33","stakeHolderClaimReward(address)":"0058091d","stakePercent()":"34a6cdc5","strategyManager()":"39b70e38","strategyStakeRewards(address)":"65d4dab3","transferOwnership(address)":"f2fde38b","updateStakePercent(uint256)":"86d48fb5"},"id":55}